{
	"compilerInput": "{\"language\":\"Solidity\",\"sources\":{\"contracts/account/Account.sol\":{\"content\":\"pragma solidity ^0.5.10;\\n\\nimport \\\"./AbstractAccount.sol\\\";\\n\\n\\n/**\\n * @title Account\\n */\\ncontract Account is AbstractAccount {\\n\\n  modifier onlyOwner() {\\n    require(\\n      devices[msg.sender].isOwner\\n    );\\n\\n    _;\\n  }\\n\\n  constructor() public {\\n    devices[msg.sender].isOwner = true;\\n    devices[msg.sender].exists = true;\\n    devices[msg.sender].existed = true;\\n  }\\n\\n  function() external payable {\\n    //\\n  }\\n\\n  function addDevice(address _device, bool _isOwner) onlyOwner public {\\n    require(\\n      _device != address(0)\\n    );\\n    require(\\n      !devices[_device].exists\\n    );\\n\\n    devices[_device].isOwner = _isOwner;\\n    devices[_device].exists = true;\\n    devices[_device].existed = true;\\n\\n    emit DeviceAdded(_device, _isOwner);\\n  }\\n\\n  function removeDevice(address _device) onlyOwner public {\\n    require(\\n      devices[_device].exists\\n    );\\n\\n    devices[_device].isOwner = false;\\n    devices[_device].exists = false;\\n\\n    emit DeviceRemoved(_device);\\n  }\\n\\n  function executeTransaction(address payable _recipient, uint256 _value, bytes memory _data) onlyOwner public returns (bytes memory _response) {\\n    require(\\n      _recipient != address(0)\\n    );\\n\\n    bool _succeeded;\\n    (_succeeded, _response) = _recipient.call.value(_value)(_data);\\n\\n    require(\\n      _succeeded\\n    );\\n\\n    emit TransactionExecuted(_recipient, _value, _data, _response);\\n  }\\n\\n  function isValidSignature(\\n    bytes memory _data,\\n    bytes memory _signature\\n  ) public view returns (bytes4 magicValue) {\\n    address _recovered;\\n\\n    if (_signature.length == 65) {\\n      bytes32 _r;\\n      bytes32 _s;\\n      uint8 _v;\\n\\n      assembly {\\n        _r := mload(add(_signature, 0x20))\\n        _s := mload(add(_signature, 0x40))\\n        _v := byte(0, mload(add(_signature, 0x60)))\\n      }\\n\\n      if (_v < 27) {\\n        _v += 27;\\n      }\\n\\n      if (_v == 27 || _v == 28) {\\n        _recovered = ecrecover(\\n          keccak256(abi.encodePacked(\\\"\\\\x19Ethereum Signed Message:\\\\n\\\", uint2str(_data.length), _data)),\\n          _v,\\n          _r,\\n          _s\\n        );\\n      }\\n    }\\n\\n    if (devices[_recovered].existed) {\\n      magicValue = 0x20c13b0b;\\n    } else {\\n      magicValue = 0xffffffff;\\n    }\\n  }\\n\\n  function uint2str(uint _num) internal pure returns (string memory _uintAsString) {\\n    if (_num == 0) {\\n      return \\\"0\\\";\\n    }\\n    uint i = _num;\\n    uint j = _num;\\n    uint len;\\n    while (j != 0) {\\n      len++;\\n      j /= 10;\\n    }\\n    bytes memory bstr = new bytes(len);\\n    uint k = len - 1;\\n    while (i != 0) {\\n      bstr[k--] = byte(uint8(48 + i % 10));\\n      i /= 10;\\n    }\\n    return string(bstr);\\n  }\\n}\\n\"},\"contracts/account/AbstractAccount.sol\":{\"content\":\"pragma solidity ^0.5.10;\\n\\nimport \\\"./ERC1271.sol\\\";\\n\\n\\n/**\\n * @title Abstract Account\\n */\\ncontract AbstractAccount is ERC1271 {\\n\\n  event DeviceAdded(address device, bool isOwner);\\n  event DeviceRemoved(address device);\\n  event TransactionExecuted(address recipient, uint256 value, bytes data, bytes response);\\n\\n  struct Device {\\n    bool isOwner;\\n    bool exists;\\n    bool existed;\\n  }\\n\\n  mapping(address => Device) public devices;\\n\\n  function addDevice(address _device, bool _isOwner) public;\\n\\n  function removeDevice(address _device) public;\\n\\n  function executeTransaction(address payable _recipient, uint256 _value, bytes memory _data) public returns (bytes memory _response);\\n}\\n\"},\"contracts/account/ERC1271.sol\":{\"content\":\"pragma solidity ^0.5.10;\\n\\ncontract ERC1271 {\\n\\n  // bytes4(keccak256(\\\"isValidSignature(bytes,bytes)\\\")\\n  bytes4 constant internal MAGICVALUE = 0x20c13b0b;\\n\\n  /**\\n   * @dev Should return whether the signature provided is valid for the provided data\\n   * @param _data Arbitrary length data signed on the behalf of address(this)\\n   * @param _signature Signature byte array associated with _data\\n   *\\n   * MUST return the bytes4 magic value 0x20c13b0b when function passes.\\n   * MUST NOT modify state (using STATICCALL for solc < 0.5, view modifier for solc > 0.5)\\n   * MUST allow external calls\\n   */\\n  function isValidSignature(\\n    bytes memory _data,\\n    bytes memory _signature\\n  ) public view returns (bytes4 magicValue);\\n}\\n\"}},\"settings\":{\"optimizer\":{\"enabled\":false,\"runs\":200},\"outputSelection\":{\"*\":{\"\":[\"ast\"],\"*\":[\"abi\",\"metadata\",\"devdoc\",\"userdoc\",\"storageLayout\",\"evm.legacyAssembly\",\"evm.bytecode\",\"evm.deployedBytecode\",\"evm.methodIdentifiers\",\"evm.gasEstimates\",\"evm.assembly\"]}},\"remappings\":[]}}",
	"name": "Account",
	"bytecode": {
		"linkReferences": {},
		"object": "608060405234801561001057600080fd5b5060016000803373ffffffffffffffffffffffffffffffffffffffff1673ffffffffffffffffffffffffffffffffffffffff16815260200190815260200160002060000160006101000a81548160ff02191690831515021790555060016000803373ffffffffffffffffffffffffffffffffffffffff1673ffffffffffffffffffffffffffffffffffffffff16815260200190815260200160002060000160016101000a81548160ff02191690831515021790555060016000803373ffffffffffffffffffffffffffffffffffffffff1673ffffffffffffffffffffffffffffffffffffffff16815260200190815260200160002060000160026101000a81548160ff021916908315150217905550610f5b8061012e6000396000f3fe60806040526004361061004a5760003560e01c80631f7b63241461004c57806320c13b0b1461009d5780633f579f421461024e578063811d54dc146103b9578063e7b4cac614610416575b005b34801561005857600080fd5b5061009b6004803603602081101561006f57600080fd5b81019080803573ffffffffffffffffffffffffffffffffffffffff169060200190929190505050610495565b005b3480156100a957600080fd5b506101fa600480360360408110156100c057600080fd5b81019080803590602001906401000000008111156100dd57600080fd5b8201836020820111156100ef57600080fd5b8035906020019184600183028401116401000000008311171561011157600080fd5b91908080601f016020809104026020016040519081016040528093929190818152602001838380828437600081840152601f19601f8201169050808301925050505050505091929192908035906020019064010000000081111561017457600080fd5b82018360208201111561018657600080fd5b803590602001918460018302840111640100000000831117156101a857600080fd5b91908080601f016020809104026020016040519081016040528093929190818152602001838380828437600081840152601f19601f82011690508083019250505050505050919291929050505061065f565b60405180827bffffffffffffffffffffffffffffffffffffffffffffffffffffffff19167bffffffffffffffffffffffffffffffffffffffffffffffffffffffff1916815260200191505060405180910390f35b34801561025a57600080fd5b5061033e6004803603606081101561027157600080fd5b81019080803573ffffffffffffffffffffffffffffffffffffffff16906020019092919080359060200190929190803590602001906401000000008111156102b857600080fd5b8201836020820111156102ca57600080fd5b803590602001918460018302840111640100000000831117156102ec57600080fd5b91908080601f016020809104026020016040519081016040528093929190818152602001838380828437600081840152601f19601f82011690508083019250505050505050919291929050505061088e565b6040518080602001828103825283818151815260200191508051906020019080838360005b8381101561037e578082015181840152602081019050610363565b50505050905090810190601f1680156103ab5780820380516001836020036101000a031916815260200191505b509250505060405180910390f35b3480156103c557600080fd5b50610414600480360360408110156103dc57600080fd5b81019080803573ffffffffffffffffffffffffffffffffffffffff169060200190929190803515159060200190929190505050610b37565b005b34801561042257600080fd5b506104656004803603602081101561043957600080fd5b81019080803573ffffffffffffffffffffffffffffffffffffffff169060200190929190505050610da2565b60405180841515151581526020018315151515815260200182151515158152602001935050505060405180910390f35b6000803373ffffffffffffffffffffffffffffffffffffffff1673ffffffffffffffffffffffffffffffffffffffff16815260200190815260200160002060000160009054906101000a900460ff166104ed57600080fd5b6000808273ffffffffffffffffffffffffffffffffffffffff1673ffffffffffffffffffffffffffffffffffffffff16815260200190815260200160002060000160019054906101000a900460ff1661054557600080fd5b60008060008373ffffffffffffffffffffffffffffffffffffffff1673ffffffffffffffffffffffffffffffffffffffff16815260200190815260200160002060000160006101000a81548160ff02191690831515021790555060008060008373ffffffffffffffffffffffffffffffffffffffff1673ffffffffffffffffffffffffffffffffffffffff16815260200190815260200160002060000160016101000a81548160ff0219169083151502179055507f15c62ec158a6c18af42b447791266b9b0764ba2a6df610890d4da85c3d4185db81604051808273ffffffffffffffffffffffffffffffffffffffff1673ffffffffffffffffffffffffffffffffffffffff16815260200191505060405180910390a150565b6000806041835114156108195760008060006020860151925060408601519150606086015160001a9050601b8160ff16101561069c57601b810190505b601b8160ff1614806106b15750601c8160ff16145b156108155760016106c28851610df3565b8860405160200180807f19457468657265756d205369676e6564204d6573736167653a0a000000000000815250601a0183805190602001908083835b6020831061072157805182526020820191506020810190506020830392506106fe565b6001836020036101000a03801982511681845116808217855250505050505090500182805190602001908083835b60208310610772578051825260208201915060208101905060208303925061074f565b6001836020036101000a038019825116818451168082178552505050505050905001925050506040516020818303038152906040528051906020012082858560405160008152602001604052604051808581526020018460ff1660ff1681526020018381526020018281526020019450505050506020604051602081039080840390855afa158015610808573d6000803e3d6000fd5b5050506020604051035193505b5050505b6000808273ffffffffffffffffffffffffffffffffffffffff1673ffffffffffffffffffffffffffffffffffffffff16815260200190815260200160002060000160029054906101000a900460ff161561087c576320c13b0b60e01b9150610887565b63ffffffff60e01b91505b5092915050565b60606000803373ffffffffffffffffffffffffffffffffffffffff1673ffffffffffffffffffffffffffffffffffffffff16815260200190815260200160002060000160009054906101000a900460ff166108e857600080fd5b600073ffffffffffffffffffffffffffffffffffffffff168473ffffffffffffffffffffffffffffffffffffffff16141561092257600080fd5b60008473ffffffffffffffffffffffffffffffffffffffff1684846040518082805190602001908083835b60208310610970578051825260208201915060208101905060208303925061094d565b6001836020036101000a03801982511681845116808217855250505050505090500191505060006040518083038185875af1925050503d80600081146109d2576040519150601f19603f3d011682016040523d82523d6000602084013e6109d7565b606091505b508093508192505050806109ea57600080fd5b7f012ae8711b8dc37e405d8e422569d1ee78d52d76bc8fe2a9ea81ffe17569e51a85858585604051808573ffffffffffffffffffffffffffffffffffffffff1673ffffffffffffffffffffffffffffffffffffffff1681526020018481526020018060200180602001838103835285818151815260200191508051906020019080838360005b83811015610a8b578082015181840152602081019050610a70565b50505050905090810190601f168015610ab85780820380516001836020036101000a031916815260200191505b50838103825284818151815260200191508051906020019080838360005b83811015610af1578082015181840152602081019050610ad6565b50505050905090810190601f168015610b1e5780820380516001836020036101000a031916815260200191505b50965050505050505060405180910390a1509392505050565b6000803373ffffffffffffffffffffffffffffffffffffffff1673ffffffffffffffffffffffffffffffffffffffff16815260200190815260200160002060000160009054906101000a900460ff16610b8f57600080fd5b600073ffffffffffffffffffffffffffffffffffffffff168273ffffffffffffffffffffffffffffffffffffffff161415610bc957600080fd5b6000808373ffffffffffffffffffffffffffffffffffffffff1673ffffffffffffffffffffffffffffffffffffffff16815260200190815260200160002060000160019054906101000a900460ff1615610c2257600080fd5b806000808473ffffffffffffffffffffffffffffffffffffffff1673ffffffffffffffffffffffffffffffffffffffff16815260200190815260200160002060000160006101000a81548160ff02191690831515021790555060016000808473ffffffffffffffffffffffffffffffffffffffff1673ffffffffffffffffffffffffffffffffffffffff16815260200190815260200160002060000160016101000a81548160ff02191690831515021790555060016000808473ffffffffffffffffffffffffffffffffffffffff1673ffffffffffffffffffffffffffffffffffffffff16815260200190815260200160002060000160026101000a81548160ff0219169083151502179055507f3525178f8d4a5c0dc1e61a0ede8d6a7a9ea67a23ec515983bbb940be4b4196508282604051808373ffffffffffffffffffffffffffffffffffffffff1673ffffffffffffffffffffffffffffffffffffffff168152602001821515151581526020019250505060405180910390a15050565b60006020528060005260406000206000915090508060000160009054906101000a900460ff16908060000160019054906101000a900460ff16908060000160029054906101000a900460ff16905083565b60606000821415610e3b576040518060400160405280600181526020017f30000000000000000000000000000000000000000000000000000000000000008152509050610f21565b6000829050600083905060005b60008214610e6a578080600101915050600a8281610e6257fe5b049150610e48565b6060816040519080825280601f01601f191660200182016040528015610e9f5781602001600182028038833980820191505090505b50905060006001830390505b60008514610f1857600a8581610ebd57fe5b0660300160f81b82828060019003935081518110610ed757fe5b60200101907effffffffffffffffffffffffffffffffffffffffffffffffffffffffffffff1916908160001a905350600a8581610f1057fe5b049450610eab565b81955050505050505b91905056fea265627a7a72315820ac1032a295e73fbe3de4730c2fc9e964e4c0f010d359c7829a48d86f6bef57ba64736f6c63430005110032",
		"opcodes": "PUSH1 0x80 PUSH1 0x40 MSTORE CALLVALUE DUP1 ISZERO PUSH2 0x10 JUMPI PUSH1 0x0 DUP1 REVERT JUMPDEST POP PUSH1 0x1 PUSH1 0x0 DUP1 CALLER PUSH20 0xFFFFFFFFFFFFFFFFFFFFFFFFFFFFFFFFFFFFFFFF AND PUSH20 0xFFFFFFFFFFFFFFFFFFFFFFFFFFFFFFFFFFFFFFFF AND DUP2 MSTORE PUSH1 0x20 ADD SWAP1 DUP2 MSTORE PUSH1 0x20 ADD PUSH1 0x0 KECCAK256 PUSH1 0x0 ADD PUSH1 0x0 PUSH2 0x100 EXP DUP2 SLOAD DUP2 PUSH1 0xFF MUL NOT AND SWAP1 DUP4 ISZERO ISZERO MUL OR SWAP1 SSTORE POP PUSH1 0x1 PUSH1 0x0 DUP1 CALLER PUSH20 0xFFFFFFFFFFFFFFFFFFFFFFFFFFFFFFFFFFFFFFFF AND PUSH20 0xFFFFFFFFFFFFFFFFFFFFFFFFFFFFFFFFFFFFFFFF AND DUP2 MSTORE PUSH1 0x20 ADD SWAP1 DUP2 MSTORE PUSH1 0x20 ADD PUSH1 0x0 KECCAK256 PUSH1 0x0 ADD PUSH1 0x1 PUSH2 0x100 EXP DUP2 SLOAD DUP2 PUSH1 0xFF MUL NOT AND SWAP1 DUP4 ISZERO ISZERO MUL OR SWAP1 SSTORE POP PUSH1 0x1 PUSH1 0x0 DUP1 CALLER PUSH20 0xFFFFFFFFFFFFFFFFFFFFFFFFFFFFFFFFFFFFFFFF AND PUSH20 0xFFFFFFFFFFFFFFFFFFFFFFFFFFFFFFFFFFFFFFFF AND DUP2 MSTORE PUSH1 0x20 ADD SWAP1 DUP2 MSTORE PUSH1 0x20 ADD PUSH1 0x0 KECCAK256 PUSH1 0x0 ADD PUSH1 0x2 PUSH2 0x100 EXP DUP2 SLOAD DUP2 PUSH1 0xFF MUL NOT AND SWAP1 DUP4 ISZERO ISZERO MUL OR SWAP1 SSTORE POP PUSH2 0xF5B DUP1 PUSH2 0x12E PUSH1 0x0 CODECOPY PUSH1 0x0 RETURN INVALID PUSH1 0x80 PUSH1 0x40 MSTORE PUSH1 0x4 CALLDATASIZE LT PUSH2 0x4A JUMPI PUSH1 0x0 CALLDATALOAD PUSH1 0xE0 SHR DUP1 PUSH4 0x1F7B6324 EQ PUSH2 0x4C JUMPI DUP1 PUSH4 0x20C13B0B EQ PUSH2 0x9D JUMPI DUP1 PUSH4 0x3F579F42 EQ PUSH2 0x24E JUMPI DUP1 PUSH4 0x811D54DC EQ PUSH2 0x3B9 JUMPI DUP1 PUSH4 0xE7B4CAC6 EQ PUSH2 0x416 JUMPI JUMPDEST STOP JUMPDEST CALLVALUE DUP1 ISZERO PUSH2 0x58 JUMPI PUSH1 0x0 DUP1 REVERT JUMPDEST POP PUSH2 0x9B PUSH1 0x4 DUP1 CALLDATASIZE SUB PUSH1 0x20 DUP2 LT ISZERO PUSH2 0x6F JUMPI PUSH1 0x0 DUP1 REVERT JUMPDEST DUP2 ADD SWAP1 DUP1 DUP1 CALLDATALOAD PUSH20 0xFFFFFFFFFFFFFFFFFFFFFFFFFFFFFFFFFFFFFFFF AND SWAP1 PUSH1 0x20 ADD SWAP1 SWAP3 SWAP2 SWAP1 POP POP POP PUSH2 0x495 JUMP JUMPDEST STOP JUMPDEST CALLVALUE DUP1 ISZERO PUSH2 0xA9 JUMPI PUSH1 0x0 DUP1 REVERT JUMPDEST POP PUSH2 0x1FA PUSH1 0x4 DUP1 CALLDATASIZE SUB PUSH1 0x40 DUP2 LT ISZERO PUSH2 0xC0 JUMPI PUSH1 0x0 DUP1 REVERT JUMPDEST DUP2 ADD SWAP1 DUP1 DUP1 CALLDATALOAD SWAP1 PUSH1 0x20 ADD SWAP1 PUSH5 0x100000000 DUP2 GT ISZERO PUSH2 0xDD JUMPI PUSH1 0x0 DUP1 REVERT JUMPDEST DUP3 ADD DUP4 PUSH1 0x20 DUP3 ADD GT ISZERO PUSH2 0xEF JUMPI PUSH1 0x0 DUP1 REVERT JUMPDEST DUP1 CALLDATALOAD SWAP1 PUSH1 0x20 ADD SWAP2 DUP5 PUSH1 0x1 DUP4 MUL DUP5 ADD GT PUSH5 0x100000000 DUP4 GT OR ISZERO PUSH2 0x111 JUMPI PUSH1 0x0 DUP1 REVERT JUMPDEST SWAP2 SWAP1 DUP1 DUP1 PUSH1 0x1F ADD PUSH1 0x20 DUP1 SWAP2 DIV MUL PUSH1 0x20 ADD PUSH1 0x40 MLOAD SWAP1 DUP2 ADD PUSH1 0x40 MSTORE DUP1 SWAP4 SWAP3 SWAP2 SWAP1 DUP2 DUP2 MSTORE PUSH1 0x20 ADD DUP4 DUP4 DUP1 DUP3 DUP5 CALLDATACOPY PUSH1 0x0 DUP2 DUP5 ADD MSTORE PUSH1 0x1F NOT PUSH1 0x1F DUP3 ADD AND SWAP1 POP DUP1 DUP4 ADD SWAP3 POP POP POP POP POP POP POP SWAP2 SWAP3 SWAP2 SWAP3 SWAP1 DUP1 CALLDATALOAD SWAP1 PUSH1 0x20 ADD SWAP1 PUSH5 0x100000000 DUP2 GT ISZERO PUSH2 0x174 JUMPI PUSH1 0x0 DUP1 REVERT JUMPDEST DUP3 ADD DUP4 PUSH1 0x20 DUP3 ADD GT ISZERO PUSH2 0x186 JUMPI PUSH1 0x0 DUP1 REVERT JUMPDEST DUP1 CALLDATALOAD SWAP1 PUSH1 0x20 ADD SWAP2 DUP5 PUSH1 0x1 DUP4 MUL DUP5 ADD GT PUSH5 0x100000000 DUP4 GT OR ISZERO PUSH2 0x1A8 JUMPI PUSH1 0x0 DUP1 REVERT JUMPDEST SWAP2 SWAP1 DUP1 DUP1 PUSH1 0x1F ADD PUSH1 0x20 DUP1 SWAP2 DIV MUL PUSH1 0x20 ADD PUSH1 0x40 MLOAD SWAP1 DUP2 ADD PUSH1 0x40 MSTORE DUP1 SWAP4 SWAP3 SWAP2 SWAP1 DUP2 DUP2 MSTORE PUSH1 0x20 ADD DUP4 DUP4 DUP1 DUP3 DUP5 CALLDATACOPY PUSH1 0x0 DUP2 DUP5 ADD MSTORE PUSH1 0x1F NOT PUSH1 0x1F DUP3 ADD AND SWAP1 POP DUP1 DUP4 ADD SWAP3 POP POP POP POP POP POP POP SWAP2 SWAP3 SWAP2 SWAP3 SWAP1 POP POP POP PUSH2 0x65F JUMP JUMPDEST PUSH1 0x40 MLOAD DUP1 DUP3 PUSH28 0xFFFFFFFFFFFFFFFFFFFFFFFFFFFFFFFFFFFFFFFFFFFFFFFFFFFFFFFF NOT AND PUSH28 0xFFFFFFFFFFFFFFFFFFFFFFFFFFFFFFFFFFFFFFFFFFFFFFFFFFFFFFFF NOT AND DUP2 MSTORE PUSH1 0x20 ADD SWAP2 POP POP PUSH1 0x40 MLOAD DUP1 SWAP2 SUB SWAP1 RETURN JUMPDEST CALLVALUE DUP1 ISZERO PUSH2 0x25A JUMPI PUSH1 0x0 DUP1 REVERT JUMPDEST POP PUSH2 0x33E PUSH1 0x4 DUP1 CALLDATASIZE SUB PUSH1 0x60 DUP2 LT ISZERO PUSH2 0x271 JUMPI PUSH1 0x0 DUP1 REVERT JUMPDEST DUP2 ADD SWAP1 DUP1 DUP1 CALLDATALOAD PUSH20 0xFFFFFFFFFFFFFFFFFFFFFFFFFFFFFFFFFFFFFFFF AND SWAP1 PUSH1 0x20 ADD SWAP1 SWAP3 SWAP2 SWAP1 DUP1 CALLDATALOAD SWAP1 PUSH1 0x20 ADD SWAP1 SWAP3 SWAP2 SWAP1 DUP1 CALLDATALOAD SWAP1 PUSH1 0x20 ADD SWAP1 PUSH5 0x100000000 DUP2 GT ISZERO PUSH2 0x2B8 JUMPI PUSH1 0x0 DUP1 REVERT JUMPDEST DUP3 ADD DUP4 PUSH1 0x20 DUP3 ADD GT ISZERO PUSH2 0x2CA JUMPI PUSH1 0x0 DUP1 REVERT JUMPDEST DUP1 CALLDATALOAD SWAP1 PUSH1 0x20 ADD SWAP2 DUP5 PUSH1 0x1 DUP4 MUL DUP5 ADD GT PUSH5 0x100000000 DUP4 GT OR ISZERO PUSH2 0x2EC JUMPI PUSH1 0x0 DUP1 REVERT JUMPDEST SWAP2 SWAP1 DUP1 DUP1 PUSH1 0x1F ADD PUSH1 0x20 DUP1 SWAP2 DIV MUL PUSH1 0x20 ADD PUSH1 0x40 MLOAD SWAP1 DUP2 ADD PUSH1 0x40 MSTORE DUP1 SWAP4 SWAP3 SWAP2 SWAP1 DUP2 DUP2 MSTORE PUSH1 0x20 ADD DUP4 DUP4 DUP1 DUP3 DUP5 CALLDATACOPY PUSH1 0x0 DUP2 DUP5 ADD MSTORE PUSH1 0x1F NOT PUSH1 0x1F DUP3 ADD AND SWAP1 POP DUP1 DUP4 ADD SWAP3 POP POP POP POP POP POP POP SWAP2 SWAP3 SWAP2 SWAP3 SWAP1 POP POP POP PUSH2 0x88E JUMP JUMPDEST PUSH1 0x40 MLOAD DUP1 DUP1 PUSH1 0x20 ADD DUP3 DUP2 SUB DUP3 MSTORE DUP4 DUP2 DUP2 MLOAD DUP2 MSTORE PUSH1 0x20 ADD SWAP2 POP DUP1 MLOAD SWAP1 PUSH1 0x20 ADD SWAP1 DUP1 DUP4 DUP4 PUSH1 0x0 JUMPDEST DUP4 DUP2 LT ISZERO PUSH2 0x37E JUMPI DUP1 DUP3 ADD MLOAD DUP2 DUP5 ADD MSTORE PUSH1 0x20 DUP2 ADD SWAP1 POP PUSH2 0x363 JUMP JUMPDEST POP POP POP POP SWAP1 POP SWAP1 DUP2 ADD SWAP1 PUSH1 0x1F AND DUP1 ISZERO PUSH2 0x3AB JUMPI DUP1 DUP3 SUB DUP1 MLOAD PUSH1 0x1 DUP4 PUSH1 0x20 SUB PUSH2 0x100 EXP SUB NOT AND DUP2 MSTORE PUSH1 0x20 ADD SWAP2 POP JUMPDEST POP SWAP3 POP POP POP PUSH1 0x40 MLOAD DUP1 SWAP2 SUB SWAP1 RETURN JUMPDEST CALLVALUE DUP1 ISZERO PUSH2 0x3C5 JUMPI PUSH1 0x0 DUP1 REVERT JUMPDEST POP PUSH2 0x414 PUSH1 0x4 DUP1 CALLDATASIZE SUB PUSH1 0x40 DUP2 LT ISZERO PUSH2 0x3DC JUMPI PUSH1 0x0 DUP1 REVERT JUMPDEST DUP2 ADD SWAP1 DUP1 DUP1 CALLDATALOAD PUSH20 0xFFFFFFFFFFFFFFFFFFFFFFFFFFFFFFFFFFFFFFFF AND SWAP1 PUSH1 0x20 ADD SWAP1 SWAP3 SWAP2 SWAP1 DUP1 CALLDATALOAD ISZERO ISZERO SWAP1 PUSH1 0x20 ADD SWAP1 SWAP3 SWAP2 SWAP1 POP POP POP PUSH2 0xB37 JUMP JUMPDEST STOP JUMPDEST CALLVALUE DUP1 ISZERO PUSH2 0x422 JUMPI PUSH1 0x0 DUP1 REVERT JUMPDEST POP PUSH2 0x465 PUSH1 0x4 DUP1 CALLDATASIZE SUB PUSH1 0x20 DUP2 LT ISZERO PUSH2 0x439 JUMPI PUSH1 0x0 DUP1 REVERT JUMPDEST DUP2 ADD SWAP1 DUP1 DUP1 CALLDATALOAD PUSH20 0xFFFFFFFFFFFFFFFFFFFFFFFFFFFFFFFFFFFFFFFF AND SWAP1 PUSH1 0x20 ADD SWAP1 SWAP3 SWAP2 SWAP1 POP POP POP PUSH2 0xDA2 JUMP JUMPDEST PUSH1 0x40 MLOAD DUP1 DUP5 ISZERO ISZERO ISZERO ISZERO DUP2 MSTORE PUSH1 0x20 ADD DUP4 ISZERO ISZERO ISZERO ISZERO DUP2 MSTORE PUSH1 0x20 ADD DUP3 ISZERO ISZERO ISZERO ISZERO DUP2 MSTORE PUSH1 0x20 ADD SWAP4 POP POP POP POP PUSH1 0x40 MLOAD DUP1 SWAP2 SUB SWAP1 RETURN JUMPDEST PUSH1 0x0 DUP1 CALLER PUSH20 0xFFFFFFFFFFFFFFFFFFFFFFFFFFFFFFFFFFFFFFFF AND PUSH20 0xFFFFFFFFFFFFFFFFFFFFFFFFFFFFFFFFFFFFFFFF AND DUP2 MSTORE PUSH1 0x20 ADD SWAP1 DUP2 MSTORE PUSH1 0x20 ADD PUSH1 0x0 KECCAK256 PUSH1 0x0 ADD PUSH1 0x0 SWAP1 SLOAD SWAP1 PUSH2 0x100 EXP SWAP1 DIV PUSH1 0xFF AND PUSH2 0x4ED JUMPI PUSH1 0x0 DUP1 REVERT JUMPDEST PUSH1 0x0 DUP1 DUP3 PUSH20 0xFFFFFFFFFFFFFFFFFFFFFFFFFFFFFFFFFFFFFFFF AND PUSH20 0xFFFFFFFFFFFFFFFFFFFFFFFFFFFFFFFFFFFFFFFF AND DUP2 MSTORE PUSH1 0x20 ADD SWAP1 DUP2 MSTORE PUSH1 0x20 ADD PUSH1 0x0 KECCAK256 PUSH1 0x0 ADD PUSH1 0x1 SWAP1 SLOAD SWAP1 PUSH2 0x100 EXP SWAP1 DIV PUSH1 0xFF AND PUSH2 0x545 JUMPI PUSH1 0x0 DUP1 REVERT JUMPDEST PUSH1 0x0 DUP1 PUSH1 0x0 DUP4 PUSH20 0xFFFFFFFFFFFFFFFFFFFFFFFFFFFFFFFFFFFFFFFF AND PUSH20 0xFFFFFFFFFFFFFFFFFFFFFFFFFFFFFFFFFFFFFFFF AND DUP2 MSTORE PUSH1 0x20 ADD SWAP1 DUP2 MSTORE PUSH1 0x20 ADD PUSH1 0x0 KECCAK256 PUSH1 0x0 ADD PUSH1 0x0 PUSH2 0x100 EXP DUP2 SLOAD DUP2 PUSH1 0xFF MUL NOT AND SWAP1 DUP4 ISZERO ISZERO MUL OR SWAP1 SSTORE POP PUSH1 0x0 DUP1 PUSH1 0x0 DUP4 PUSH20 0xFFFFFFFFFFFFFFFFFFFFFFFFFFFFFFFFFFFFFFFF AND PUSH20 0xFFFFFFFFFFFFFFFFFFFFFFFFFFFFFFFFFFFFFFFF AND DUP2 MSTORE PUSH1 0x20 ADD SWAP1 DUP2 MSTORE PUSH1 0x20 ADD PUSH1 0x0 KECCAK256 PUSH1 0x0 ADD PUSH1 0x1 PUSH2 0x100 EXP DUP2 SLOAD DUP2 PUSH1 0xFF MUL NOT AND SWAP1 DUP4 ISZERO ISZERO MUL OR SWAP1 SSTORE POP PUSH32 0x15C62EC158A6C18AF42B447791266B9B0764BA2A6DF610890D4DA85C3D4185DB DUP2 PUSH1 0x40 MLOAD DUP1 DUP3 PUSH20 0xFFFFFFFFFFFFFFFFFFFFFFFFFFFFFFFFFFFFFFFF AND PUSH20 0xFFFFFFFFFFFFFFFFFFFFFFFFFFFFFFFFFFFFFFFF AND DUP2 MSTORE PUSH1 0x20 ADD SWAP2 POP POP PUSH1 0x40 MLOAD DUP1 SWAP2 SUB SWAP1 LOG1 POP JUMP JUMPDEST PUSH1 0x0 DUP1 PUSH1 0x41 DUP4 MLOAD EQ ISZERO PUSH2 0x819 JUMPI PUSH1 0x0 DUP1 PUSH1 0x0 PUSH1 0x20 DUP7 ADD MLOAD SWAP3 POP PUSH1 0x40 DUP7 ADD MLOAD SWAP2 POP PUSH1 0x60 DUP7 ADD MLOAD PUSH1 0x0 BYTE SWAP1 POP PUSH1 0x1B DUP2 PUSH1 0xFF AND LT ISZERO PUSH2 0x69C JUMPI PUSH1 0x1B DUP2 ADD SWAP1 POP JUMPDEST PUSH1 0x1B DUP2 PUSH1 0xFF AND EQ DUP1 PUSH2 0x6B1 JUMPI POP PUSH1 0x1C DUP2 PUSH1 0xFF AND EQ JUMPDEST ISZERO PUSH2 0x815 JUMPI PUSH1 0x1 PUSH2 0x6C2 DUP9 MLOAD PUSH2 0xDF3 JUMP JUMPDEST DUP9 PUSH1 0x40 MLOAD PUSH1 0x20 ADD DUP1 DUP1 PUSH32 0x19457468657265756D205369676E6564204D6573736167653A0A000000000000 DUP2 MSTORE POP PUSH1 0x1A ADD DUP4 DUP1 MLOAD SWAP1 PUSH1 0x20 ADD SWAP1 DUP1 DUP4 DUP4 JUMPDEST PUSH1 0x20 DUP4 LT PUSH2 0x721 JUMPI DUP1 MLOAD DUP3 MSTORE PUSH1 0x20 DUP3 ADD SWAP2 POP PUSH1 0x20 DUP2 ADD SWAP1 POP PUSH1 0x20 DUP4 SUB SWAP3 POP PUSH2 0x6FE JUMP JUMPDEST PUSH1 0x1 DUP4 PUSH1 0x20 SUB PUSH2 0x100 EXP SUB DUP1 NOT DUP3 MLOAD AND DUP2 DUP5 MLOAD AND DUP1 DUP3 OR DUP6 MSTORE POP POP POP POP POP POP SWAP1 POP ADD DUP3 DUP1 MLOAD SWAP1 PUSH1 0x20 ADD SWAP1 DUP1 DUP4 DUP4 JUMPDEST PUSH1 0x20 DUP4 LT PUSH2 0x772 JUMPI DUP1 MLOAD DUP3 MSTORE PUSH1 0x20 DUP3 ADD SWAP2 POP PUSH1 0x20 DUP2 ADD SWAP1 POP PUSH1 0x20 DUP4 SUB SWAP3 POP PUSH2 0x74F JUMP JUMPDEST PUSH1 0x1 DUP4 PUSH1 0x20 SUB PUSH2 0x100 EXP SUB DUP1 NOT DUP3 MLOAD AND DUP2 DUP5 MLOAD AND DUP1 DUP3 OR DUP6 MSTORE POP POP POP POP POP POP SWAP1 POP ADD SWAP3 POP POP POP PUSH1 0x40 MLOAD PUSH1 0x20 DUP2 DUP4 SUB SUB DUP2 MSTORE SWAP1 PUSH1 0x40 MSTORE DUP1 MLOAD SWAP1 PUSH1 0x20 ADD KECCAK256 DUP3 DUP6 DUP6 PUSH1 0x40 MLOAD PUSH1 0x0 DUP2 MSTORE PUSH1 0x20 ADD PUSH1 0x40 MSTORE PUSH1 0x40 MLOAD DUP1 DUP6 DUP2 MSTORE PUSH1 0x20 ADD DUP5 PUSH1 0xFF AND PUSH1 0xFF AND DUP2 MSTORE PUSH1 0x20 ADD DUP4 DUP2 MSTORE PUSH1 0x20 ADD DUP3 DUP2 MSTORE PUSH1 0x20 ADD SWAP5 POP POP POP POP POP PUSH1 0x20 PUSH1 0x40 MLOAD PUSH1 0x20 DUP2 SUB SWAP1 DUP1 DUP5 SUB SWAP1 DUP6 GAS STATICCALL ISZERO DUP1 ISZERO PUSH2 0x808 JUMPI RETURNDATASIZE PUSH1 0x0 DUP1 RETURNDATACOPY RETURNDATASIZE PUSH1 0x0 REVERT JUMPDEST POP POP POP PUSH1 0x20 PUSH1 0x40 MLOAD SUB MLOAD SWAP4 POP JUMPDEST POP POP POP JUMPDEST PUSH1 0x0 DUP1 DUP3 PUSH20 0xFFFFFFFFFFFFFFFFFFFFFFFFFFFFFFFFFFFFFFFF AND PUSH20 0xFFFFFFFFFFFFFFFFFFFFFFFFFFFFFFFFFFFFFFFF AND DUP2 MSTORE PUSH1 0x20 ADD SWAP1 DUP2 MSTORE PUSH1 0x20 ADD PUSH1 0x0 KECCAK256 PUSH1 0x0 ADD PUSH1 0x2 SWAP1 SLOAD SWAP1 PUSH2 0x100 EXP SWAP1 DIV PUSH1 0xFF AND ISZERO PUSH2 0x87C JUMPI PUSH4 0x20C13B0B PUSH1 0xE0 SHL SWAP2 POP PUSH2 0x887 JUMP JUMPDEST PUSH4 0xFFFFFFFF PUSH1 0xE0 SHL SWAP2 POP JUMPDEST POP SWAP3 SWAP2 POP POP JUMP JUMPDEST PUSH1 0x60 PUSH1 0x0 DUP1 CALLER PUSH20 0xFFFFFFFFFFFFFFFFFFFFFFFFFFFFFFFFFFFFFFFF AND PUSH20 0xFFFFFFFFFFFFFFFFFFFFFFFFFFFFFFFFFFFFFFFF AND DUP2 MSTORE PUSH1 0x20 ADD SWAP1 DUP2 MSTORE PUSH1 0x20 ADD PUSH1 0x0 KECCAK256 PUSH1 0x0 ADD PUSH1 0x0 SWAP1 SLOAD SWAP1 PUSH2 0x100 EXP SWAP1 DIV PUSH1 0xFF AND PUSH2 0x8E8 JUMPI PUSH1 0x0 DUP1 REVERT JUMPDEST PUSH1 0x0 PUSH20 0xFFFFFFFFFFFFFFFFFFFFFFFFFFFFFFFFFFFFFFFF AND DUP5 PUSH20 0xFFFFFFFFFFFFFFFFFFFFFFFFFFFFFFFFFFFFFFFF AND EQ ISZERO PUSH2 0x922 JUMPI PUSH1 0x0 DUP1 REVERT JUMPDEST PUSH1 0x0 DUP5 PUSH20 0xFFFFFFFFFFFFFFFFFFFFFFFFFFFFFFFFFFFFFFFF AND DUP5 DUP5 PUSH1 0x40 MLOAD DUP1 DUP3 DUP1 MLOAD SWAP1 PUSH1 0x20 ADD SWAP1 DUP1 DUP4 DUP4 JUMPDEST PUSH1 0x20 DUP4 LT PUSH2 0x970 JUMPI DUP1 MLOAD DUP3 MSTORE PUSH1 0x20 DUP3 ADD SWAP2 POP PUSH1 0x20 DUP2 ADD SWAP1 POP PUSH1 0x20 DUP4 SUB SWAP3 POP PUSH2 0x94D JUMP JUMPDEST PUSH1 0x1 DUP4 PUSH1 0x20 SUB PUSH2 0x100 EXP SUB DUP1 NOT DUP3 MLOAD AND DUP2 DUP5 MLOAD AND DUP1 DUP3 OR DUP6 MSTORE POP POP POP POP POP POP SWAP1 POP ADD SWAP2 POP POP PUSH1 0x0 PUSH1 0x40 MLOAD DUP1 DUP4 SUB DUP2 DUP6 DUP8 GAS CALL SWAP3 POP POP POP RETURNDATASIZE DUP1 PUSH1 0x0 DUP2 EQ PUSH2 0x9D2 JUMPI PUSH1 0x40 MLOAD SWAP2 POP PUSH1 0x1F NOT PUSH1 0x3F RETURNDATASIZE ADD AND DUP3 ADD PUSH1 0x40 MSTORE RETURNDATASIZE DUP3 MSTORE RETURNDATASIZE PUSH1 0x0 PUSH1 0x20 DUP5 ADD RETURNDATACOPY PUSH2 0x9D7 JUMP JUMPDEST PUSH1 0x60 SWAP2 POP JUMPDEST POP DUP1 SWAP4 POP DUP2 SWAP3 POP POP POP DUP1 PUSH2 0x9EA JUMPI PUSH1 0x0 DUP1 REVERT JUMPDEST PUSH32 0x12AE8711B8DC37E405D8E422569D1EE78D52D76BC8FE2A9EA81FFE17569E51A DUP6 DUP6 DUP6 DUP6 PUSH1 0x40 MLOAD DUP1 DUP6 PUSH20 0xFFFFFFFFFFFFFFFFFFFFFFFFFFFFFFFFFFFFFFFF AND PUSH20 0xFFFFFFFFFFFFFFFFFFFFFFFFFFFFFFFFFFFFFFFF AND DUP2 MSTORE PUSH1 0x20 ADD DUP5 DUP2 MSTORE PUSH1 0x20 ADD DUP1 PUSH1 0x20 ADD DUP1 PUSH1 0x20 ADD DUP4 DUP2 SUB DUP4 MSTORE DUP6 DUP2 DUP2 MLOAD DUP2 MSTORE PUSH1 0x20 ADD SWAP2 POP DUP1 MLOAD SWAP1 PUSH1 0x20 ADD SWAP1 DUP1 DUP4 DUP4 PUSH1 0x0 JUMPDEST DUP4 DUP2 LT ISZERO PUSH2 0xA8B JUMPI DUP1 DUP3 ADD MLOAD DUP2 DUP5 ADD MSTORE PUSH1 0x20 DUP2 ADD SWAP1 POP PUSH2 0xA70 JUMP JUMPDEST POP POP POP POP SWAP1 POP SWAP1 DUP2 ADD SWAP1 PUSH1 0x1F AND DUP1 ISZERO PUSH2 0xAB8 JUMPI DUP1 DUP3 SUB DUP1 MLOAD PUSH1 0x1 DUP4 PUSH1 0x20 SUB PUSH2 0x100 EXP SUB NOT AND DUP2 MSTORE PUSH1 0x20 ADD SWAP2 POP JUMPDEST POP DUP4 DUP2 SUB DUP3 MSTORE DUP5 DUP2 DUP2 MLOAD DUP2 MSTORE PUSH1 0x20 ADD SWAP2 POP DUP1 MLOAD SWAP1 PUSH1 0x20 ADD SWAP1 DUP1 DUP4 DUP4 PUSH1 0x0 JUMPDEST DUP4 DUP2 LT ISZERO PUSH2 0xAF1 JUMPI DUP1 DUP3 ADD MLOAD DUP2 DUP5 ADD MSTORE PUSH1 0x20 DUP2 ADD SWAP1 POP PUSH2 0xAD6 JUMP JUMPDEST POP POP POP POP SWAP1 POP SWAP1 DUP2 ADD SWAP1 PUSH1 0x1F AND DUP1 ISZERO PUSH2 0xB1E JUMPI DUP1 DUP3 SUB DUP1 MLOAD PUSH1 0x1 DUP4 PUSH1 0x20 SUB PUSH2 0x100 EXP SUB NOT AND DUP2 MSTORE PUSH1 0x20 ADD SWAP2 POP JUMPDEST POP SWAP7 POP POP POP POP POP POP POP PUSH1 0x40 MLOAD DUP1 SWAP2 SUB SWAP1 LOG1 POP SWAP4 SWAP3 POP POP POP JUMP JUMPDEST PUSH1 0x0 DUP1 CALLER PUSH20 0xFFFFFFFFFFFFFFFFFFFFFFFFFFFFFFFFFFFFFFFF AND PUSH20 0xFFFFFFFFFFFFFFFFFFFFFFFFFFFFFFFFFFFFFFFF AND DUP2 MSTORE PUSH1 0x20 ADD SWAP1 DUP2 MSTORE PUSH1 0x20 ADD PUSH1 0x0 KECCAK256 PUSH1 0x0 ADD PUSH1 0x0 SWAP1 SLOAD SWAP1 PUSH2 0x100 EXP SWAP1 DIV PUSH1 0xFF AND PUSH2 0xB8F JUMPI PUSH1 0x0 DUP1 REVERT JUMPDEST PUSH1 0x0 PUSH20 0xFFFFFFFFFFFFFFFFFFFFFFFFFFFFFFFFFFFFFFFF AND DUP3 PUSH20 0xFFFFFFFFFFFFFFFFFFFFFFFFFFFFFFFFFFFFFFFF AND EQ ISZERO PUSH2 0xBC9 JUMPI PUSH1 0x0 DUP1 REVERT JUMPDEST PUSH1 0x0 DUP1 DUP4 PUSH20 0xFFFFFFFFFFFFFFFFFFFFFFFFFFFFFFFFFFFFFFFF AND PUSH20 0xFFFFFFFFFFFFFFFFFFFFFFFFFFFFFFFFFFFFFFFF AND DUP2 MSTORE PUSH1 0x20 ADD SWAP1 DUP2 MSTORE PUSH1 0x20 ADD PUSH1 0x0 KECCAK256 PUSH1 0x0 ADD PUSH1 0x1 SWAP1 SLOAD SWAP1 PUSH2 0x100 EXP SWAP1 DIV PUSH1 0xFF AND ISZERO PUSH2 0xC22 JUMPI PUSH1 0x0 DUP1 REVERT JUMPDEST DUP1 PUSH1 0x0 DUP1 DUP5 PUSH20 0xFFFFFFFFFFFFFFFFFFFFFFFFFFFFFFFFFFFFFFFF AND PUSH20 0xFFFFFFFFFFFFFFFFFFFFFFFFFFFFFFFFFFFFFFFF AND DUP2 MSTORE PUSH1 0x20 ADD SWAP1 DUP2 MSTORE PUSH1 0x20 ADD PUSH1 0x0 KECCAK256 PUSH1 0x0 ADD PUSH1 0x0 PUSH2 0x100 EXP DUP2 SLOAD DUP2 PUSH1 0xFF MUL NOT AND SWAP1 DUP4 ISZERO ISZERO MUL OR SWAP1 SSTORE POP PUSH1 0x1 PUSH1 0x0 DUP1 DUP5 PUSH20 0xFFFFFFFFFFFFFFFFFFFFFFFFFFFFFFFFFFFFFFFF AND PUSH20 0xFFFFFFFFFFFFFFFFFFFFFFFFFFFFFFFFFFFFFFFF AND DUP2 MSTORE PUSH1 0x20 ADD SWAP1 DUP2 MSTORE PUSH1 0x20 ADD PUSH1 0x0 KECCAK256 PUSH1 0x0 ADD PUSH1 0x1 PUSH2 0x100 EXP DUP2 SLOAD DUP2 PUSH1 0xFF MUL NOT AND SWAP1 DUP4 ISZERO ISZERO MUL OR SWAP1 SSTORE POP PUSH1 0x1 PUSH1 0x0 DUP1 DUP5 PUSH20 0xFFFFFFFFFFFFFFFFFFFFFFFFFFFFFFFFFFFFFFFF AND PUSH20 0xFFFFFFFFFFFFFFFFFFFFFFFFFFFFFFFFFFFFFFFF AND DUP2 MSTORE PUSH1 0x20 ADD SWAP1 DUP2 MSTORE PUSH1 0x20 ADD PUSH1 0x0 KECCAK256 PUSH1 0x0 ADD PUSH1 0x2 PUSH2 0x100 EXP DUP2 SLOAD DUP2 PUSH1 0xFF MUL NOT AND SWAP1 DUP4 ISZERO ISZERO MUL OR SWAP1 SSTORE POP PUSH32 0x3525178F8D4A5C0DC1E61A0EDE8D6A7A9EA67A23EC515983BBB940BE4B419650 DUP3 DUP3 PUSH1 0x40 MLOAD DUP1 DUP4 PUSH20 0xFFFFFFFFFFFFFFFFFFFFFFFFFFFFFFFFFFFFFFFF AND PUSH20 0xFFFFFFFFFFFFFFFFFFFFFFFFFFFFFFFFFFFFFFFF AND DUP2 MSTORE PUSH1 0x20 ADD DUP3 ISZERO ISZERO ISZERO ISZERO DUP2 MSTORE PUSH1 0x20 ADD SWAP3 POP POP POP PUSH1 0x40 MLOAD DUP1 SWAP2 SUB SWAP1 LOG1 POP POP JUMP JUMPDEST PUSH1 0x0 PUSH1 0x20 MSTORE DUP1 PUSH1 0x0 MSTORE PUSH1 0x40 PUSH1 0x0 KECCAK256 PUSH1 0x0 SWAP2 POP SWAP1 POP DUP1 PUSH1 0x0 ADD PUSH1 0x0 SWAP1 SLOAD SWAP1 PUSH2 0x100 EXP SWAP1 DIV PUSH1 0xFF AND SWAP1 DUP1 PUSH1 0x0 ADD PUSH1 0x1 SWAP1 SLOAD SWAP1 PUSH2 0x100 EXP SWAP1 DIV PUSH1 0xFF AND SWAP1 DUP1 PUSH1 0x0 ADD PUSH1 0x2 SWAP1 SLOAD SWAP1 PUSH2 0x100 EXP SWAP1 DIV PUSH1 0xFF AND SWAP1 POP DUP4 JUMP JUMPDEST PUSH1 0x60 PUSH1 0x0 DUP3 EQ ISZERO PUSH2 0xE3B JUMPI PUSH1 0x40 MLOAD DUP1 PUSH1 0x40 ADD PUSH1 0x40 MSTORE DUP1 PUSH1 0x1 DUP2 MSTORE PUSH1 0x20 ADD PUSH32 0x3000000000000000000000000000000000000000000000000000000000000000 DUP2 MSTORE POP SWAP1 POP PUSH2 0xF21 JUMP JUMPDEST PUSH1 0x0 DUP3 SWAP1 POP PUSH1 0x0 DUP4 SWAP1 POP PUSH1 0x0 JUMPDEST PUSH1 0x0 DUP3 EQ PUSH2 0xE6A JUMPI DUP1 DUP1 PUSH1 0x1 ADD SWAP2 POP POP PUSH1 0xA DUP3 DUP2 PUSH2 0xE62 JUMPI INVALID JUMPDEST DIV SWAP2 POP PUSH2 0xE48 JUMP JUMPDEST PUSH1 0x60 DUP2 PUSH1 0x40 MLOAD SWAP1 DUP1 DUP3 MSTORE DUP1 PUSH1 0x1F ADD PUSH1 0x1F NOT AND PUSH1 0x20 ADD DUP3 ADD PUSH1 0x40 MSTORE DUP1 ISZERO PUSH2 0xE9F JUMPI DUP2 PUSH1 0x20 ADD PUSH1 0x1 DUP3 MUL DUP1 CODESIZE DUP4 CODECOPY DUP1 DUP3 ADD SWAP2 POP POP SWAP1 POP JUMPDEST POP SWAP1 POP PUSH1 0x0 PUSH1 0x1 DUP4 SUB SWAP1 POP JUMPDEST PUSH1 0x0 DUP6 EQ PUSH2 0xF18 JUMPI PUSH1 0xA DUP6 DUP2 PUSH2 0xEBD JUMPI INVALID JUMPDEST MOD PUSH1 0x30 ADD PUSH1 0xF8 SHL DUP3 DUP3 DUP1 PUSH1 0x1 SWAP1 SUB SWAP4 POP DUP2 MLOAD DUP2 LT PUSH2 0xED7 JUMPI INVALID JUMPDEST PUSH1 0x20 ADD ADD SWAP1 PUSH31 0xFFFFFFFFFFFFFFFFFFFFFFFFFFFFFFFFFFFFFFFFFFFFFFFFFFFFFFFFFFFFFF NOT AND SWAP1 DUP2 PUSH1 0x0 BYTE SWAP1 MSTORE8 POP PUSH1 0xA DUP6 DUP2 PUSH2 0xF10 JUMPI INVALID JUMPDEST DIV SWAP5 POP PUSH2 0xEAB JUMP JUMPDEST DUP2 SWAP6 POP POP POP POP POP POP JUMPDEST SWAP2 SWAP1 POP JUMP INVALID LOG2 PUSH6 0x627A7A723158 KECCAK256 0xAC LT ORIGIN LOG2 SWAP6 0xE7 EXTCODEHASH 0xBE RETURNDATASIZE 0xE4 PUSH20 0xC2FC9E964E4C0F010D359C7829A48D86F6BEF57 0xBA PUSH5 0x736F6C6343 STOP SDIV GT STOP ORIGIN "
	},
	"abi": [
		{
			"inputs": [],
			"payable": false,
			"stateMutability": "nonpayable",
			"type": "constructor"
		},
		{
			"anonymous": false,
			"inputs": [
				{
					"indexed": false,
					"internalType": "address",
					"name": "device",
					"type": "address"
				},
				{
					"indexed": false,
					"internalType": "bool",
					"name": "isOwner",
					"type": "bool"
				}
			],
			"name": "DeviceAdded",
			"type": "event"
		},
		{
			"anonymous": false,
			"inputs": [
				{
					"indexed": false,
					"internalType": "address",
					"name": "device",
					"type": "address"
				}
			],
			"name": "DeviceRemoved",
			"type": "event"
		},
		{
			"anonymous": false,
			"inputs": [
				{
					"indexed": false,
					"internalType": "address",
					"name": "recipient",
					"type": "address"
				},
				{
					"indexed": false,
					"internalType": "uint256",
					"name": "value",
					"type": "uint256"
				},
				{
					"indexed": false,
					"internalType": "bytes",
					"name": "data",
					"type": "bytes"
				},
				{
					"indexed": false,
					"internalType": "bytes",
					"name": "response",
					"type": "bytes"
				}
			],
			"name": "TransactionExecuted",
			"type": "event"
		},
		{
			"payable": true,
			"stateMutability": "payable",
			"type": "fallback"
		},
		{
			"constant": false,
			"inputs": [
				{
					"internalType": "address",
					"name": "_device",
					"type": "address"
				},
				{
					"internalType": "bool",
					"name": "_isOwner",
					"type": "bool"
				}
			],
			"name": "addDevice",
			"outputs": [],
			"payable": false,
			"stateMutability": "nonpayable",
			"type": "function"
		},
		{
			"constant": true,
			"inputs": [
				{
					"internalType": "address",
					"name": "",
					"type": "address"
				}
			],
			"name": "devices",
			"outputs": [
				{
					"internalType": "bool",
					"name": "isOwner",
					"type": "bool"
				},
				{
					"internalType": "bool",
					"name": "exists",
					"type": "bool"
				},
				{
					"internalType": "bool",
					"name": "existed",
					"type": "bool"
				}
			],
			"payable": false,
			"stateMutability": "view",
			"type": "function"
		},
		{
			"constant": false,
			"inputs": [
				{
					"internalType": "address payable",
					"name": "_recipient",
					"type": "address"
				},
				{
					"internalType": "uint256",
					"name": "_value",
					"type": "uint256"
				},
				{
					"internalType": "bytes",
					"name": "_data",
					"type": "bytes"
				}
			],
			"name": "executeTransaction",
			"outputs": [
				{
					"internalType": "bytes",
					"name": "_response",
					"type": "bytes"
				}
			],
			"payable": false,
			"stateMutability": "nonpayable",
			"type": "function"
		},
		{
			"constant": true,
			"inputs": [
				{
					"internalType": "bytes",
					"name": "_data",
					"type": "bytes"
				},
				{
					"internalType": "bytes",
					"name": "_signature",
					"type": "bytes"
				}
			],
			"name": "isValidSignature",
			"outputs": [
				{
					"internalType": "bytes4",
					"name": "magicValue",
					"type": "bytes4"
				}
			],
			"payable": false,
			"stateMutability": "view",
			"type": "function"
		},
		{
			"constant": false,
			"inputs": [
				{
					"internalType": "address",
					"name": "_device",
					"type": "address"
				}
			],
			"name": "removeDevice",
			"outputs": [],
			"payable": false,
			"stateMutability": "nonpayable",
			"type": "function"
		}
	],
	"storageLayout": {
		"storage": [
			{
				"astId": 35,
				"contract": "contracts/account/Account.sol:Account",
				"label": "devices",
				"offset": 0,
				"slot": "0",
				"type": "t_mapping(t_address,t_struct(Device)31_storage)"
			}
		],
		"types": {
			"t_address": {
				"encoding": "inplace",
				"label": "address",
				"numberOfBytes": "20"
			},
			"t_bool": {
				"encoding": "inplace",
				"label": "bool",
				"numberOfBytes": "1"
			},
			"t_mapping(t_address,t_struct(Device)31_storage)": {
				"encoding": "mapping",
				"key": "t_address",
				"label": "mapping(address => struct AbstractAccount.Device)",
				"numberOfBytes": "32",
				"value": "t_struct(Device)31_storage"
			},
			"t_struct(Device)31_storage": {
				"encoding": "inplace",
				"label": "struct AbstractAccount.Device",
				"members": [
					{
						"astId": 26,
						"contract": "contracts/account/Account.sol:Account",
						"label": "isOwner",
						"offset": 0,
						"slot": "0",
						"type": "t_bool"
					},
					{
						"astId": 28,
						"contract": "contracts/account/Account.sol:Account",
						"label": "exists",
						"offset": 1,
						"slot": "0",
						"type": "t_bool"
					},
					{
						"astId": 30,
						"contract": "contracts/account/Account.sol:Account",
						"label": "existed",
						"offset": 2,
						"slot": "0",
						"type": "t_bool"
					}
				],
				"numberOfBytes": "32"
			}
		}
	},
	"web3Deploy": "var accountContract = new web3.eth.Contract([{\"inputs\":[],\"payable\":false,\"stateMutability\":\"nonpayable\",\"type\":\"constructor\"},{\"anonymous\":false,\"inputs\":[{\"indexed\":false,\"internalType\":\"address\",\"name\":\"device\",\"type\":\"address\"},{\"indexed\":false,\"internalType\":\"bool\",\"name\":\"isOwner\",\"type\":\"bool\"}],\"name\":\"DeviceAdded\",\"type\":\"event\"},{\"anonymous\":false,\"inputs\":[{\"indexed\":false,\"internalType\":\"address\",\"name\":\"device\",\"type\":\"address\"}],\"name\":\"DeviceRemoved\",\"type\":\"event\"},{\"anonymous\":false,\"inputs\":[{\"indexed\":false,\"internalType\":\"address\",\"name\":\"recipient\",\"type\":\"address\"},{\"indexed\":false,\"internalType\":\"uint256\",\"name\":\"value\",\"type\":\"uint256\"},{\"indexed\":false,\"internalType\":\"bytes\",\"name\":\"data\",\"type\":\"bytes\"},{\"indexed\":false,\"internalType\":\"bytes\",\"name\":\"response\",\"type\":\"bytes\"}],\"name\":\"TransactionExecuted\",\"type\":\"event\"},{\"payable\":true,\"stateMutability\":\"payable\",\"type\":\"fallback\"},{\"constant\":false,\"inputs\":[{\"internalType\":\"address\",\"name\":\"_device\",\"type\":\"address\"},{\"internalType\":\"bool\",\"name\":\"_isOwner\",\"type\":\"bool\"}],\"name\":\"addDevice\",\"outputs\":[],\"payable\":false,\"stateMutability\":\"nonpayable\",\"type\":\"function\"},{\"constant\":true,\"inputs\":[{\"internalType\":\"address\",\"name\":\"\",\"type\":\"address\"}],\"name\":\"devices\",\"outputs\":[{\"internalType\":\"bool\",\"name\":\"isOwner\",\"type\":\"bool\"},{\"internalType\":\"bool\",\"name\":\"exists\",\"type\":\"bool\"},{\"internalType\":\"bool\",\"name\":\"existed\",\"type\":\"bool\"}],\"payable\":false,\"stateMutability\":\"view\",\"type\":\"function\"},{\"constant\":false,\"inputs\":[{\"internalType\":\"address payable\",\"name\":\"_recipient\",\"type\":\"address\"},{\"internalType\":\"uint256\",\"name\":\"_value\",\"type\":\"uint256\"},{\"internalType\":\"bytes\",\"name\":\"_data\",\"type\":\"bytes\"}],\"name\":\"executeTransaction\",\"outputs\":[{\"internalType\":\"bytes\",\"name\":\"_response\",\"type\":\"bytes\"}],\"payable\":false,\"stateMutability\":\"nonpayable\",\"type\":\"function\"},{\"constant\":true,\"inputs\":[{\"internalType\":\"bytes\",\"name\":\"_data\",\"type\":\"bytes\"},{\"internalType\":\"bytes\",\"name\":\"_signature\",\"type\":\"bytes\"}],\"name\":\"isValidSignature\",\"outputs\":[{\"internalType\":\"bytes4\",\"name\":\"magicValue\",\"type\":\"bytes4\"}],\"payable\":false,\"stateMutability\":\"view\",\"type\":\"function\"},{\"constant\":false,\"inputs\":[{\"internalType\":\"address\",\"name\":\"_device\",\"type\":\"address\"}],\"name\":\"removeDevice\",\"outputs\":[],\"payable\":false,\"stateMutability\":\"nonpayable\",\"type\":\"function\"}]);\nvar account = accountContract.deploy({\n     data: '0x608060405234801561001057600080fd5b5060016000803373ffffffffffffffffffffffffffffffffffffffff1673ffffffffffffffffffffffffffffffffffffffff16815260200190815260200160002060000160006101000a81548160ff02191690831515021790555060016000803373ffffffffffffffffffffffffffffffffffffffff1673ffffffffffffffffffffffffffffffffffffffff16815260200190815260200160002060000160016101000a81548160ff02191690831515021790555060016000803373ffffffffffffffffffffffffffffffffffffffff1673ffffffffffffffffffffffffffffffffffffffff16815260200190815260200160002060000160026101000a81548160ff021916908315150217905550610f5b8061012e6000396000f3fe60806040526004361061004a5760003560e01c80631f7b63241461004c57806320c13b0b1461009d5780633f579f421461024e578063811d54dc146103b9578063e7b4cac614610416575b005b34801561005857600080fd5b5061009b6004803603602081101561006f57600080fd5b81019080803573ffffffffffffffffffffffffffffffffffffffff169060200190929190505050610495565b005b3480156100a957600080fd5b506101fa600480360360408110156100c057600080fd5b81019080803590602001906401000000008111156100dd57600080fd5b8201836020820111156100ef57600080fd5b8035906020019184600183028401116401000000008311171561011157600080fd5b91908080601f016020809104026020016040519081016040528093929190818152602001838380828437600081840152601f19601f8201169050808301925050505050505091929192908035906020019064010000000081111561017457600080fd5b82018360208201111561018657600080fd5b803590602001918460018302840111640100000000831117156101a857600080fd5b91908080601f016020809104026020016040519081016040528093929190818152602001838380828437600081840152601f19601f82011690508083019250505050505050919291929050505061065f565b60405180827bffffffffffffffffffffffffffffffffffffffffffffffffffffffff19167bffffffffffffffffffffffffffffffffffffffffffffffffffffffff1916815260200191505060405180910390f35b34801561025a57600080fd5b5061033e6004803603606081101561027157600080fd5b81019080803573ffffffffffffffffffffffffffffffffffffffff16906020019092919080359060200190929190803590602001906401000000008111156102b857600080fd5b8201836020820111156102ca57600080fd5b803590602001918460018302840111640100000000831117156102ec57600080fd5b91908080601f016020809104026020016040519081016040528093929190818152602001838380828437600081840152601f19601f82011690508083019250505050505050919291929050505061088e565b6040518080602001828103825283818151815260200191508051906020019080838360005b8381101561037e578082015181840152602081019050610363565b50505050905090810190601f1680156103ab5780820380516001836020036101000a031916815260200191505b509250505060405180910390f35b3480156103c557600080fd5b50610414600480360360408110156103dc57600080fd5b81019080803573ffffffffffffffffffffffffffffffffffffffff169060200190929190803515159060200190929190505050610b37565b005b34801561042257600080fd5b506104656004803603602081101561043957600080fd5b81019080803573ffffffffffffffffffffffffffffffffffffffff169060200190929190505050610da2565b60405180841515151581526020018315151515815260200182151515158152602001935050505060405180910390f35b6000803373ffffffffffffffffffffffffffffffffffffffff1673ffffffffffffffffffffffffffffffffffffffff16815260200190815260200160002060000160009054906101000a900460ff166104ed57600080fd5b6000808273ffffffffffffffffffffffffffffffffffffffff1673ffffffffffffffffffffffffffffffffffffffff16815260200190815260200160002060000160019054906101000a900460ff1661054557600080fd5b60008060008373ffffffffffffffffffffffffffffffffffffffff1673ffffffffffffffffffffffffffffffffffffffff16815260200190815260200160002060000160006101000a81548160ff02191690831515021790555060008060008373ffffffffffffffffffffffffffffffffffffffff1673ffffffffffffffffffffffffffffffffffffffff16815260200190815260200160002060000160016101000a81548160ff0219169083151502179055507f15c62ec158a6c18af42b447791266b9b0764ba2a6df610890d4da85c3d4185db81604051808273ffffffffffffffffffffffffffffffffffffffff1673ffffffffffffffffffffffffffffffffffffffff16815260200191505060405180910390a150565b6000806041835114156108195760008060006020860151925060408601519150606086015160001a9050601b8160ff16101561069c57601b810190505b601b8160ff1614806106b15750601c8160ff16145b156108155760016106c28851610df3565b8860405160200180807f19457468657265756d205369676e6564204d6573736167653a0a000000000000815250601a0183805190602001908083835b6020831061072157805182526020820191506020810190506020830392506106fe565b6001836020036101000a03801982511681845116808217855250505050505090500182805190602001908083835b60208310610772578051825260208201915060208101905060208303925061074f565b6001836020036101000a038019825116818451168082178552505050505050905001925050506040516020818303038152906040528051906020012082858560405160008152602001604052604051808581526020018460ff1660ff1681526020018381526020018281526020019450505050506020604051602081039080840390855afa158015610808573d6000803e3d6000fd5b5050506020604051035193505b5050505b6000808273ffffffffffffffffffffffffffffffffffffffff1673ffffffffffffffffffffffffffffffffffffffff16815260200190815260200160002060000160029054906101000a900460ff161561087c576320c13b0b60e01b9150610887565b63ffffffff60e01b91505b5092915050565b60606000803373ffffffffffffffffffffffffffffffffffffffff1673ffffffffffffffffffffffffffffffffffffffff16815260200190815260200160002060000160009054906101000a900460ff166108e857600080fd5b600073ffffffffffffffffffffffffffffffffffffffff168473ffffffffffffffffffffffffffffffffffffffff16141561092257600080fd5b60008473ffffffffffffffffffffffffffffffffffffffff1684846040518082805190602001908083835b60208310610970578051825260208201915060208101905060208303925061094d565b6001836020036101000a03801982511681845116808217855250505050505090500191505060006040518083038185875af1925050503d80600081146109d2576040519150601f19603f3d011682016040523d82523d6000602084013e6109d7565b606091505b508093508192505050806109ea57600080fd5b7f012ae8711b8dc37e405d8e422569d1ee78d52d76bc8fe2a9ea81ffe17569e51a85858585604051808573ffffffffffffffffffffffffffffffffffffffff1673ffffffffffffffffffffffffffffffffffffffff1681526020018481526020018060200180602001838103835285818151815260200191508051906020019080838360005b83811015610a8b578082015181840152602081019050610a70565b50505050905090810190601f168015610ab85780820380516001836020036101000a031916815260200191505b50838103825284818151815260200191508051906020019080838360005b83811015610af1578082015181840152602081019050610ad6565b50505050905090810190601f168015610b1e5780820380516001836020036101000a031916815260200191505b50965050505050505060405180910390a1509392505050565b6000803373ffffffffffffffffffffffffffffffffffffffff1673ffffffffffffffffffffffffffffffffffffffff16815260200190815260200160002060000160009054906101000a900460ff16610b8f57600080fd5b600073ffffffffffffffffffffffffffffffffffffffff168273ffffffffffffffffffffffffffffffffffffffff161415610bc957600080fd5b6000808373ffffffffffffffffffffffffffffffffffffffff1673ffffffffffffffffffffffffffffffffffffffff16815260200190815260200160002060000160019054906101000a900460ff1615610c2257600080fd5b806000808473ffffffffffffffffffffffffffffffffffffffff1673ffffffffffffffffffffffffffffffffffffffff16815260200190815260200160002060000160006101000a81548160ff02191690831515021790555060016000808473ffffffffffffffffffffffffffffffffffffffff1673ffffffffffffffffffffffffffffffffffffffff16815260200190815260200160002060000160016101000a81548160ff02191690831515021790555060016000808473ffffffffffffffffffffffffffffffffffffffff1673ffffffffffffffffffffffffffffffffffffffff16815260200190815260200160002060000160026101000a81548160ff0219169083151502179055507f3525178f8d4a5c0dc1e61a0ede8d6a7a9ea67a23ec515983bbb940be4b4196508282604051808373ffffffffffffffffffffffffffffffffffffffff1673ffffffffffffffffffffffffffffffffffffffff168152602001821515151581526020019250505060405180910390a15050565b60006020528060005260406000206000915090508060000160009054906101000a900460ff16908060000160019054906101000a900460ff16908060000160029054906101000a900460ff16905083565b60606000821415610e3b576040518060400160405280600181526020017f30000000000000000000000000000000000000000000000000000000000000008152509050610f21565b6000829050600083905060005b60008214610e6a578080600101915050600a8281610e6257fe5b049150610e48565b6060816040519080825280601f01601f191660200182016040528015610e9f5781602001600182028038833980820191505090505b50905060006001830390505b60008514610f1857600a8581610ebd57fe5b0660300160f81b82828060019003935081518110610ed757fe5b60200101907effffffffffffffffffffffffffffffffffffffffffffffffffffffffffffff1916908160001a905350600a8581610f1057fe5b049450610eab565b81955050505050505b91905056fea265627a7a72315820ac1032a295e73fbe3de4730c2fc9e964e4c0f010d359c7829a48d86f6bef57ba64736f6c63430005110032', \n     arguments: [\n     ]\n}).send({\n     from: web3.eth.accounts[0], \n     gas: '4700000'\n   }, function (e, contract){\n    console.log(e, contract);\n    if (typeof contract.address !== 'undefined') {\n         console.log('Contract mined! address: ' + contract.address + ' transactionHash: ' + contract.transactionHash);\n    }\n })",
	"functionHashes": {
		"811d54dc": "addDevice(address,bool)",
		"e7b4cac6": "devices(address)",
		"3f579f42": "executeTransaction(address,uint256,bytes)",
		"20c13b0b": "isValidSignature(bytes,bytes)",
		"1f7b6324": "removeDevice(address)"
	},
	"gasEstimates": {
		"Creation": {
			"codeDepositCost": "786200",
			"executionCost": "63804",
			"totalCost": "850004"
		},
		"External": {
			"": "162",
			"addDevice(address,bool)": "66660",
			"devices(address)": "3157",
			"executeTransaction(address,uint256,bytes)": "infinite",
			"isValidSignature(bytes,bytes)": "infinite",
			"removeDevice(address)": "45214"
		},
		"Internal": {
			"uint2str(uint256)": "infinite"
		}
	},
	"devdoc": {
		"methods": {},
		"title": "Account"
	},
	"userdoc": {
		"methods": {}
	},
	"Runtime Bytecode": {
		"linkReferences": {},
		"object": "60806040526004361061004a5760003560e01c80631f7b63241461004c57806320c13b0b1461009d5780633f579f421461024e578063811d54dc146103b9578063e7b4cac614610416575b005b34801561005857600080fd5b5061009b6004803603602081101561006f57600080fd5b81019080803573ffffffffffffffffffffffffffffffffffffffff169060200190929190505050610495565b005b3480156100a957600080fd5b506101fa600480360360408110156100c057600080fd5b81019080803590602001906401000000008111156100dd57600080fd5b8201836020820111156100ef57600080fd5b8035906020019184600183028401116401000000008311171561011157600080fd5b91908080601f016020809104026020016040519081016040528093929190818152602001838380828437600081840152601f19601f8201169050808301925050505050505091929192908035906020019064010000000081111561017457600080fd5b82018360208201111561018657600080fd5b803590602001918460018302840111640100000000831117156101a857600080fd5b91908080601f016020809104026020016040519081016040528093929190818152602001838380828437600081840152601f19601f82011690508083019250505050505050919291929050505061065f565b60405180827bffffffffffffffffffffffffffffffffffffffffffffffffffffffff19167bffffffffffffffffffffffffffffffffffffffffffffffffffffffff1916815260200191505060405180910390f35b34801561025a57600080fd5b5061033e6004803603606081101561027157600080fd5b81019080803573ffffffffffffffffffffffffffffffffffffffff16906020019092919080359060200190929190803590602001906401000000008111156102b857600080fd5b8201836020820111156102ca57600080fd5b803590602001918460018302840111640100000000831117156102ec57600080fd5b91908080601f016020809104026020016040519081016040528093929190818152602001838380828437600081840152601f19601f82011690508083019250505050505050919291929050505061088e565b6040518080602001828103825283818151815260200191508051906020019080838360005b8381101561037e578082015181840152602081019050610363565b50505050905090810190601f1680156103ab5780820380516001836020036101000a031916815260200191505b509250505060405180910390f35b3480156103c557600080fd5b50610414600480360360408110156103dc57600080fd5b81019080803573ffffffffffffffffffffffffffffffffffffffff169060200190929190803515159060200190929190505050610b37565b005b34801561042257600080fd5b506104656004803603602081101561043957600080fd5b81019080803573ffffffffffffffffffffffffffffffffffffffff169060200190929190505050610da2565b60405180841515151581526020018315151515815260200182151515158152602001935050505060405180910390f35b6000803373ffffffffffffffffffffffffffffffffffffffff1673ffffffffffffffffffffffffffffffffffffffff16815260200190815260200160002060000160009054906101000a900460ff166104ed57600080fd5b6000808273ffffffffffffffffffffffffffffffffffffffff1673ffffffffffffffffffffffffffffffffffffffff16815260200190815260200160002060000160019054906101000a900460ff1661054557600080fd5b60008060008373ffffffffffffffffffffffffffffffffffffffff1673ffffffffffffffffffffffffffffffffffffffff16815260200190815260200160002060000160006101000a81548160ff02191690831515021790555060008060008373ffffffffffffffffffffffffffffffffffffffff1673ffffffffffffffffffffffffffffffffffffffff16815260200190815260200160002060000160016101000a81548160ff0219169083151502179055507f15c62ec158a6c18af42b447791266b9b0764ba2a6df610890d4da85c3d4185db81604051808273ffffffffffffffffffffffffffffffffffffffff1673ffffffffffffffffffffffffffffffffffffffff16815260200191505060405180910390a150565b6000806041835114156108195760008060006020860151925060408601519150606086015160001a9050601b8160ff16101561069c57601b810190505b601b8160ff1614806106b15750601c8160ff16145b156108155760016106c28851610df3565b8860405160200180807f19457468657265756d205369676e6564204d6573736167653a0a000000000000815250601a0183805190602001908083835b6020831061072157805182526020820191506020810190506020830392506106fe565b6001836020036101000a03801982511681845116808217855250505050505090500182805190602001908083835b60208310610772578051825260208201915060208101905060208303925061074f565b6001836020036101000a038019825116818451168082178552505050505050905001925050506040516020818303038152906040528051906020012082858560405160008152602001604052604051808581526020018460ff1660ff1681526020018381526020018281526020019450505050506020604051602081039080840390855afa158015610808573d6000803e3d6000fd5b5050506020604051035193505b5050505b6000808273ffffffffffffffffffffffffffffffffffffffff1673ffffffffffffffffffffffffffffffffffffffff16815260200190815260200160002060000160029054906101000a900460ff161561087c576320c13b0b60e01b9150610887565b63ffffffff60e01b91505b5092915050565b60606000803373ffffffffffffffffffffffffffffffffffffffff1673ffffffffffffffffffffffffffffffffffffffff16815260200190815260200160002060000160009054906101000a900460ff166108e857600080fd5b600073ffffffffffffffffffffffffffffffffffffffff168473ffffffffffffffffffffffffffffffffffffffff16141561092257600080fd5b60008473ffffffffffffffffffffffffffffffffffffffff1684846040518082805190602001908083835b60208310610970578051825260208201915060208101905060208303925061094d565b6001836020036101000a03801982511681845116808217855250505050505090500191505060006040518083038185875af1925050503d80600081146109d2576040519150601f19603f3d011682016040523d82523d6000602084013e6109d7565b606091505b508093508192505050806109ea57600080fd5b7f012ae8711b8dc37e405d8e422569d1ee78d52d76bc8fe2a9ea81ffe17569e51a85858585604051808573ffffffffffffffffffffffffffffffffffffffff1673ffffffffffffffffffffffffffffffffffffffff1681526020018481526020018060200180602001838103835285818151815260200191508051906020019080838360005b83811015610a8b578082015181840152602081019050610a70565b50505050905090810190601f168015610ab85780820380516001836020036101000a031916815260200191505b50838103825284818151815260200191508051906020019080838360005b83811015610af1578082015181840152602081019050610ad6565b50505050905090810190601f168015610b1e5780820380516001836020036101000a031916815260200191505b50965050505050505060405180910390a1509392505050565b6000803373ffffffffffffffffffffffffffffffffffffffff1673ffffffffffffffffffffffffffffffffffffffff16815260200190815260200160002060000160009054906101000a900460ff16610b8f57600080fd5b600073ffffffffffffffffffffffffffffffffffffffff168273ffffffffffffffffffffffffffffffffffffffff161415610bc957600080fd5b6000808373ffffffffffffffffffffffffffffffffffffffff1673ffffffffffffffffffffffffffffffffffffffff16815260200190815260200160002060000160019054906101000a900460ff1615610c2257600080fd5b806000808473ffffffffffffffffffffffffffffffffffffffff1673ffffffffffffffffffffffffffffffffffffffff16815260200190815260200160002060000160006101000a81548160ff02191690831515021790555060016000808473ffffffffffffffffffffffffffffffffffffffff1673ffffffffffffffffffffffffffffffffffffffff16815260200190815260200160002060000160016101000a81548160ff02191690831515021790555060016000808473ffffffffffffffffffffffffffffffffffffffff1673ffffffffffffffffffffffffffffffffffffffff16815260200190815260200160002060000160026101000a81548160ff0219169083151502179055507f3525178f8d4a5c0dc1e61a0ede8d6a7a9ea67a23ec515983bbb940be4b4196508282604051808373ffffffffffffffffffffffffffffffffffffffff1673ffffffffffffffffffffffffffffffffffffffff168152602001821515151581526020019250505060405180910390a15050565b60006020528060005260406000206000915090508060000160009054906101000a900460ff16908060000160019054906101000a900460ff16908060000160029054906101000a900460ff16905083565b60606000821415610e3b576040518060400160405280600181526020017f30000000000000000000000000000000000000000000000000000000000000008152509050610f21565b6000829050600083905060005b60008214610e6a578080600101915050600a8281610e6257fe5b049150610e48565b6060816040519080825280601f01601f191660200182016040528015610e9f5781602001600182028038833980820191505090505b50905060006001830390505b60008514610f1857600a8581610ebd57fe5b0660300160f81b82828060019003935081518110610ed757fe5b60200101907effffffffffffffffffffffffffffffffffffffffffffffffffffffffffffff1916908160001a905350600a8581610f1057fe5b049450610eab565b81955050505050505b91905056fea265627a7a72315820ac1032a295e73fbe3de4730c2fc9e964e4c0f010d359c7829a48d86f6bef57ba64736f6c63430005110032",
		"opcodes": "PUSH1 0x80 PUSH1 0x40 MSTORE PUSH1 0x4 CALLDATASIZE LT PUSH2 0x4A JUMPI PUSH1 0x0 CALLDATALOAD PUSH1 0xE0 SHR DUP1 PUSH4 0x1F7B6324 EQ PUSH2 0x4C JUMPI DUP1 PUSH4 0x20C13B0B EQ PUSH2 0x9D JUMPI DUP1 PUSH4 0x3F579F42 EQ PUSH2 0x24E JUMPI DUP1 PUSH4 0x811D54DC EQ PUSH2 0x3B9 JUMPI DUP1 PUSH4 0xE7B4CAC6 EQ PUSH2 0x416 JUMPI JUMPDEST STOP JUMPDEST CALLVALUE DUP1 ISZERO PUSH2 0x58 JUMPI PUSH1 0x0 DUP1 REVERT JUMPDEST POP PUSH2 0x9B PUSH1 0x4 DUP1 CALLDATASIZE SUB PUSH1 0x20 DUP2 LT ISZERO PUSH2 0x6F JUMPI PUSH1 0x0 DUP1 REVERT JUMPDEST DUP2 ADD SWAP1 DUP1 DUP1 CALLDATALOAD PUSH20 0xFFFFFFFFFFFFFFFFFFFFFFFFFFFFFFFFFFFFFFFF AND SWAP1 PUSH1 0x20 ADD SWAP1 SWAP3 SWAP2 SWAP1 POP POP POP PUSH2 0x495 JUMP JUMPDEST STOP JUMPDEST CALLVALUE DUP1 ISZERO PUSH2 0xA9 JUMPI PUSH1 0x0 DUP1 REVERT JUMPDEST POP PUSH2 0x1FA PUSH1 0x4 DUP1 CALLDATASIZE SUB PUSH1 0x40 DUP2 LT ISZERO PUSH2 0xC0 JUMPI PUSH1 0x0 DUP1 REVERT JUMPDEST DUP2 ADD SWAP1 DUP1 DUP1 CALLDATALOAD SWAP1 PUSH1 0x20 ADD SWAP1 PUSH5 0x100000000 DUP2 GT ISZERO PUSH2 0xDD JUMPI PUSH1 0x0 DUP1 REVERT JUMPDEST DUP3 ADD DUP4 PUSH1 0x20 DUP3 ADD GT ISZERO PUSH2 0xEF JUMPI PUSH1 0x0 DUP1 REVERT JUMPDEST DUP1 CALLDATALOAD SWAP1 PUSH1 0x20 ADD SWAP2 DUP5 PUSH1 0x1 DUP4 MUL DUP5 ADD GT PUSH5 0x100000000 DUP4 GT OR ISZERO PUSH2 0x111 JUMPI PUSH1 0x0 DUP1 REVERT JUMPDEST SWAP2 SWAP1 DUP1 DUP1 PUSH1 0x1F ADD PUSH1 0x20 DUP1 SWAP2 DIV MUL PUSH1 0x20 ADD PUSH1 0x40 MLOAD SWAP1 DUP2 ADD PUSH1 0x40 MSTORE DUP1 SWAP4 SWAP3 SWAP2 SWAP1 DUP2 DUP2 MSTORE PUSH1 0x20 ADD DUP4 DUP4 DUP1 DUP3 DUP5 CALLDATACOPY PUSH1 0x0 DUP2 DUP5 ADD MSTORE PUSH1 0x1F NOT PUSH1 0x1F DUP3 ADD AND SWAP1 POP DUP1 DUP4 ADD SWAP3 POP POP POP POP POP POP POP SWAP2 SWAP3 SWAP2 SWAP3 SWAP1 DUP1 CALLDATALOAD SWAP1 PUSH1 0x20 ADD SWAP1 PUSH5 0x100000000 DUP2 GT ISZERO PUSH2 0x174 JUMPI PUSH1 0x0 DUP1 REVERT JUMPDEST DUP3 ADD DUP4 PUSH1 0x20 DUP3 ADD GT ISZERO PUSH2 0x186 JUMPI PUSH1 0x0 DUP1 REVERT JUMPDEST DUP1 CALLDATALOAD SWAP1 PUSH1 0x20 ADD SWAP2 DUP5 PUSH1 0x1 DUP4 MUL DUP5 ADD GT PUSH5 0x100000000 DUP4 GT OR ISZERO PUSH2 0x1A8 JUMPI PUSH1 0x0 DUP1 REVERT JUMPDEST SWAP2 SWAP1 DUP1 DUP1 PUSH1 0x1F ADD PUSH1 0x20 DUP1 SWAP2 DIV MUL PUSH1 0x20 ADD PUSH1 0x40 MLOAD SWAP1 DUP2 ADD PUSH1 0x40 MSTORE DUP1 SWAP4 SWAP3 SWAP2 SWAP1 DUP2 DUP2 MSTORE PUSH1 0x20 ADD DUP4 DUP4 DUP1 DUP3 DUP5 CALLDATACOPY PUSH1 0x0 DUP2 DUP5 ADD MSTORE PUSH1 0x1F NOT PUSH1 0x1F DUP3 ADD AND SWAP1 POP DUP1 DUP4 ADD SWAP3 POP POP POP POP POP POP POP SWAP2 SWAP3 SWAP2 SWAP3 SWAP1 POP POP POP PUSH2 0x65F JUMP JUMPDEST PUSH1 0x40 MLOAD DUP1 DUP3 PUSH28 0xFFFFFFFFFFFFFFFFFFFFFFFFFFFFFFFFFFFFFFFFFFFFFFFFFFFFFFFF NOT AND PUSH28 0xFFFFFFFFFFFFFFFFFFFFFFFFFFFFFFFFFFFFFFFFFFFFFFFFFFFFFFFF NOT AND DUP2 MSTORE PUSH1 0x20 ADD SWAP2 POP POP PUSH1 0x40 MLOAD DUP1 SWAP2 SUB SWAP1 RETURN JUMPDEST CALLVALUE DUP1 ISZERO PUSH2 0x25A JUMPI PUSH1 0x0 DUP1 REVERT JUMPDEST POP PUSH2 0x33E PUSH1 0x4 DUP1 CALLDATASIZE SUB PUSH1 0x60 DUP2 LT ISZERO PUSH2 0x271 JUMPI PUSH1 0x0 DUP1 REVERT JUMPDEST DUP2 ADD SWAP1 DUP1 DUP1 CALLDATALOAD PUSH20 0xFFFFFFFFFFFFFFFFFFFFFFFFFFFFFFFFFFFFFFFF AND SWAP1 PUSH1 0x20 ADD SWAP1 SWAP3 SWAP2 SWAP1 DUP1 CALLDATALOAD SWAP1 PUSH1 0x20 ADD SWAP1 SWAP3 SWAP2 SWAP1 DUP1 CALLDATALOAD SWAP1 PUSH1 0x20 ADD SWAP1 PUSH5 0x100000000 DUP2 GT ISZERO PUSH2 0x2B8 JUMPI PUSH1 0x0 DUP1 REVERT JUMPDEST DUP3 ADD DUP4 PUSH1 0x20 DUP3 ADD GT ISZERO PUSH2 0x2CA JUMPI PUSH1 0x0 DUP1 REVERT JUMPDEST DUP1 CALLDATALOAD SWAP1 PUSH1 0x20 ADD SWAP2 DUP5 PUSH1 0x1 DUP4 MUL DUP5 ADD GT PUSH5 0x100000000 DUP4 GT OR ISZERO PUSH2 0x2EC JUMPI PUSH1 0x0 DUP1 REVERT JUMPDEST SWAP2 SWAP1 DUP1 DUP1 PUSH1 0x1F ADD PUSH1 0x20 DUP1 SWAP2 DIV MUL PUSH1 0x20 ADD PUSH1 0x40 MLOAD SWAP1 DUP2 ADD PUSH1 0x40 MSTORE DUP1 SWAP4 SWAP3 SWAP2 SWAP1 DUP2 DUP2 MSTORE PUSH1 0x20 ADD DUP4 DUP4 DUP1 DUP3 DUP5 CALLDATACOPY PUSH1 0x0 DUP2 DUP5 ADD MSTORE PUSH1 0x1F NOT PUSH1 0x1F DUP3 ADD AND SWAP1 POP DUP1 DUP4 ADD SWAP3 POP POP POP POP POP POP POP SWAP2 SWAP3 SWAP2 SWAP3 SWAP1 POP POP POP PUSH2 0x88E JUMP JUMPDEST PUSH1 0x40 MLOAD DUP1 DUP1 PUSH1 0x20 ADD DUP3 DUP2 SUB DUP3 MSTORE DUP4 DUP2 DUP2 MLOAD DUP2 MSTORE PUSH1 0x20 ADD SWAP2 POP DUP1 MLOAD SWAP1 PUSH1 0x20 ADD SWAP1 DUP1 DUP4 DUP4 PUSH1 0x0 JUMPDEST DUP4 DUP2 LT ISZERO PUSH2 0x37E JUMPI DUP1 DUP3 ADD MLOAD DUP2 DUP5 ADD MSTORE PUSH1 0x20 DUP2 ADD SWAP1 POP PUSH2 0x363 JUMP JUMPDEST POP POP POP POP SWAP1 POP SWAP1 DUP2 ADD SWAP1 PUSH1 0x1F AND DUP1 ISZERO PUSH2 0x3AB JUMPI DUP1 DUP3 SUB DUP1 MLOAD PUSH1 0x1 DUP4 PUSH1 0x20 SUB PUSH2 0x100 EXP SUB NOT AND DUP2 MSTORE PUSH1 0x20 ADD SWAP2 POP JUMPDEST POP SWAP3 POP POP POP PUSH1 0x40 MLOAD DUP1 SWAP2 SUB SWAP1 RETURN JUMPDEST CALLVALUE DUP1 ISZERO PUSH2 0x3C5 JUMPI PUSH1 0x0 DUP1 REVERT JUMPDEST POP PUSH2 0x414 PUSH1 0x4 DUP1 CALLDATASIZE SUB PUSH1 0x40 DUP2 LT ISZERO PUSH2 0x3DC JUMPI PUSH1 0x0 DUP1 REVERT JUMPDEST DUP2 ADD SWAP1 DUP1 DUP1 CALLDATALOAD PUSH20 0xFFFFFFFFFFFFFFFFFFFFFFFFFFFFFFFFFFFFFFFF AND SWAP1 PUSH1 0x20 ADD SWAP1 SWAP3 SWAP2 SWAP1 DUP1 CALLDATALOAD ISZERO ISZERO SWAP1 PUSH1 0x20 ADD SWAP1 SWAP3 SWAP2 SWAP1 POP POP POP PUSH2 0xB37 JUMP JUMPDEST STOP JUMPDEST CALLVALUE DUP1 ISZERO PUSH2 0x422 JUMPI PUSH1 0x0 DUP1 REVERT JUMPDEST POP PUSH2 0x465 PUSH1 0x4 DUP1 CALLDATASIZE SUB PUSH1 0x20 DUP2 LT ISZERO PUSH2 0x439 JUMPI PUSH1 0x0 DUP1 REVERT JUMPDEST DUP2 ADD SWAP1 DUP1 DUP1 CALLDATALOAD PUSH20 0xFFFFFFFFFFFFFFFFFFFFFFFFFFFFFFFFFFFFFFFF AND SWAP1 PUSH1 0x20 ADD SWAP1 SWAP3 SWAP2 SWAP1 POP POP POP PUSH2 0xDA2 JUMP JUMPDEST PUSH1 0x40 MLOAD DUP1 DUP5 ISZERO ISZERO ISZERO ISZERO DUP2 MSTORE PUSH1 0x20 ADD DUP4 ISZERO ISZERO ISZERO ISZERO DUP2 MSTORE PUSH1 0x20 ADD DUP3 ISZERO ISZERO ISZERO ISZERO DUP2 MSTORE PUSH1 0x20 ADD SWAP4 POP POP POP POP PUSH1 0x40 MLOAD DUP1 SWAP2 SUB SWAP1 RETURN JUMPDEST PUSH1 0x0 DUP1 CALLER PUSH20 0xFFFFFFFFFFFFFFFFFFFFFFFFFFFFFFFFFFFFFFFF AND PUSH20 0xFFFFFFFFFFFFFFFFFFFFFFFFFFFFFFFFFFFFFFFF AND DUP2 MSTORE PUSH1 0x20 ADD SWAP1 DUP2 MSTORE PUSH1 0x20 ADD PUSH1 0x0 KECCAK256 PUSH1 0x0 ADD PUSH1 0x0 SWAP1 SLOAD SWAP1 PUSH2 0x100 EXP SWAP1 DIV PUSH1 0xFF AND PUSH2 0x4ED JUMPI PUSH1 0x0 DUP1 REVERT JUMPDEST PUSH1 0x0 DUP1 DUP3 PUSH20 0xFFFFFFFFFFFFFFFFFFFFFFFFFFFFFFFFFFFFFFFF AND PUSH20 0xFFFFFFFFFFFFFFFFFFFFFFFFFFFFFFFFFFFFFFFF AND DUP2 MSTORE PUSH1 0x20 ADD SWAP1 DUP2 MSTORE PUSH1 0x20 ADD PUSH1 0x0 KECCAK256 PUSH1 0x0 ADD PUSH1 0x1 SWAP1 SLOAD SWAP1 PUSH2 0x100 EXP SWAP1 DIV PUSH1 0xFF AND PUSH2 0x545 JUMPI PUSH1 0x0 DUP1 REVERT JUMPDEST PUSH1 0x0 DUP1 PUSH1 0x0 DUP4 PUSH20 0xFFFFFFFFFFFFFFFFFFFFFFFFFFFFFFFFFFFFFFFF AND PUSH20 0xFFFFFFFFFFFFFFFFFFFFFFFFFFFFFFFFFFFFFFFF AND DUP2 MSTORE PUSH1 0x20 ADD SWAP1 DUP2 MSTORE PUSH1 0x20 ADD PUSH1 0x0 KECCAK256 PUSH1 0x0 ADD PUSH1 0x0 PUSH2 0x100 EXP DUP2 SLOAD DUP2 PUSH1 0xFF MUL NOT AND SWAP1 DUP4 ISZERO ISZERO MUL OR SWAP1 SSTORE POP PUSH1 0x0 DUP1 PUSH1 0x0 DUP4 PUSH20 0xFFFFFFFFFFFFFFFFFFFFFFFFFFFFFFFFFFFFFFFF AND PUSH20 0xFFFFFFFFFFFFFFFFFFFFFFFFFFFFFFFFFFFFFFFF AND DUP2 MSTORE PUSH1 0x20 ADD SWAP1 DUP2 MSTORE PUSH1 0x20 ADD PUSH1 0x0 KECCAK256 PUSH1 0x0 ADD PUSH1 0x1 PUSH2 0x100 EXP DUP2 SLOAD DUP2 PUSH1 0xFF MUL NOT AND SWAP1 DUP4 ISZERO ISZERO MUL OR SWAP1 SSTORE POP PUSH32 0x15C62EC158A6C18AF42B447791266B9B0764BA2A6DF610890D4DA85C3D4185DB DUP2 PUSH1 0x40 MLOAD DUP1 DUP3 PUSH20 0xFFFFFFFFFFFFFFFFFFFFFFFFFFFFFFFFFFFFFFFF AND PUSH20 0xFFFFFFFFFFFFFFFFFFFFFFFFFFFFFFFFFFFFFFFF AND DUP2 MSTORE PUSH1 0x20 ADD SWAP2 POP POP PUSH1 0x40 MLOAD DUP1 SWAP2 SUB SWAP1 LOG1 POP JUMP JUMPDEST PUSH1 0x0 DUP1 PUSH1 0x41 DUP4 MLOAD EQ ISZERO PUSH2 0x819 JUMPI PUSH1 0x0 DUP1 PUSH1 0x0 PUSH1 0x20 DUP7 ADD MLOAD SWAP3 POP PUSH1 0x40 DUP7 ADD MLOAD SWAP2 POP PUSH1 0x60 DUP7 ADD MLOAD PUSH1 0x0 BYTE SWAP1 POP PUSH1 0x1B DUP2 PUSH1 0xFF AND LT ISZERO PUSH2 0x69C JUMPI PUSH1 0x1B DUP2 ADD SWAP1 POP JUMPDEST PUSH1 0x1B DUP2 PUSH1 0xFF AND EQ DUP1 PUSH2 0x6B1 JUMPI POP PUSH1 0x1C DUP2 PUSH1 0xFF AND EQ JUMPDEST ISZERO PUSH2 0x815 JUMPI PUSH1 0x1 PUSH2 0x6C2 DUP9 MLOAD PUSH2 0xDF3 JUMP JUMPDEST DUP9 PUSH1 0x40 MLOAD PUSH1 0x20 ADD DUP1 DUP1 PUSH32 0x19457468657265756D205369676E6564204D6573736167653A0A000000000000 DUP2 MSTORE POP PUSH1 0x1A ADD DUP4 DUP1 MLOAD SWAP1 PUSH1 0x20 ADD SWAP1 DUP1 DUP4 DUP4 JUMPDEST PUSH1 0x20 DUP4 LT PUSH2 0x721 JUMPI DUP1 MLOAD DUP3 MSTORE PUSH1 0x20 DUP3 ADD SWAP2 POP PUSH1 0x20 DUP2 ADD SWAP1 POP PUSH1 0x20 DUP4 SUB SWAP3 POP PUSH2 0x6FE JUMP JUMPDEST PUSH1 0x1 DUP4 PUSH1 0x20 SUB PUSH2 0x100 EXP SUB DUP1 NOT DUP3 MLOAD AND DUP2 DUP5 MLOAD AND DUP1 DUP3 OR DUP6 MSTORE POP POP POP POP POP POP SWAP1 POP ADD DUP3 DUP1 MLOAD SWAP1 PUSH1 0x20 ADD SWAP1 DUP1 DUP4 DUP4 JUMPDEST PUSH1 0x20 DUP4 LT PUSH2 0x772 JUMPI DUP1 MLOAD DUP3 MSTORE PUSH1 0x20 DUP3 ADD SWAP2 POP PUSH1 0x20 DUP2 ADD SWAP1 POP PUSH1 0x20 DUP4 SUB SWAP3 POP PUSH2 0x74F JUMP JUMPDEST PUSH1 0x1 DUP4 PUSH1 0x20 SUB PUSH2 0x100 EXP SUB DUP1 NOT DUP3 MLOAD AND DUP2 DUP5 MLOAD AND DUP1 DUP3 OR DUP6 MSTORE POP POP POP POP POP POP SWAP1 POP ADD SWAP3 POP POP POP PUSH1 0x40 MLOAD PUSH1 0x20 DUP2 DUP4 SUB SUB DUP2 MSTORE SWAP1 PUSH1 0x40 MSTORE DUP1 MLOAD SWAP1 PUSH1 0x20 ADD KECCAK256 DUP3 DUP6 DUP6 PUSH1 0x40 MLOAD PUSH1 0x0 DUP2 MSTORE PUSH1 0x20 ADD PUSH1 0x40 MSTORE PUSH1 0x40 MLOAD DUP1 DUP6 DUP2 MSTORE PUSH1 0x20 ADD DUP5 PUSH1 0xFF AND PUSH1 0xFF AND DUP2 MSTORE PUSH1 0x20 ADD DUP4 DUP2 MSTORE PUSH1 0x20 ADD DUP3 DUP2 MSTORE PUSH1 0x20 ADD SWAP5 POP POP POP POP POP PUSH1 0x20 PUSH1 0x40 MLOAD PUSH1 0x20 DUP2 SUB SWAP1 DUP1 DUP5 SUB SWAP1 DUP6 GAS STATICCALL ISZERO DUP1 ISZERO PUSH2 0x808 JUMPI RETURNDATASIZE PUSH1 0x0 DUP1 RETURNDATACOPY RETURNDATASIZE PUSH1 0x0 REVERT JUMPDEST POP POP POP PUSH1 0x20 PUSH1 0x40 MLOAD SUB MLOAD SWAP4 POP JUMPDEST POP POP POP JUMPDEST PUSH1 0x0 DUP1 DUP3 PUSH20 0xFFFFFFFFFFFFFFFFFFFFFFFFFFFFFFFFFFFFFFFF AND PUSH20 0xFFFFFFFFFFFFFFFFFFFFFFFFFFFFFFFFFFFFFFFF AND DUP2 MSTORE PUSH1 0x20 ADD SWAP1 DUP2 MSTORE PUSH1 0x20 ADD PUSH1 0x0 KECCAK256 PUSH1 0x0 ADD PUSH1 0x2 SWAP1 SLOAD SWAP1 PUSH2 0x100 EXP SWAP1 DIV PUSH1 0xFF AND ISZERO PUSH2 0x87C JUMPI PUSH4 0x20C13B0B PUSH1 0xE0 SHL SWAP2 POP PUSH2 0x887 JUMP JUMPDEST PUSH4 0xFFFFFFFF PUSH1 0xE0 SHL SWAP2 POP JUMPDEST POP SWAP3 SWAP2 POP POP JUMP JUMPDEST PUSH1 0x60 PUSH1 0x0 DUP1 CALLER PUSH20 0xFFFFFFFFFFFFFFFFFFFFFFFFFFFFFFFFFFFFFFFF AND PUSH20 0xFFFFFFFFFFFFFFFFFFFFFFFFFFFFFFFFFFFFFFFF AND DUP2 MSTORE PUSH1 0x20 ADD SWAP1 DUP2 MSTORE PUSH1 0x20 ADD PUSH1 0x0 KECCAK256 PUSH1 0x0 ADD PUSH1 0x0 SWAP1 SLOAD SWAP1 PUSH2 0x100 EXP SWAP1 DIV PUSH1 0xFF AND PUSH2 0x8E8 JUMPI PUSH1 0x0 DUP1 REVERT JUMPDEST PUSH1 0x0 PUSH20 0xFFFFFFFFFFFFFFFFFFFFFFFFFFFFFFFFFFFFFFFF AND DUP5 PUSH20 0xFFFFFFFFFFFFFFFFFFFFFFFFFFFFFFFFFFFFFFFF AND EQ ISZERO PUSH2 0x922 JUMPI PUSH1 0x0 DUP1 REVERT JUMPDEST PUSH1 0x0 DUP5 PUSH20 0xFFFFFFFFFFFFFFFFFFFFFFFFFFFFFFFFFFFFFFFF AND DUP5 DUP5 PUSH1 0x40 MLOAD DUP1 DUP3 DUP1 MLOAD SWAP1 PUSH1 0x20 ADD SWAP1 DUP1 DUP4 DUP4 JUMPDEST PUSH1 0x20 DUP4 LT PUSH2 0x970 JUMPI DUP1 MLOAD DUP3 MSTORE PUSH1 0x20 DUP3 ADD SWAP2 POP PUSH1 0x20 DUP2 ADD SWAP1 POP PUSH1 0x20 DUP4 SUB SWAP3 POP PUSH2 0x94D JUMP JUMPDEST PUSH1 0x1 DUP4 PUSH1 0x20 SUB PUSH2 0x100 EXP SUB DUP1 NOT DUP3 MLOAD AND DUP2 DUP5 MLOAD AND DUP1 DUP3 OR DUP6 MSTORE POP POP POP POP POP POP SWAP1 POP ADD SWAP2 POP POP PUSH1 0x0 PUSH1 0x40 MLOAD DUP1 DUP4 SUB DUP2 DUP6 DUP8 GAS CALL SWAP3 POP POP POP RETURNDATASIZE DUP1 PUSH1 0x0 DUP2 EQ PUSH2 0x9D2 JUMPI PUSH1 0x40 MLOAD SWAP2 POP PUSH1 0x1F NOT PUSH1 0x3F RETURNDATASIZE ADD AND DUP3 ADD PUSH1 0x40 MSTORE RETURNDATASIZE DUP3 MSTORE RETURNDATASIZE PUSH1 0x0 PUSH1 0x20 DUP5 ADD RETURNDATACOPY PUSH2 0x9D7 JUMP JUMPDEST PUSH1 0x60 SWAP2 POP JUMPDEST POP DUP1 SWAP4 POP DUP2 SWAP3 POP POP POP DUP1 PUSH2 0x9EA JUMPI PUSH1 0x0 DUP1 REVERT JUMPDEST PUSH32 0x12AE8711B8DC37E405D8E422569D1EE78D52D76BC8FE2A9EA81FFE17569E51A DUP6 DUP6 DUP6 DUP6 PUSH1 0x40 MLOAD DUP1 DUP6 PUSH20 0xFFFFFFFFFFFFFFFFFFFFFFFFFFFFFFFFFFFFFFFF AND PUSH20 0xFFFFFFFFFFFFFFFFFFFFFFFFFFFFFFFFFFFFFFFF AND DUP2 MSTORE PUSH1 0x20 ADD DUP5 DUP2 MSTORE PUSH1 0x20 ADD DUP1 PUSH1 0x20 ADD DUP1 PUSH1 0x20 ADD DUP4 DUP2 SUB DUP4 MSTORE DUP6 DUP2 DUP2 MLOAD DUP2 MSTORE PUSH1 0x20 ADD SWAP2 POP DUP1 MLOAD SWAP1 PUSH1 0x20 ADD SWAP1 DUP1 DUP4 DUP4 PUSH1 0x0 JUMPDEST DUP4 DUP2 LT ISZERO PUSH2 0xA8B JUMPI DUP1 DUP3 ADD MLOAD DUP2 DUP5 ADD MSTORE PUSH1 0x20 DUP2 ADD SWAP1 POP PUSH2 0xA70 JUMP JUMPDEST POP POP POP POP SWAP1 POP SWAP1 DUP2 ADD SWAP1 PUSH1 0x1F AND DUP1 ISZERO PUSH2 0xAB8 JUMPI DUP1 DUP3 SUB DUP1 MLOAD PUSH1 0x1 DUP4 PUSH1 0x20 SUB PUSH2 0x100 EXP SUB NOT AND DUP2 MSTORE PUSH1 0x20 ADD SWAP2 POP JUMPDEST POP DUP4 DUP2 SUB DUP3 MSTORE DUP5 DUP2 DUP2 MLOAD DUP2 MSTORE PUSH1 0x20 ADD SWAP2 POP DUP1 MLOAD SWAP1 PUSH1 0x20 ADD SWAP1 DUP1 DUP4 DUP4 PUSH1 0x0 JUMPDEST DUP4 DUP2 LT ISZERO PUSH2 0xAF1 JUMPI DUP1 DUP3 ADD MLOAD DUP2 DUP5 ADD MSTORE PUSH1 0x20 DUP2 ADD SWAP1 POP PUSH2 0xAD6 JUMP JUMPDEST POP POP POP POP SWAP1 POP SWAP1 DUP2 ADD SWAP1 PUSH1 0x1F AND DUP1 ISZERO PUSH2 0xB1E JUMPI DUP1 DUP3 SUB DUP1 MLOAD PUSH1 0x1 DUP4 PUSH1 0x20 SUB PUSH2 0x100 EXP SUB NOT AND DUP2 MSTORE PUSH1 0x20 ADD SWAP2 POP JUMPDEST POP SWAP7 POP POP POP POP POP POP POP PUSH1 0x40 MLOAD DUP1 SWAP2 SUB SWAP1 LOG1 POP SWAP4 SWAP3 POP POP POP JUMP JUMPDEST PUSH1 0x0 DUP1 CALLER PUSH20 0xFFFFFFFFFFFFFFFFFFFFFFFFFFFFFFFFFFFFFFFF AND PUSH20 0xFFFFFFFFFFFFFFFFFFFFFFFFFFFFFFFFFFFFFFFF AND DUP2 MSTORE PUSH1 0x20 ADD SWAP1 DUP2 MSTORE PUSH1 0x20 ADD PUSH1 0x0 KECCAK256 PUSH1 0x0 ADD PUSH1 0x0 SWAP1 SLOAD SWAP1 PUSH2 0x100 EXP SWAP1 DIV PUSH1 0xFF AND PUSH2 0xB8F JUMPI PUSH1 0x0 DUP1 REVERT JUMPDEST PUSH1 0x0 PUSH20 0xFFFFFFFFFFFFFFFFFFFFFFFFFFFFFFFFFFFFFFFF AND DUP3 PUSH20 0xFFFFFFFFFFFFFFFFFFFFFFFFFFFFFFFFFFFFFFFF AND EQ ISZERO PUSH2 0xBC9 JUMPI PUSH1 0x0 DUP1 REVERT JUMPDEST PUSH1 0x0 DUP1 DUP4 PUSH20 0xFFFFFFFFFFFFFFFFFFFFFFFFFFFFFFFFFFFFFFFF AND PUSH20 0xFFFFFFFFFFFFFFFFFFFFFFFFFFFFFFFFFFFFFFFF AND DUP2 MSTORE PUSH1 0x20 ADD SWAP1 DUP2 MSTORE PUSH1 0x20 ADD PUSH1 0x0 KECCAK256 PUSH1 0x0 ADD PUSH1 0x1 SWAP1 SLOAD SWAP1 PUSH2 0x100 EXP SWAP1 DIV PUSH1 0xFF AND ISZERO PUSH2 0xC22 JUMPI PUSH1 0x0 DUP1 REVERT JUMPDEST DUP1 PUSH1 0x0 DUP1 DUP5 PUSH20 0xFFFFFFFFFFFFFFFFFFFFFFFFFFFFFFFFFFFFFFFF AND PUSH20 0xFFFFFFFFFFFFFFFFFFFFFFFFFFFFFFFFFFFFFFFF AND DUP2 MSTORE PUSH1 0x20 ADD SWAP1 DUP2 MSTORE PUSH1 0x20 ADD PUSH1 0x0 KECCAK256 PUSH1 0x0 ADD PUSH1 0x0 PUSH2 0x100 EXP DUP2 SLOAD DUP2 PUSH1 0xFF MUL NOT AND SWAP1 DUP4 ISZERO ISZERO MUL OR SWAP1 SSTORE POP PUSH1 0x1 PUSH1 0x0 DUP1 DUP5 PUSH20 0xFFFFFFFFFFFFFFFFFFFFFFFFFFFFFFFFFFFFFFFF AND PUSH20 0xFFFFFFFFFFFFFFFFFFFFFFFFFFFFFFFFFFFFFFFF AND DUP2 MSTORE PUSH1 0x20 ADD SWAP1 DUP2 MSTORE PUSH1 0x20 ADD PUSH1 0x0 KECCAK256 PUSH1 0x0 ADD PUSH1 0x1 PUSH2 0x100 EXP DUP2 SLOAD DUP2 PUSH1 0xFF MUL NOT AND SWAP1 DUP4 ISZERO ISZERO MUL OR SWAP1 SSTORE POP PUSH1 0x1 PUSH1 0x0 DUP1 DUP5 PUSH20 0xFFFFFFFFFFFFFFFFFFFFFFFFFFFFFFFFFFFFFFFF AND PUSH20 0xFFFFFFFFFFFFFFFFFFFFFFFFFFFFFFFFFFFFFFFF AND DUP2 MSTORE PUSH1 0x20 ADD SWAP1 DUP2 MSTORE PUSH1 0x20 ADD PUSH1 0x0 KECCAK256 PUSH1 0x0 ADD PUSH1 0x2 PUSH2 0x100 EXP DUP2 SLOAD DUP2 PUSH1 0xFF MUL NOT AND SWAP1 DUP4 ISZERO ISZERO MUL OR SWAP1 SSTORE POP PUSH32 0x3525178F8D4A5C0DC1E61A0EDE8D6A7A9EA67A23EC515983BBB940BE4B419650 DUP3 DUP3 PUSH1 0x40 MLOAD DUP1 DUP4 PUSH20 0xFFFFFFFFFFFFFFFFFFFFFFFFFFFFFFFFFFFFFFFF AND PUSH20 0xFFFFFFFFFFFFFFFFFFFFFFFFFFFFFFFFFFFFFFFF AND DUP2 MSTORE PUSH1 0x20 ADD DUP3 ISZERO ISZERO ISZERO ISZERO DUP2 MSTORE PUSH1 0x20 ADD SWAP3 POP POP POP PUSH1 0x40 MLOAD DUP1 SWAP2 SUB SWAP1 LOG1 POP POP JUMP JUMPDEST PUSH1 0x0 PUSH1 0x20 MSTORE DUP1 PUSH1 0x0 MSTORE PUSH1 0x40 PUSH1 0x0 KECCAK256 PUSH1 0x0 SWAP2 POP SWAP1 POP DUP1 PUSH1 0x0 ADD PUSH1 0x0 SWAP1 SLOAD SWAP1 PUSH2 0x100 EXP SWAP1 DIV PUSH1 0xFF AND SWAP1 DUP1 PUSH1 0x0 ADD PUSH1 0x1 SWAP1 SLOAD SWAP1 PUSH2 0x100 EXP SWAP1 DIV PUSH1 0xFF AND SWAP1 DUP1 PUSH1 0x0 ADD PUSH1 0x2 SWAP1 SLOAD SWAP1 PUSH2 0x100 EXP SWAP1 DIV PUSH1 0xFF AND SWAP1 POP DUP4 JUMP JUMPDEST PUSH1 0x60 PUSH1 0x0 DUP3 EQ ISZERO PUSH2 0xE3B JUMPI PUSH1 0x40 MLOAD DUP1 PUSH1 0x40 ADD PUSH1 0x40 MSTORE DUP1 PUSH1 0x1 DUP2 MSTORE PUSH1 0x20 ADD PUSH32 0x3000000000000000000000000000000000000000000000000000000000000000 DUP2 MSTORE POP SWAP1 POP PUSH2 0xF21 JUMP JUMPDEST PUSH1 0x0 DUP3 SWAP1 POP PUSH1 0x0 DUP4 SWAP1 POP PUSH1 0x0 JUMPDEST PUSH1 0x0 DUP3 EQ PUSH2 0xE6A JUMPI DUP1 DUP1 PUSH1 0x1 ADD SWAP2 POP POP PUSH1 0xA DUP3 DUP2 PUSH2 0xE62 JUMPI INVALID JUMPDEST DIV SWAP2 POP PUSH2 0xE48 JUMP JUMPDEST PUSH1 0x60 DUP2 PUSH1 0x40 MLOAD SWAP1 DUP1 DUP3 MSTORE DUP1 PUSH1 0x1F ADD PUSH1 0x1F NOT AND PUSH1 0x20 ADD DUP3 ADD PUSH1 0x40 MSTORE DUP1 ISZERO PUSH2 0xE9F JUMPI DUP2 PUSH1 0x20 ADD PUSH1 0x1 DUP3 MUL DUP1 CODESIZE DUP4 CODECOPY DUP1 DUP3 ADD SWAP2 POP POP SWAP1 POP JUMPDEST POP SWAP1 POP PUSH1 0x0 PUSH1 0x1 DUP4 SUB SWAP1 POP JUMPDEST PUSH1 0x0 DUP6 EQ PUSH2 0xF18 JUMPI PUSH1 0xA DUP6 DUP2 PUSH2 0xEBD JUMPI INVALID JUMPDEST MOD PUSH1 0x30 ADD PUSH1 0xF8 SHL DUP3 DUP3 DUP1 PUSH1 0x1 SWAP1 SUB SWAP4 POP DUP2 MLOAD DUP2 LT PUSH2 0xED7 JUMPI INVALID JUMPDEST PUSH1 0x20 ADD ADD SWAP1 PUSH31 0xFFFFFFFFFFFFFFFFFFFFFFFFFFFFFFFFFFFFFFFFFFFFFFFFFFFFFFFFFFFFFF NOT AND SWAP1 DUP2 PUSH1 0x0 BYTE SWAP1 MSTORE8 POP PUSH1 0xA DUP6 DUP2 PUSH2 0xF10 JUMPI INVALID JUMPDEST DIV SWAP5 POP PUSH2 0xEAB JUMP JUMPDEST DUP2 SWAP6 POP POP POP POP POP POP JUMPDEST SWAP2 SWAP1 POP JUMP INVALID LOG2 PUSH6 0x627A7A723158 KECCAK256 0xAC LT ORIGIN LOG2 SWAP6 0xE7 EXTCODEHASH 0xBE RETURNDATASIZE 0xE4 PUSH20 0xC2FC9E964E4C0F010D359C7829A48D86F6BEF57 0xBA PUSH5 0x736F6C6343 STOP SDIV GT STOP ORIGIN "
	},
	"Assembly": ".code\n  PUSH 80\t\t\tcontract Account is AbstractAc...\n  PUSH 40\t\t\tcontract Account is AbstractAc...\n  MSTORE \t\t\tcontract Account is AbstractAc...\n  CALLVALUE \t\t\tconstructor() public {\\n    de...\n  DUP1 \t\t\tolidity ^\n  ISZERO \t\t\ta \n  PUSH [tag] 1\t\t\ta \n  JUMPI \t\t\ta \n  PUSH 0\t\t\tr\n  DUP1 \t\t\tm\n  REVERT \t\t\t.10;\\n\\nimport\ntag 1\t\t\ta \n  JUMPDEST \t\t\ta \n  POP \t\t\tconstructor() public {\\n    de...\n  PUSH 1\t\t\ttrue\n  PUSH 0\t\t\tdevices\n  DUP1 \t\t\tdevices[msg.sender]\n  CALLER \t\t\tmsg.sender\n  PUSH FFFFFFFFFFFFFFFFFFFFFFFFFFFFFFFFFFFFFFFF\t\t\tdevices[msg.sender]\n  AND \t\t\tdevices[msg.sender]\n  PUSH FFFFFFFFFFFFFFFFFFFFFFFFFFFFFFFFFFFFFFFF\t\t\tdevices[msg.sender]\n  AND \t\t\tdevices[msg.sender]\n  DUP2 \t\t\tdevices[msg.sender]\n  MSTORE \t\t\tdevices[msg.sender]\n  PUSH 20\t\t\tdevices[msg.sender]\n  ADD \t\t\tdevices[msg.sender]\n  SWAP1 \t\t\tdevices[msg.sender]\n  DUP2 \t\t\tdevices[msg.sender]\n  MSTORE \t\t\tdevices[msg.sender]\n  PUSH 20\t\t\tdevices[msg.sender]\n  ADD \t\t\tdevices[msg.sender]\n  PUSH 0\t\t\tdevices[msg.sender]\n  KECCAK256 \t\t\tdevices[msg.sender]\n  PUSH 0\t\t\tdevices[msg.sender].isOwner\n  ADD \t\t\tdevices[msg.sender].isOwner\n  PUSH 0\t\t\tdevices[msg.sender].isOwner\n  PUSH 100\t\t\tdevices[msg.sender].isOwner = ...\n  EXP \t\t\tdevices[msg.sender].isOwner = ...\n  DUP2 \t\t\tdevices[msg.sender].isOwner = ...\n  SLOAD \t\t\tdevices[msg.sender].isOwner = ...\n  DUP2 \t\t\tdevices[msg.sender].isOwner = ...\n  PUSH FF\t\t\tdevices[msg.sender].isOwner = ...\n  MUL \t\t\tdevices[msg.sender].isOwner = ...\n  NOT \t\t\tdevices[msg.sender].isOwner = ...\n  AND \t\t\tdevices[msg.sender].isOwner = ...\n  SWAP1 \t\t\tdevices[msg.sender].isOwner = ...\n  DUP4 \t\t\tdevices[msg.sender].isOwner = ...\n  ISZERO \t\t\tdevices[msg.sender].isOwner = ...\n  ISZERO \t\t\tdevices[msg.sender].isOwner = ...\n  MUL \t\t\tdevices[msg.sender].isOwner = ...\n  OR \t\t\tdevices[msg.sender].isOwner = ...\n  SWAP1 \t\t\tdevices[msg.sender].isOwner = ...\n  SSTORE \t\t\tdevices[msg.sender].isOwner = ...\n  POP \t\t\tdevices[msg.sender].isOwner = ...\n  PUSH 1\t\t\ttrue\n  PUSH 0\t\t\tdevices\n  DUP1 \t\t\tdevices[msg.sender]\n  CALLER \t\t\tmsg.sender\n  PUSH FFFFFFFFFFFFFFFFFFFFFFFFFFFFFFFFFFFFFFFF\t\t\tdevices[msg.sender]\n  AND \t\t\tdevices[msg.sender]\n  PUSH FFFFFFFFFFFFFFFFFFFFFFFFFFFFFFFFFFFFFFFF\t\t\tdevices[msg.sender]\n  AND \t\t\tdevices[msg.sender]\n  DUP2 \t\t\tdevices[msg.sender]\n  MSTORE \t\t\tdevices[msg.sender]\n  PUSH 20\t\t\tdevices[msg.sender]\n  ADD \t\t\tdevices[msg.sender]\n  SWAP1 \t\t\tdevices[msg.sender]\n  DUP2 \t\t\tdevices[msg.sender]\n  MSTORE \t\t\tdevices[msg.sender]\n  PUSH 20\t\t\tdevices[msg.sender]\n  ADD \t\t\tdevices[msg.sender]\n  PUSH 0\t\t\tdevices[msg.sender]\n  KECCAK256 \t\t\tdevices[msg.sender]\n  PUSH 0\t\t\tdevices[msg.sender].exists\n  ADD \t\t\tdevices[msg.sender].exists\n  PUSH 1\t\t\tdevices[msg.sender].exists\n  PUSH 100\t\t\tdevices[msg.sender].exists = t...\n  EXP \t\t\tdevices[msg.sender].exists = t...\n  DUP2 \t\t\tdevices[msg.sender].exists = t...\n  SLOAD \t\t\tdevices[msg.sender].exists = t...\n  DUP2 \t\t\tdevices[msg.sender].exists = t...\n  PUSH FF\t\t\tdevices[msg.sender].exists = t...\n  MUL \t\t\tdevices[msg.sender].exists = t...\n  NOT \t\t\tdevices[msg.sender].exists = t...\n  AND \t\t\tdevices[msg.sender].exists = t...\n  SWAP1 \t\t\tdevices[msg.sender].exists = t...\n  DUP4 \t\t\tdevices[msg.sender].exists = t...\n  ISZERO \t\t\tdevices[msg.sender].exists = t...\n  ISZERO \t\t\tdevices[msg.sender].exists = t...\n  MUL \t\t\tdevices[msg.sender].exists = t...\n  OR \t\t\tdevices[msg.sender].exists = t...\n  SWAP1 \t\t\tdevices[msg.sender].exists = t...\n  SSTORE \t\t\tdevices[msg.sender].exists = t...\n  POP \t\t\tdevices[msg.sender].exists = t...\n  PUSH 1\t\t\ttrue\n  PUSH 0\t\t\tdevices\n  DUP1 \t\t\tdevices[msg.sender]\n  CALLER \t\t\tmsg.sender\n  PUSH FFFFFFFFFFFFFFFFFFFFFFFFFFFFFFFFFFFFFFFF\t\t\tdevices[msg.sender]\n  AND \t\t\tdevices[msg.sender]\n  PUSH FFFFFFFFFFFFFFFFFFFFFFFFFFFFFFFFFFFFFFFF\t\t\tdevices[msg.sender]\n  AND \t\t\tdevices[msg.sender]\n  DUP2 \t\t\tdevices[msg.sender]\n  MSTORE \t\t\tdevices[msg.sender]\n  PUSH 20\t\t\tdevices[msg.sender]\n  ADD \t\t\tdevices[msg.sender]\n  SWAP1 \t\t\tdevices[msg.sender]\n  DUP2 \t\t\tdevices[msg.sender]\n  MSTORE \t\t\tdevices[msg.sender]\n  PUSH 20\t\t\tdevices[msg.sender]\n  ADD \t\t\tdevices[msg.sender]\n  PUSH 0\t\t\tdevices[msg.sender]\n  KECCAK256 \t\t\tdevices[msg.sender]\n  PUSH 0\t\t\tdevices[msg.sender].existed\n  ADD \t\t\tdevices[msg.sender].existed\n  PUSH 2\t\t\tdevices[msg.sender].existed\n  PUSH 100\t\t\tdevices[msg.sender].existed = ...\n  EXP \t\t\tdevices[msg.sender].existed = ...\n  DUP2 \t\t\tdevices[msg.sender].existed = ...\n  SLOAD \t\t\tdevices[msg.sender].existed = ...\n  DUP2 \t\t\tdevices[msg.sender].existed = ...\n  PUSH FF\t\t\tdevices[msg.sender].existed = ...\n  MUL \t\t\tdevices[msg.sender].existed = ...\n  NOT \t\t\tdevices[msg.sender].existed = ...\n  AND \t\t\tdevices[msg.sender].existed = ...\n  SWAP1 \t\t\tdevices[msg.sender].existed = ...\n  DUP4 \t\t\tdevices[msg.sender].existed = ...\n  ISZERO \t\t\tdevices[msg.sender].existed = ...\n  ISZERO \t\t\tdevices[msg.sender].existed = ...\n  MUL \t\t\tdevices[msg.sender].existed = ...\n  OR \t\t\tdevices[msg.sender].existed = ...\n  SWAP1 \t\t\tdevices[msg.sender].existed = ...\n  SSTORE \t\t\tdevices[msg.sender].existed = ...\n  POP \t\t\tdevices[msg.sender].existed = ...\n  PUSH #[$] 0000000000000000000000000000000000000000000000000000000000000000\t\t\tcontract Account is AbstractAc...\n  DUP1 \t\t\tcontract Account is AbstractAc...\n  PUSH [$] 0000000000000000000000000000000000000000000000000000000000000000\t\t\tcontract Account is AbstractAc...\n  PUSH 0\t\t\tcontract Account is AbstractAc...\n  CODECOPY \t\t\tcontract Account is AbstractAc...\n  PUSH 0\t\t\tcontract Account is AbstractAc...\n  RETURN \t\t\tcontract Account is AbstractAc...\n.data\n  0:\n    .code\n      PUSH 80\t\t\tcontract Account is AbstractAc...\n      PUSH 40\t\t\tcontract Account is AbstractAc...\n      MSTORE \t\t\tcontract Account is AbstractAc...\n      PUSH 4\t\t\tcontract Account is AbstractAc...\n      CALLDATASIZE \t\t\tcontract Account is AbstractAc...\n      LT \t\t\tcontract Account is AbstractAc...\n      PUSH [tag] 1\t\t\tcontract Account is AbstractAc...\n      JUMPI \t\t\tcontract Account is AbstractAc...\n      PUSH 0\t\t\tcontract Account is AbstractAc...\n      CALLDATALOAD \t\t\tcontract Account is AbstractAc...\n      PUSH E0\t\t\tcontract Account is AbstractAc...\n      SHR \t\t\tcontract Account is AbstractAc...\n      DUP1 \t\t\tcontract Account is AbstractAc...\n      PUSH 1F7B6324\t\t\tcontract Account is AbstractAc...\n      EQ \t\t\tcontract Account is AbstractAc...\n      PUSH [tag] 2\t\t\tcontract Account is AbstractAc...\n      JUMPI \t\t\tcontract Account is AbstractAc...\n      DUP1 \t\t\tcontract Account is AbstractAc...\n      PUSH 20C13B0B\t\t\tcontract Account is AbstractAc...\n      EQ \t\t\tcontract Account is AbstractAc...\n      PUSH [tag] 3\t\t\tcontract Account is AbstractAc...\n      JUMPI \t\t\tcontract Account is AbstractAc...\n      DUP1 \t\t\tcontract Account is AbstractAc...\n      PUSH 3F579F42\t\t\tcontract Account is AbstractAc...\n      EQ \t\t\tcontract Account is AbstractAc...\n      PUSH [tag] 4\t\t\tcontract Account is AbstractAc...\n      JUMPI \t\t\tcontract Account is AbstractAc...\n      DUP1 \t\t\tcontract Account is AbstractAc...\n      PUSH 811D54DC\t\t\tcontract Account is AbstractAc...\n      EQ \t\t\tcontract Account is AbstractAc...\n      PUSH [tag] 5\t\t\tcontract Account is AbstractAc...\n      JUMPI \t\t\tcontract Account is AbstractAc...\n      DUP1 \t\t\tcontract Account is AbstractAc...\n      PUSH E7B4CAC6\t\t\tcontract Account is AbstractAc...\n      EQ \t\t\tcontract Account is AbstractAc...\n      PUSH [tag] 6\t\t\tcontract Account is AbstractAc...\n      JUMPI \t\t\tcontract Account is AbstractAc...\n    tag 1\t\t\tcontract Account is AbstractAc...\n      JUMPDEST \t\t\tcontract Account is AbstractAc...\n      STOP \t\t\tcontract Account is AbstractAc...\n    tag 2\t\t\tfunction removeDevice(address ...\n      JUMPDEST \t\t\tfunction removeDevice(address ...\n      CALLVALUE \t\t\tfunction removeDevice(address ...\n      DUP1 \t\t\tolidity ^\n      ISZERO \t\t\ta \n      PUSH [tag] 9\t\t\ta \n      JUMPI \t\t\ta \n      PUSH 0\t\t\tr\n      DUP1 \t\t\tm\n      REVERT \t\t\t.10;\\n\\nimport\n    tag 9\t\t\ta \n      JUMPDEST \t\t\ta \n      POP \t\t\tfunction removeDevice(address ...\n      PUSH [tag] 10\t\t\tfunction removeDevice(address ...\n      PUSH 4\t\t\tfunction removeDevice(address ...\n      DUP1 \t\t\tfunction removeDevice(address ...\n      CALLDATASIZE \t\t\tfunction removeDevice(address ...\n      SUB \t\t\tfunction removeDevice(address ...\n      PUSH 20\t\t\tty\n      DUP2 \t\t\toli\n      LT \t\t\ta solidity \n      ISZERO \t\t\tag\n      PUSH [tag] 11\t\t\tag\n      JUMPI \t\t\tag\n      PUSH 0\t\t\to\n      DUP1 \t\t\ti\n      REVERT \t\t\t5.10;\\n\\nimpor\n    tag 11\t\t\tag\n      JUMPDEST \t\t\tag\n      DUP2 \t\t\tfunction removeDevice(address ...\n      ADD \t\t\tfunction removeDevice(address ...\n      SWAP1 \t\t\tfunction removeDevice(address ...\n      DUP1 \t\t\tfunction removeDevice(address ...\n      DUP1 \t\t\tfunction removeDevice(address ...\n      CALLDATALOAD \t\t\tfunction removeDevice(address ...\n      PUSH FFFFFFFFFFFFFFFFFFFFFFFFFFFFFFFFFFFFFFFF\t\t\tfunction removeDevice(address ...\n      AND \t\t\tfunction removeDevice(address ...\n      SWAP1 \t\t\tfunction removeDevice(address ...\n      PUSH 20\t\t\tfunction removeDevice(address ...\n      ADD \t\t\tfunction removeDevice(address ...\n      SWAP1 \t\t\tfunction removeDevice(address ...\n      SWAP3 \t\t\tfunction removeDevice(address ...\n      SWAP2 \t\t\tfunction removeDevice(address ...\n      SWAP1 \t\t\tfunction removeDevice(address ...\n      POP \t\t\tfunction removeDevice(address ...\n      POP \t\t\tfunction removeDevice(address ...\n      POP \t\t\tfunction removeDevice(address ...\n      PUSH [tag] 12\t\t\tfunction removeDevice(address ...\n      JUMP [in]\t\t\tfunction removeDevice(address ...\n    tag 10\t\t\tfunction removeDevice(address ...\n      JUMPDEST \t\t\tfunction removeDevice(address ...\n      STOP \t\t\tfunction removeDevice(address ...\n    tag 3\t\t\tfunction isValidSignature(\\n  ...\n      JUMPDEST \t\t\tfunction isValidSignature(\\n  ...\n      CALLVALUE \t\t\tfunction isValidSignature(\\n  ...\n      DUP1 \t\t\tolidity ^\n      ISZERO \t\t\ta \n      PUSH [tag] 13\t\t\ta \n      JUMPI \t\t\ta \n      PUSH 0\t\t\tr\n      DUP1 \t\t\tm\n      REVERT \t\t\t.10;\\n\\nimport\n    tag 13\t\t\ta \n      JUMPDEST \t\t\ta \n      POP \t\t\tfunction isValidSignature(\\n  ...\n      PUSH [tag] 14\t\t\tfunction isValidSignature(\\n  ...\n      PUSH 4\t\t\tfunction isValidSignature(\\n  ...\n      DUP1 \t\t\tfunction isValidSignature(\\n  ...\n      CALLDATASIZE \t\t\tfunction isValidSignature(\\n  ...\n      SUB \t\t\tfunction isValidSignature(\\n  ...\n      PUSH 40\t\t\tty\n      DUP2 \t\t\toli\n      LT \t\t\ta solidity \n      ISZERO \t\t\tag\n      PUSH [tag] 15\t\t\tag\n      JUMPI \t\t\tag\n      PUSH 0\t\t\to\n      DUP1 \t\t\ti\n      REVERT \t\t\t5.10;\\n\\nimpor\n    tag 15\t\t\tag\n      JUMPDEST \t\t\tag\n      DUP2 \t\t\tfunction isValidSignature(\\n  ...\n      ADD \t\t\tfunction isValidSignature(\\n  ...\n      SWAP1 \t\t\tfunction isValidSignature(\\n  ...\n      DUP1 \t\t\tfunction isValidSignature(\\n  ...\n      DUP1 \t\t\tfunction isValidSignature(\\n  ...\n      CALLDATALOAD \t\t\tfunction isValidSignature(\\n  ...\n      SWAP1 \t\t\tfunction isValidSignature(\\n  ...\n      PUSH 20\t\t\tfunction isValidSignature(\\n  ...\n      ADD \t\t\tfunction isValidSignature(\\n  ...\n      SWAP1 \t\t\tfunction isValidSignature(\\n  ...\n      PUSH 100000000\t\t\t10;\\n\\nimport\n      DUP2 \t\t\tolidity ^0.\n      GT \t\t\ta solidity ^0.5.10;\\n\\nimport \n      ISZERO \t\t\tag\n      PUSH [tag] 16\t\t\tag\n      JUMPI \t\t\tag\n      PUSH 0\t\t\tc\n      DUP1 \t\t\tt\n      REVERT \t\t\tAbstractAcco\n    tag 16\t\t\tag\n      JUMPDEST \t\t\tag\n      DUP3 \t\t\tfunction isValidSignature(\\n  ...\n      ADD \t\t\tfunction isValidSignature(\\n  ...\n      DUP4 \t\t\t/Abstract\n      PUSH 20\t\t\tport\n      DUP3 \t\t\tity ^0.5.10;\\n\\n\n      ADD \t\t\tolidity ^0.5.10;\\n\\nimport \n      GT \t\t\ta solidity ^0.5.10;\\n\\nimport ...\n      ISZERO \t\t\tag\n      PUSH [tag] 17\t\t\tag\n      JUMPI \t\t\tag\n      PUSH 0\t\t\t\\n\n      DUP1 \t\t\t\"\n      REVERT \t\t\tunt.sol\";\\n\\n\\n\n    tag 17\t\t\tag\n      JUMPDEST \t\t\tag\n      DUP1 \t\t\tfunction isValidSignature(\\n  ...\n      CALLDATALOAD \t\t\tfunction isValidSignature(\\n  ...\n      SWAP1 \t\t\tfunction isValidSignature(\\n  ...\n      PUSH 20\t\t\tfunction isValidSignature(\\n  ...\n      ADD \t\t\tfunction isValidSignature(\\n  ...\n      SWAP2 \t\t\tfunction isValidSignature(\\n  ...\n      DUP5 \t\t\tnt is Abs\n      PUSH 1\t\t\tA\n      DUP4 \t\t\t\\n */\\ncontrac\n      MUL \t\t\tount\\n */\\ncontract Ac\n      DUP5 \t\t\t@title A\n      ADD \t\t\t\\n * @title Account\\n */\\ncont...\n      GT \t\t\t/**\\n * @title Account\\n */\\nc...\n      PUSH 100000000\t\t\ttractAccoun\n      DUP4 \t\t\t\\nimport \"./A\n      GT \t\t\t0;\\n\\nimport \"./AbstractAccoun...\n      OR \t\t\tdity ^0.5.10;\\n\\nimport \"./Abs...\n      ISZERO \t\t\tol\n      PUSH [tag] 18\t\t\tol\n      JUMPI \t\t\tol\n      PUSH 0\t\t\tf\n      DUP1 \t\t\to\n      REVERT \t\t\t {\\n\\n  modifi\n    tag 18\t\t\tol\n      JUMPDEST \t\t\tol\n      SWAP2 \t\t\tfunction isValidSignature(\\n  ...\n      SWAP1 \t\t\tfunction isValidSignature(\\n  ...\n      DUP1 \t\t\tfunction isValidSignature(\\n  ...\n      DUP1 \t\t\tfunction isValidSignature(\\n  ...\n      PUSH 1F\t\t\tfunction isValidSignature(\\n  ...\n      ADD \t\t\tfunction isValidSignature(\\n  ...\n      PUSH 20\t\t\tfunction isValidSignature(\\n  ...\n      DUP1 \t\t\tfunction isValidSignature(\\n  ...\n      SWAP2 \t\t\tfunction isValidSignature(\\n  ...\n      DIV \t\t\tfunction isValidSignature(\\n  ...\n      MUL \t\t\tfunction isValidSignature(\\n  ...\n      PUSH 20\t\t\tfunction isValidSignature(\\n  ...\n      ADD \t\t\tfunction isValidSignature(\\n  ...\n      PUSH 40\t\t\tfunction isValidSignature(\\n  ...\n      MLOAD \t\t\tfunction isValidSignature(\\n  ...\n      SWAP1 \t\t\tfunction isValidSignature(\\n  ...\n      DUP2 \t\t\tfunction isValidSignature(\\n  ...\n      ADD \t\t\tfunction isValidSignature(\\n  ...\n      PUSH 40\t\t\tfunction isValidSignature(\\n  ...\n      MSTORE \t\t\tfunction isValidSignature(\\n  ...\n      DUP1 \t\t\tfunction isValidSignature(\\n  ...\n      SWAP4 \t\t\tfunction isValidSignature(\\n  ...\n      SWAP3 \t\t\tfunction isValidSignature(\\n  ...\n      SWAP2 \t\t\tfunction isValidSignature(\\n  ...\n      SWAP1 \t\t\tfunction isValidSignature(\\n  ...\n      DUP2 \t\t\tfunction isValidSignature(\\n  ...\n      DUP2 \t\t\tfunction isValidSignature(\\n  ...\n      MSTORE \t\t\tfunction isValidSignature(\\n  ...\n      PUSH 20\t\t\tfunction isValidSignature(\\n  ...\n      ADD \t\t\tfunction isValidSignature(\\n  ...\n      DUP4 \t\t\tfunction isValidSignature(\\n  ...\n      DUP4 \t\t\tfunction isValidSignature(\\n  ...\n      DUP1 \t\t\trt \n      DUP3 \t\t\t0;\\n\\nim\n      DUP5 \t\t\ty ^0.5\n      CALLDATACOPY \t\t\tragma solidity ^0.5.10;\\n\\nimp...\n      PUSH 0\t\t\tu\n      DUP2 \t\t\tt A\n      DUP5 \t\t\t\\ncontr\n      ADD \t\t\t\\n */\\ncontract Ac\n      MSTORE \t\t\tAccount\\n */\\ncontract Accoun\n      PUSH 1F\t\t\tnlyO\n      NOT \t\t\ter onlyOw\n      PUSH 1F\t\t\t mod\n      DUP3 \t\t\t {\\n\n      ADD \t\t\tount {\\n\\n  modi\n      AND \t\t\ttAccount {\\n\\n  modifier onlyO...\n      SWAP1 \t\t\tAbstractAccount {\\n\\n  modifie...\n      POP \t\t\tAbstractAccount {\\n\\n  modifie...\n      DUP1 \t\t\tdev\n      DUP4 \t\t\t(\\n    \n      ADD \t\t\tuire(\\n      devi\n      SWAP3 \t\t\t {\\n    require(\\n      devi\n      POP \t\t\t {\\n    require(\\n      devi\n      POP \t\t\tfunction isValidSignature(\\n  ...\n      POP \t\t\tfunction isValidSignature(\\n  ...\n      POP \t\t\tfunction isValidSignature(\\n  ...\n      POP \t\t\tfunction isValidSignature(\\n  ...\n      POP \t\t\tfunction isValidSignature(\\n  ...\n      POP \t\t\tfunction isValidSignature(\\n  ...\n      SWAP2 \t\t\tfunction isValidSignature(\\n  ...\n      SWAP3 \t\t\tfunction isValidSignature(\\n  ...\n      SWAP2 \t\t\tfunction isValidSignature(\\n  ...\n      SWAP3 \t\t\tfunction isValidSignature(\\n  ...\n      SWAP1 \t\t\tfunction isValidSignature(\\n  ...\n      DUP1 \t\t\tfunction isValidSignature(\\n  ...\n      CALLDATALOAD \t\t\tfunction isValidSignature(\\n  ...\n      SWAP1 \t\t\tfunction isValidSignature(\\n  ...\n      PUSH 20\t\t\tfunction isValidSignature(\\n  ...\n      ADD \t\t\tfunction isValidSignature(\\n  ...\n      SWAP1 \t\t\tfunction isValidSignature(\\n  ...\n      PUSH 100000000\t\t\t10;\\n\\nimport\n      DUP2 \t\t\tolidity ^0.\n      GT \t\t\ta solidity ^0.5.10;\\n\\nimport \n      ISZERO \t\t\tag\n      PUSH [tag] 19\t\t\tag\n      JUMPI \t\t\tag\n      PUSH 0\t\t\tc\n      DUP1 \t\t\tt\n      REVERT \t\t\tAbstractAcco\n    tag 19\t\t\tag\n      JUMPDEST \t\t\tag\n      DUP3 \t\t\tfunction isValidSignature(\\n  ...\n      ADD \t\t\tfunction isValidSignature(\\n  ...\n      DUP4 \t\t\t/Abstract\n      PUSH 20\t\t\tport\n      DUP3 \t\t\tity ^0.5.10;\\n\\n\n      ADD \t\t\tolidity ^0.5.10;\\n\\nimport \n      GT \t\t\ta solidity ^0.5.10;\\n\\nimport ...\n      ISZERO \t\t\tag\n      PUSH [tag] 20\t\t\tag\n      JUMPI \t\t\tag\n      PUSH 0\t\t\t\\n\n      DUP1 \t\t\t\"\n      REVERT \t\t\tunt.sol\";\\n\\n\\n\n    tag 20\t\t\tag\n      JUMPDEST \t\t\tag\n      DUP1 \t\t\tfunction isValidSignature(\\n  ...\n      CALLDATALOAD \t\t\tfunction isValidSignature(\\n  ...\n      SWAP1 \t\t\tfunction isValidSignature(\\n  ...\n      PUSH 20\t\t\tfunction isValidSignature(\\n  ...\n      ADD \t\t\tfunction isValidSignature(\\n  ...\n      SWAP2 \t\t\tfunction isValidSignature(\\n  ...\n      DUP5 \t\t\tnt is Abs\n      PUSH 1\t\t\tA\n      DUP4 \t\t\t\\n */\\ncontrac\n      MUL \t\t\tount\\n */\\ncontract Ac\n      DUP5 \t\t\t@title A\n      ADD \t\t\t\\n * @title Account\\n */\\ncont...\n      GT \t\t\t/**\\n * @title Account\\n */\\nc...\n      PUSH 100000000\t\t\ttractAccoun\n      DUP4 \t\t\t\\nimport \"./A\n      GT \t\t\t0;\\n\\nimport \"./AbstractAccoun...\n      OR \t\t\tdity ^0.5.10;\\n\\nimport \"./Abs...\n      ISZERO \t\t\tol\n      PUSH [tag] 21\t\t\tol\n      JUMPI \t\t\tol\n      PUSH 0\t\t\tf\n      DUP1 \t\t\to\n      REVERT \t\t\t {\\n\\n  modifi\n    tag 21\t\t\tol\n      JUMPDEST \t\t\tol\n      SWAP2 \t\t\tfunction isValidSignature(\\n  ...\n      SWAP1 \t\t\tfunction isValidSignature(\\n  ...\n      DUP1 \t\t\tfunction isValidSignature(\\n  ...\n      DUP1 \t\t\tfunction isValidSignature(\\n  ...\n      PUSH 1F\t\t\tfunction isValidSignature(\\n  ...\n      ADD \t\t\tfunction isValidSignature(\\n  ...\n      PUSH 20\t\t\tfunction isValidSignature(\\n  ...\n      DUP1 \t\t\tfunction isValidSignature(\\n  ...\n      SWAP2 \t\t\tfunction isValidSignature(\\n  ...\n      DIV \t\t\tfunction isValidSignature(\\n  ...\n      MUL \t\t\tfunction isValidSignature(\\n  ...\n      PUSH 20\t\t\tfunction isValidSignature(\\n  ...\n      ADD \t\t\tfunction isValidSignature(\\n  ...\n      PUSH 40\t\t\tfunction isValidSignature(\\n  ...\n      MLOAD \t\t\tfunction isValidSignature(\\n  ...\n      SWAP1 \t\t\tfunction isValidSignature(\\n  ...\n      DUP2 \t\t\tfunction isValidSignature(\\n  ...\n      ADD \t\t\tfunction isValidSignature(\\n  ...\n      PUSH 40\t\t\tfunction isValidSignature(\\n  ...\n      MSTORE \t\t\tfunction isValidSignature(\\n  ...\n      DUP1 \t\t\tfunction isValidSignature(\\n  ...\n      SWAP4 \t\t\tfunction isValidSignature(\\n  ...\n      SWAP3 \t\t\tfunction isValidSignature(\\n  ...\n      SWAP2 \t\t\tfunction isValidSignature(\\n  ...\n      SWAP1 \t\t\tfunction isValidSignature(\\n  ...\n      DUP2 \t\t\tfunction isValidSignature(\\n  ...\n      DUP2 \t\t\tfunction isValidSignature(\\n  ...\n      MSTORE \t\t\tfunction isValidSignature(\\n  ...\n      PUSH 20\t\t\tfunction isValidSignature(\\n  ...\n      ADD \t\t\tfunction isValidSignature(\\n  ...\n      DUP4 \t\t\tfunction isValidSignature(\\n  ...\n      DUP4 \t\t\tfunction isValidSignature(\\n  ...\n      DUP1 \t\t\trt \n      DUP3 \t\t\t0;\\n\\nim\n      DUP5 \t\t\ty ^0.5\n      CALLDATACOPY \t\t\tragma solidity ^0.5.10;\\n\\nimp...\n      PUSH 0\t\t\tu\n      DUP2 \t\t\tt A\n      DUP5 \t\t\t\\ncontr\n      ADD \t\t\t\\n */\\ncontract Ac\n      MSTORE \t\t\tAccount\\n */\\ncontract Accoun\n      PUSH 1F\t\t\tnlyO\n      NOT \t\t\ter onlyOw\n      PUSH 1F\t\t\t mod\n      DUP3 \t\t\t {\\n\n      ADD \t\t\tount {\\n\\n  modi\n      AND \t\t\ttAccount {\\n\\n  modifier onlyO...\n      SWAP1 \t\t\tAbstractAccount {\\n\\n  modifie...\n      POP \t\t\tAbstractAccount {\\n\\n  modifie...\n      DUP1 \t\t\tdev\n      DUP4 \t\t\t(\\n    \n      ADD \t\t\tuire(\\n      devi\n      SWAP3 \t\t\t {\\n    require(\\n      devi\n      POP \t\t\t {\\n    require(\\n      devi\n      POP \t\t\tfunction isValidSignature(\\n  ...\n      POP \t\t\tfunction isValidSignature(\\n  ...\n      POP \t\t\tfunction isValidSignature(\\n  ...\n      POP \t\t\tfunction isValidSignature(\\n  ...\n      POP \t\t\tfunction isValidSignature(\\n  ...\n      POP \t\t\tfunction isValidSignature(\\n  ...\n      SWAP2 \t\t\tfunction isValidSignature(\\n  ...\n      SWAP3 \t\t\tfunction isValidSignature(\\n  ...\n      SWAP2 \t\t\tfunction isValidSignature(\\n  ...\n      SWAP3 \t\t\tfunction isValidSignature(\\n  ...\n      SWAP1 \t\t\tfunction isValidSignature(\\n  ...\n      POP \t\t\tfunction isValidSignature(\\n  ...\n      POP \t\t\tfunction isValidSignature(\\n  ...\n      POP \t\t\tfunction isValidSignature(\\n  ...\n      PUSH [tag] 22\t\t\tfunction isValidSignature(\\n  ...\n      JUMP [in]\t\t\tfunction isValidSignature(\\n  ...\n    tag 14\t\t\tfunction isValidSignature(\\n  ...\n      JUMPDEST \t\t\tfunction isValidSignature(\\n  ...\n      PUSH 40\t\t\tfunction isValidSignature(\\n  ...\n      MLOAD \t\t\tfunction isValidSignature(\\n  ...\n      DUP1 \t\t\tfunction isValidSignature(\\n  ...\n      DUP3 \t\t\tfunction isValidSignature(\\n  ...\n      PUSH FFFFFFFFFFFFFFFFFFFFFFFFFFFFFFFFFFFFFFFFFFFFFFFFFFFFFFFF\t\t\tfunction isValidSignature(\\n  ...\n      NOT \t\t\tfunction isValidSignature(\\n  ...\n      AND \t\t\tfunction isValidSignature(\\n  ...\n      PUSH FFFFFFFFFFFFFFFFFFFFFFFFFFFFFFFFFFFFFFFFFFFFFFFFFFFFFFFF\t\t\tfunction isValidSignature(\\n  ...\n      NOT \t\t\tfunction isValidSignature(\\n  ...\n      AND \t\t\tfunction isValidSignature(\\n  ...\n      DUP2 \t\t\tfunction isValidSignature(\\n  ...\n      MSTORE \t\t\tfunction isValidSignature(\\n  ...\n      PUSH 20\t\t\tfunction isValidSignature(\\n  ...\n      ADD \t\t\tfunction isValidSignature(\\n  ...\n      SWAP2 \t\t\tfunction isValidSignature(\\n  ...\n      POP \t\t\tfunction isValidSignature(\\n  ...\n      POP \t\t\tfunction isValidSignature(\\n  ...\n      PUSH 40\t\t\tfunction isValidSignature(\\n  ...\n      MLOAD \t\t\tfunction isValidSignature(\\n  ...\n      DUP1 \t\t\tfunction isValidSignature(\\n  ...\n      SWAP2 \t\t\tfunction isValidSignature(\\n  ...\n      SUB \t\t\tfunction isValidSignature(\\n  ...\n      SWAP1 \t\t\tfunction isValidSignature(\\n  ...\n      RETURN \t\t\tfunction isValidSignature(\\n  ...\n    tag 4\t\t\tfunction executeTransaction(ad...\n      JUMPDEST \t\t\tfunction executeTransaction(ad...\n      CALLVALUE \t\t\tfunction executeTransaction(ad...\n      DUP1 \t\t\tolidity ^\n      ISZERO \t\t\ta \n      PUSH [tag] 23\t\t\ta \n      JUMPI \t\t\ta \n      PUSH 0\t\t\tr\n      DUP1 \t\t\tm\n      REVERT \t\t\t.10;\\n\\nimport\n    tag 23\t\t\ta \n      JUMPDEST \t\t\ta \n      POP \t\t\tfunction executeTransaction(ad...\n      PUSH [tag] 24\t\t\tfunction executeTransaction(ad...\n      PUSH 4\t\t\tfunction executeTransaction(ad...\n      DUP1 \t\t\tfunction executeTransaction(ad...\n      CALLDATASIZE \t\t\tfunction executeTransaction(ad...\n      SUB \t\t\tfunction executeTransaction(ad...\n      PUSH 60\t\t\tty\n      DUP2 \t\t\toli\n      LT \t\t\ta solidity \n      ISZERO \t\t\tag\n      PUSH [tag] 25\t\t\tag\n      JUMPI \t\t\tag\n      PUSH 0\t\t\to\n      DUP1 \t\t\ti\n      REVERT \t\t\t5.10;\\n\\nimpor\n    tag 25\t\t\tag\n      JUMPDEST \t\t\tag\n      DUP2 \t\t\tfunction executeTransaction(ad...\n      ADD \t\t\tfunction executeTransaction(ad...\n      SWAP1 \t\t\tfunction executeTransaction(ad...\n      DUP1 \t\t\tfunction executeTransaction(ad...\n      DUP1 \t\t\tfunction executeTransaction(ad...\n      CALLDATALOAD \t\t\tfunction executeTransaction(ad...\n      PUSH FFFFFFFFFFFFFFFFFFFFFFFFFFFFFFFFFFFFFFFF\t\t\tfunction executeTransaction(ad...\n      AND \t\t\tfunction executeTransaction(ad...\n      SWAP1 \t\t\tfunction executeTransaction(ad...\n      PUSH 20\t\t\tfunction executeTransaction(ad...\n      ADD \t\t\tfunction executeTransaction(ad...\n      SWAP1 \t\t\tfunction executeTransaction(ad...\n      SWAP3 \t\t\tfunction executeTransaction(ad...\n      SWAP2 \t\t\tfunction executeTransaction(ad...\n      SWAP1 \t\t\tfunction executeTransaction(ad...\n      DUP1 \t\t\tfunction executeTransaction(ad...\n      CALLDATALOAD \t\t\tfunction executeTransaction(ad...\n      SWAP1 \t\t\tfunction executeTransaction(ad...\n      PUSH 20\t\t\tfunction executeTransaction(ad...\n      ADD \t\t\tfunction executeTransaction(ad...\n      SWAP1 \t\t\tfunction executeTransaction(ad...\n      SWAP3 \t\t\tfunction executeTransaction(ad...\n      SWAP2 \t\t\tfunction executeTransaction(ad...\n      SWAP1 \t\t\tfunction executeTransaction(ad...\n      DUP1 \t\t\tfunction executeTransaction(ad...\n      CALLDATALOAD \t\t\tfunction executeTransaction(ad...\n      SWAP1 \t\t\tfunction executeTransaction(ad...\n      PUSH 20\t\t\tfunction executeTransaction(ad...\n      ADD \t\t\tfunction executeTransaction(ad...\n      SWAP1 \t\t\tfunction executeTransaction(ad...\n      PUSH 100000000\t\t\t10;\\n\\nimport\n      DUP2 \t\t\tolidity ^0.\n      GT \t\t\ta solidity ^0.5.10;\\n\\nimport \n      ISZERO \t\t\tag\n      PUSH [tag] 26\t\t\tag\n      JUMPI \t\t\tag\n      PUSH 0\t\t\tc\n      DUP1 \t\t\tt\n      REVERT \t\t\tAbstractAcco\n    tag 26\t\t\tag\n      JUMPDEST \t\t\tag\n      DUP3 \t\t\tfunction executeTransaction(ad...\n      ADD \t\t\tfunction executeTransaction(ad...\n      DUP4 \t\t\t/Abstract\n      PUSH 20\t\t\tport\n      DUP3 \t\t\tity ^0.5.10;\\n\\n\n      ADD \t\t\tolidity ^0.5.10;\\n\\nimport \n      GT \t\t\ta solidity ^0.5.10;\\n\\nimport ...\n      ISZERO \t\t\tag\n      PUSH [tag] 27\t\t\tag\n      JUMPI \t\t\tag\n      PUSH 0\t\t\t\\n\n      DUP1 \t\t\t\"\n      REVERT \t\t\tunt.sol\";\\n\\n\\n\n    tag 27\t\t\tag\n      JUMPDEST \t\t\tag\n      DUP1 \t\t\tfunction executeTransaction(ad...\n      CALLDATALOAD \t\t\tfunction executeTransaction(ad...\n      SWAP1 \t\t\tfunction executeTransaction(ad...\n      PUSH 20\t\t\tfunction executeTransaction(ad...\n      ADD \t\t\tfunction executeTransaction(ad...\n      SWAP2 \t\t\tfunction executeTransaction(ad...\n      DUP5 \t\t\tnt is Abs\n      PUSH 1\t\t\tA\n      DUP4 \t\t\t\\n */\\ncontrac\n      MUL \t\t\tount\\n */\\ncontract Ac\n      DUP5 \t\t\t@title A\n      ADD \t\t\t\\n * @title Account\\n */\\ncont...\n      GT \t\t\t/**\\n * @title Account\\n */\\nc...\n      PUSH 100000000\t\t\ttractAccoun\n      DUP4 \t\t\t\\nimport \"./A\n      GT \t\t\t0;\\n\\nimport \"./AbstractAccoun...\n      OR \t\t\tdity ^0.5.10;\\n\\nimport \"./Abs...\n      ISZERO \t\t\tol\n      PUSH [tag] 28\t\t\tol\n      JUMPI \t\t\tol\n      PUSH 0\t\t\tf\n      DUP1 \t\t\to\n      REVERT \t\t\t {\\n\\n  modifi\n    tag 28\t\t\tol\n      JUMPDEST \t\t\tol\n      SWAP2 \t\t\tfunction executeTransaction(ad...\n      SWAP1 \t\t\tfunction executeTransaction(ad...\n      DUP1 \t\t\tfunction executeTransaction(ad...\n      DUP1 \t\t\tfunction executeTransaction(ad...\n      PUSH 1F\t\t\tfunction executeTransaction(ad...\n      ADD \t\t\tfunction executeTransaction(ad...\n      PUSH 20\t\t\tfunction executeTransaction(ad...\n      DUP1 \t\t\tfunction executeTransaction(ad...\n      SWAP2 \t\t\tfunction executeTransaction(ad...\n      DIV \t\t\tfunction executeTransaction(ad...\n      MUL \t\t\tfunction executeTransaction(ad...\n      PUSH 20\t\t\tfunction executeTransaction(ad...\n      ADD \t\t\tfunction executeTransaction(ad...\n      PUSH 40\t\t\tfunction executeTransaction(ad...\n      MLOAD \t\t\tfunction executeTransaction(ad...\n      SWAP1 \t\t\tfunction executeTransaction(ad...\n      DUP2 \t\t\tfunction executeTransaction(ad...\n      ADD \t\t\tfunction executeTransaction(ad...\n      PUSH 40\t\t\tfunction executeTransaction(ad...\n      MSTORE \t\t\tfunction executeTransaction(ad...\n      DUP1 \t\t\tfunction executeTransaction(ad...\n      SWAP4 \t\t\tfunction executeTransaction(ad...\n      SWAP3 \t\t\tfunction executeTransaction(ad...\n      SWAP2 \t\t\tfunction executeTransaction(ad...\n      SWAP1 \t\t\tfunction executeTransaction(ad...\n      DUP2 \t\t\tfunction executeTransaction(ad...\n      DUP2 \t\t\tfunction executeTransaction(ad...\n      MSTORE \t\t\tfunction executeTransaction(ad...\n      PUSH 20\t\t\tfunction executeTransaction(ad...\n      ADD \t\t\tfunction executeTransaction(ad...\n      DUP4 \t\t\tfunction executeTransaction(ad...\n      DUP4 \t\t\tfunction executeTransaction(ad...\n      DUP1 \t\t\trt \n      DUP3 \t\t\t0;\\n\\nim\n      DUP5 \t\t\ty ^0.5\n      CALLDATACOPY \t\t\tragma solidity ^0.5.10;\\n\\nimp...\n      PUSH 0\t\t\tu\n      DUP2 \t\t\tt A\n      DUP5 \t\t\t\\ncontr\n      ADD \t\t\t\\n */\\ncontract Ac\n      MSTORE \t\t\tAccount\\n */\\ncontract Accoun\n      PUSH 1F\t\t\tnlyO\n      NOT \t\t\ter onlyOw\n      PUSH 1F\t\t\t mod\n      DUP3 \t\t\t {\\n\n      ADD \t\t\tount {\\n\\n  modi\n      AND \t\t\ttAccount {\\n\\n  modifier onlyO...\n      SWAP1 \t\t\tAbstractAccount {\\n\\n  modifie...\n      POP \t\t\tAbstractAccount {\\n\\n  modifie...\n      DUP1 \t\t\tdev\n      DUP4 \t\t\t(\\n    \n      ADD \t\t\tuire(\\n      devi\n      SWAP3 \t\t\t {\\n    require(\\n      devi\n      POP \t\t\t {\\n    require(\\n      devi\n      POP \t\t\tfunction executeTransaction(ad...\n      POP \t\t\tfunction executeTransaction(ad...\n      POP \t\t\tfunction executeTransaction(ad...\n      POP \t\t\tfunction executeTransaction(ad...\n      POP \t\t\tfunction executeTransaction(ad...\n      POP \t\t\tfunction executeTransaction(ad...\n      SWAP2 \t\t\tfunction executeTransaction(ad...\n      SWAP3 \t\t\tfunction executeTransaction(ad...\n      SWAP2 \t\t\tfunction executeTransaction(ad...\n      SWAP3 \t\t\tfunction executeTransaction(ad...\n      SWAP1 \t\t\tfunction executeTransaction(ad...\n      POP \t\t\tfunction executeTransaction(ad...\n      POP \t\t\tfunction executeTransaction(ad...\n      POP \t\t\tfunction executeTransaction(ad...\n      PUSH [tag] 29\t\t\tfunction executeTransaction(ad...\n      JUMP [in]\t\t\tfunction executeTransaction(ad...\n    tag 24\t\t\tfunction executeTransaction(ad...\n      JUMPDEST \t\t\tfunction executeTransaction(ad...\n      PUSH 40\t\t\tfunction executeTransaction(ad...\n      MLOAD \t\t\tfunction executeTransaction(ad...\n      DUP1 \t\t\tfunction executeTransaction(ad...\n      DUP1 \t\t\tfunction executeTransaction(ad...\n      PUSH 20\t\t\tfunction executeTransaction(ad...\n      ADD \t\t\tfunction executeTransaction(ad...\n      DUP3 \t\t\tfunction executeTransaction(ad...\n      DUP2 \t\t\tfunction executeTransaction(ad...\n      SUB \t\t\tfunction executeTransaction(ad...\n      DUP3 \t\t\tfunction executeTransaction(ad...\n      MSTORE \t\t\tfunction executeTransaction(ad...\n      DUP4 \t\t\tfunction executeTransaction(ad...\n      DUP2 \t\t\tfunction executeTransaction(ad...\n      DUP2 \t\t\tfunction executeTransaction(ad...\n      MLOAD \t\t\tfunction executeTransaction(ad...\n      DUP2 \t\t\tfunction executeTransaction(ad...\n      MSTORE \t\t\tfunction executeTransaction(ad...\n      PUSH 20\t\t\tfunction executeTransaction(ad...\n      ADD \t\t\tfunction executeTransaction(ad...\n      SWAP2 \t\t\tfunction executeTransaction(ad...\n      POP \t\t\tfunction executeTransaction(ad...\n      DUP1 \t\t\tfunction executeTransaction(ad...\n      MLOAD \t\t\tfunction executeTransaction(ad...\n      SWAP1 \t\t\tfunction executeTransaction(ad...\n      PUSH 20\t\t\tfunction executeTransaction(ad...\n      ADD \t\t\tfunction executeTransaction(ad...\n      SWAP1 \t\t\tfunction executeTransaction(ad...\n      DUP1 \t\t\tfunction executeTransaction(ad...\n      DUP4 \t\t\tfunction executeTransaction(ad...\n      DUP4 \t\t\tfunction executeTransaction(ad...\n      PUSH 0\t\t\t;\n    tag 30\t\t\tolidity ^0.5.10;\\n\\nimport \"./...\n      JUMPDEST \t\t\tolidity ^0.5.10;\\n\\nimport \"./...\n      DUP4 \t\t\t\"./\n      DUP2 \t\t\tr\n      LT \t\t\tmport \"./A\n      ISZERO \t\t\tolidity ^0.5.10;\\n\\nimport \"./...\n      PUSH [tag] 32\t\t\tolidity ^0.5.10;\\n\\nimport \"./...\n      JUMPI \t\t\tolidity ^0.5.10;\\n\\nimport \"./...\n      DUP1 \t\t\tu\n      DUP3 \t\t\t Ac\n      ADD \t\t\tract Accoun\n      MLOAD \t\t\t/\\ncontract Account\n      DUP2 \t\t\tt\n      DUP5 \t\t\tcco\n      ADD \t\t\tle Account\\n\n      MSTORE \t\t\t * @title Account\\n */\\ncontra...\n      PUSH 20\t\t\tso\n      DUP2 \t\t\tn\n      ADD \t\t\tccount.sol\n      SWAP1 \t\t\tractAccount.sol\n      POP \t\t\tractAccount.sol\n      PUSH [tag] 30\t\t\tolidity ^0.5.10;\\n\\nimport \"./...\n      JUMP \t\t\tolidity ^0.5.10;\\n\\nimport \"./...\n    tag 32\t\t\tolidity ^0.5.10;\\n\\nimport \"./...\n      JUMPDEST \t\t\tolidity ^0.5.10;\\n\\nimport \"./...\n      POP \t\t\tity ^0.5.10;\\n\\n\n      POP \t\t\tfunction executeTransaction(ad...\n      POP \t\t\tfunction executeTransaction(ad...\n      POP \t\t\tfunction executeTransaction(ad...\n      SWAP1 \t\t\tfunction executeTransaction(ad...\n      POP \t\t\tfunction executeTransaction(ad...\n      SWAP1 \t\t\tfunction executeTransaction(ad...\n      DUP2 \t\t\tfunction executeTransaction(ad...\n      ADD \t\t\tfunction executeTransaction(ad...\n      SWAP1 \t\t\tfunction executeTransaction(ad...\n      PUSH 1F\t\t\tfunction executeTransaction(ad...\n      AND \t\t\tfunction executeTransaction(ad...\n      DUP1 \t\t\tfunction executeTransaction(ad...\n      ISZERO \t\t\tfunction executeTransaction(ad...\n      PUSH [tag] 33\t\t\tfunction executeTransaction(ad...\n      JUMPI \t\t\tfunction executeTransaction(ad...\n      DUP1 \t\t\tfunction executeTransaction(ad...\n      DUP3 \t\t\tfunction executeTransaction(ad...\n      SUB \t\t\tfunction executeTransaction(ad...\n      DUP1 \t\t\tfunction executeTransaction(ad...\n      MLOAD \t\t\tfunction executeTransaction(ad...\n      PUSH 1\t\t\tfunction executeTransaction(ad...\n      DUP4 \t\t\tfunction executeTransaction(ad...\n      PUSH 20\t\t\tfunction executeTransaction(ad...\n      SUB \t\t\tfunction executeTransaction(ad...\n      PUSH 100\t\t\tfunction executeTransaction(ad...\n      EXP \t\t\tfunction executeTransaction(ad...\n      SUB \t\t\tfunction executeTransaction(ad...\n      NOT \t\t\tfunction executeTransaction(ad...\n      AND \t\t\tfunction executeTransaction(ad...\n      DUP2 \t\t\tfunction executeTransaction(ad...\n      MSTORE \t\t\tfunction executeTransaction(ad...\n      PUSH 20\t\t\tfunction executeTransaction(ad...\n      ADD \t\t\tfunction executeTransaction(ad...\n      SWAP2 \t\t\tfunction executeTransaction(ad...\n      POP \t\t\tfunction executeTransaction(ad...\n    tag 33\t\t\tfunction executeTransaction(ad...\n      JUMPDEST \t\t\tfunction executeTransaction(ad...\n      POP \t\t\tfunction executeTransaction(ad...\n      SWAP3 \t\t\tfunction executeTransaction(ad...\n      POP \t\t\tfunction executeTransaction(ad...\n      POP \t\t\tfunction executeTransaction(ad...\n      POP \t\t\tfunction executeTransaction(ad...\n      PUSH 40\t\t\tfunction executeTransaction(ad...\n      MLOAD \t\t\tfunction executeTransaction(ad...\n      DUP1 \t\t\tfunction executeTransaction(ad...\n      SWAP2 \t\t\tfunction executeTransaction(ad...\n      SUB \t\t\tfunction executeTransaction(ad...\n      SWAP1 \t\t\tfunction executeTransaction(ad...\n      RETURN \t\t\tfunction executeTransaction(ad...\n    tag 5\t\t\tfunction addDevice(address _de...\n      JUMPDEST \t\t\tfunction addDevice(address _de...\n      CALLVALUE \t\t\tfunction addDevice(address _de...\n      DUP1 \t\t\tolidity ^\n      ISZERO \t\t\ta \n      PUSH [tag] 34\t\t\ta \n      JUMPI \t\t\ta \n      PUSH 0\t\t\tr\n      DUP1 \t\t\tm\n      REVERT \t\t\t.10;\\n\\nimport\n    tag 34\t\t\ta \n      JUMPDEST \t\t\ta \n      POP \t\t\tfunction addDevice(address _de...\n      PUSH [tag] 35\t\t\tfunction addDevice(address _de...\n      PUSH 4\t\t\tfunction addDevice(address _de...\n      DUP1 \t\t\tfunction addDevice(address _de...\n      CALLDATASIZE \t\t\tfunction addDevice(address _de...\n      SUB \t\t\tfunction addDevice(address _de...\n      PUSH 40\t\t\tty\n      DUP2 \t\t\toli\n      LT \t\t\ta solidity \n      ISZERO \t\t\tag\n      PUSH [tag] 36\t\t\tag\n      JUMPI \t\t\tag\n      PUSH 0\t\t\to\n      DUP1 \t\t\ti\n      REVERT \t\t\t5.10;\\n\\nimpor\n    tag 36\t\t\tag\n      JUMPDEST \t\t\tag\n      DUP2 \t\t\tfunction addDevice(address _de...\n      ADD \t\t\tfunction addDevice(address _de...\n      SWAP1 \t\t\tfunction addDevice(address _de...\n      DUP1 \t\t\tfunction addDevice(address _de...\n      DUP1 \t\t\tfunction addDevice(address _de...\n      CALLDATALOAD \t\t\tfunction addDevice(address _de...\n      PUSH FFFFFFFFFFFFFFFFFFFFFFFFFFFFFFFFFFFFFFFF\t\t\tfunction addDevice(address _de...\n      AND \t\t\tfunction addDevice(address _de...\n      SWAP1 \t\t\tfunction addDevice(address _de...\n      PUSH 20\t\t\tfunction addDevice(address _de...\n      ADD \t\t\tfunction addDevice(address _de...\n      SWAP1 \t\t\tfunction addDevice(address _de...\n      SWAP3 \t\t\tfunction addDevice(address _de...\n      SWAP2 \t\t\tfunction addDevice(address _de...\n      SWAP1 \t\t\tfunction addDevice(address _de...\n      DUP1 \t\t\tfunction addDevice(address _de...\n      CALLDATALOAD \t\t\tfunction addDevice(address _de...\n      ISZERO \t\t\tfunction addDevice(address _de...\n      ISZERO \t\t\tfunction addDevice(address _de...\n      SWAP1 \t\t\tfunction addDevice(address _de...\n      PUSH 20\t\t\tfunction addDevice(address _de...\n      ADD \t\t\tfunction addDevice(address _de...\n      SWAP1 \t\t\tfunction addDevice(address _de...\n      SWAP3 \t\t\tfunction addDevice(address _de...\n      SWAP2 \t\t\tfunction addDevice(address _de...\n      SWAP1 \t\t\tfunction addDevice(address _de...\n      POP \t\t\tfunction addDevice(address _de...\n      POP \t\t\tfunction addDevice(address _de...\n      POP \t\t\tfunction addDevice(address _de...\n      PUSH [tag] 37\t\t\tfunction addDevice(address _de...\n      JUMP [in]\t\t\tfunction addDevice(address _de...\n    tag 35\t\t\tfunction addDevice(address _de...\n      JUMPDEST \t\t\tfunction addDevice(address _de...\n      STOP \t\t\tfunction addDevice(address _de...\n    tag 6\t\t\tl payable {\\n    //\\n  }\\n\\n  ...\n      JUMPDEST \t\t\tl payable {\\n    //\\n  }\\n\\n  ...\n      CALLVALUE \t\t\tl payable {\\n    //\\n  }\\n\\n  ...\n      DUP1 \t\t\tolidity ^\n      ISZERO \t\t\ta \n      PUSH [tag] 38\t\t\ta \n      JUMPI \t\t\ta \n      PUSH 0\t\t\tr\n      DUP1 \t\t\tm\n      REVERT \t\t\t.10;\\n\\nimport\n    tag 38\t\t\ta \n      JUMPDEST \t\t\ta \n      POP \t\t\tl payable {\\n    //\\n  }\\n\\n  ...\n      PUSH [tag] 39\t\t\tl payable {\\n    //\\n  }\\n\\n  ...\n      PUSH 4\t\t\tl payable {\\n    //\\n  }\\n\\n  ...\n      DUP1 \t\t\tl payable {\\n    //\\n  }\\n\\n  ...\n      CALLDATASIZE \t\t\tl payable {\\n    //\\n  }\\n\\n  ...\n      SUB \t\t\tl payable {\\n    //\\n  }\\n\\n  ...\n      PUSH 20\t\t\tty\n      DUP2 \t\t\toli\n      LT \t\t\ta solidity \n      ISZERO \t\t\tag\n      PUSH [tag] 40\t\t\tag\n      JUMPI \t\t\tag\n      PUSH 0\t\t\to\n      DUP1 \t\t\ti\n      REVERT \t\t\t5.10;\\n\\nimpor\n    tag 40\t\t\tag\n      JUMPDEST \t\t\tag\n      DUP2 \t\t\tl payable {\\n    //\\n  }\\n\\n  ...\n      ADD \t\t\tl payable {\\n    //\\n  }\\n\\n  ...\n      SWAP1 \t\t\tl payable {\\n    //\\n  }\\n\\n  ...\n      DUP1 \t\t\tl payable {\\n    //\\n  }\\n\\n  ...\n      DUP1 \t\t\tl payable {\\n    //\\n  }\\n\\n  ...\n      CALLDATALOAD \t\t\tl payable {\\n    //\\n  }\\n\\n  ...\n      PUSH FFFFFFFFFFFFFFFFFFFFFFFFFFFFFFFFFFFFFFFF\t\t\tl payable {\\n    //\\n  }\\n\\n  ...\n      AND \t\t\tl payable {\\n    //\\n  }\\n\\n  ...\n      SWAP1 \t\t\tl payable {\\n    //\\n  }\\n\\n  ...\n      PUSH 20\t\t\tl payable {\\n    //\\n  }\\n\\n  ...\n      ADD \t\t\tl payable {\\n    //\\n  }\\n\\n  ...\n      SWAP1 \t\t\tl payable {\\n    //\\n  }\\n\\n  ...\n      SWAP3 \t\t\tl payable {\\n    //\\n  }\\n\\n  ...\n      SWAP2 \t\t\tl payable {\\n    //\\n  }\\n\\n  ...\n      SWAP1 \t\t\tl payable {\\n    //\\n  }\\n\\n  ...\n      POP \t\t\tl payable {\\n    //\\n  }\\n\\n  ...\n      POP \t\t\tl payable {\\n    //\\n  }\\n\\n  ...\n      POP \t\t\tl payable {\\n    //\\n  }\\n\\n  ...\n      PUSH [tag] 41\t\t\tl payable {\\n    //\\n  }\\n\\n  ...\n      JUMP [in]\t\t\tl payable {\\n    //\\n  }\\n\\n  ...\n    tag 39\t\t\tl payable {\\n    //\\n  }\\n\\n  ...\n      JUMPDEST \t\t\tl payable {\\n    //\\n  }\\n\\n  ...\n      PUSH 40\t\t\tl payable {\\n    //\\n  }\\n\\n  ...\n      MLOAD \t\t\tl payable {\\n    //\\n  }\\n\\n  ...\n      DUP1 \t\t\tl payable {\\n    //\\n  }\\n\\n  ...\n      DUP5 \t\t\tl payable {\\n    //\\n  }\\n\\n  ...\n      ISZERO \t\t\tl payable {\\n    //\\n  }\\n\\n  ...\n      ISZERO \t\t\tl payable {\\n    //\\n  }\\n\\n  ...\n      ISZERO \t\t\tl payable {\\n    //\\n  }\\n\\n  ...\n      ISZERO \t\t\tl payable {\\n    //\\n  }\\n\\n  ...\n      DUP2 \t\t\tl payable {\\n    //\\n  }\\n\\n  ...\n      MSTORE \t\t\tl payable {\\n    //\\n  }\\n\\n  ...\n      PUSH 20\t\t\tl payable {\\n    //\\n  }\\n\\n  ...\n      ADD \t\t\tl payable {\\n    //\\n  }\\n\\n  ...\n      DUP4 \t\t\tl payable {\\n    //\\n  }\\n\\n  ...\n      ISZERO \t\t\tl payable {\\n    //\\n  }\\n\\n  ...\n      ISZERO \t\t\tl payable {\\n    //\\n  }\\n\\n  ...\n      ISZERO \t\t\tl payable {\\n    //\\n  }\\n\\n  ...\n      ISZERO \t\t\tl payable {\\n    //\\n  }\\n\\n  ...\n      DUP2 \t\t\tl payable {\\n    //\\n  }\\n\\n  ...\n      MSTORE \t\t\tl payable {\\n    //\\n  }\\n\\n  ...\n      PUSH 20\t\t\tl payable {\\n    //\\n  }\\n\\n  ...\n      ADD \t\t\tl payable {\\n    //\\n  }\\n\\n  ...\n      DUP3 \t\t\tl payable {\\n    //\\n  }\\n\\n  ...\n      ISZERO \t\t\tl payable {\\n    //\\n  }\\n\\n  ...\n      ISZERO \t\t\tl payable {\\n    //\\n  }\\n\\n  ...\n      ISZERO \t\t\tl payable {\\n    //\\n  }\\n\\n  ...\n      ISZERO \t\t\tl payable {\\n    //\\n  }\\n\\n  ...\n      DUP2 \t\t\tl payable {\\n    //\\n  }\\n\\n  ...\n      MSTORE \t\t\tl payable {\\n    //\\n  }\\n\\n  ...\n      PUSH 20\t\t\tl payable {\\n    //\\n  }\\n\\n  ...\n      ADD \t\t\tl payable {\\n    //\\n  }\\n\\n  ...\n      SWAP4 \t\t\tl payable {\\n    //\\n  }\\n\\n  ...\n      POP \t\t\tl payable {\\n    //\\n  }\\n\\n  ...\n      POP \t\t\tl payable {\\n    //\\n  }\\n\\n  ...\n      POP \t\t\tl payable {\\n    //\\n  }\\n\\n  ...\n      POP \t\t\tl payable {\\n    //\\n  }\\n\\n  ...\n      PUSH 40\t\t\tl payable {\\n    //\\n  }\\n\\n  ...\n      MLOAD \t\t\tl payable {\\n    //\\n  }\\n\\n  ...\n      DUP1 \t\t\tl payable {\\n    //\\n  }\\n\\n  ...\n      SWAP2 \t\t\tl payable {\\n    //\\n  }\\n\\n  ...\n      SUB \t\t\tl payable {\\n    //\\n  }\\n\\n  ...\n      SWAP1 \t\t\tl payable {\\n    //\\n  }\\n\\n  ...\n      RETURN \t\t\tl payable {\\n    //\\n  }\\n\\n  ...\n    tag 12\t\t\tfunction removeDevice(address ...\n      JUMPDEST \t\t\tfunction removeDevice(address ...\n      PUSH 0\t\t\tdevices\n      DUP1 \t\t\tdevices[msg.sender]\n      CALLER \t\t\tmsg.sender\n      PUSH FFFFFFFFFFFFFFFFFFFFFFFFFFFFFFFFFFFFFFFF\t\t\tdevices[msg.sender]\n      AND \t\t\tdevices[msg.sender]\n      PUSH FFFFFFFFFFFFFFFFFFFFFFFFFFFFFFFFFFFFFFFF\t\t\tdevices[msg.sender]\n      AND \t\t\tdevices[msg.sender]\n      DUP2 \t\t\tdevices[msg.sender]\n      MSTORE \t\t\tdevices[msg.sender]\n      PUSH 20\t\t\tdevices[msg.sender]\n      ADD \t\t\tdevices[msg.sender]\n      SWAP1 \t\t\tdevices[msg.sender]\n      DUP2 \t\t\tdevices[msg.sender]\n      MSTORE \t\t\tdevices[msg.sender]\n      PUSH 20\t\t\tdevices[msg.sender]\n      ADD \t\t\tdevices[msg.sender]\n      PUSH 0\t\t\tdevices[msg.sender]\n      KECCAK256 \t\t\tdevices[msg.sender]\n      PUSH 0\t\t\tdevices[msg.sender].isOwner\n      ADD \t\t\tdevices[msg.sender].isOwner\n      PUSH 0\t\t\tdevices[msg.sender].isOwner\n      SWAP1 \t\t\tdevices[msg.sender].isOwner\n      SLOAD \t\t\tdevices[msg.sender].isOwner\n      SWAP1 \t\t\tdevices[msg.sender].isOwner\n      PUSH 100\t\t\tdevices[msg.sender].isOwner\n      EXP \t\t\tdevices[msg.sender].isOwner\n      SWAP1 \t\t\tdevices[msg.sender].isOwner\n      DIV \t\t\tdevices[msg.sender].isOwner\n      PUSH FF\t\t\tdevices[msg.sender].isOwner\n      AND \t\t\tdevices[msg.sender].isOwner\n      PUSH [tag] 43\t\t\trequire(\\n      devices[msg.se...\n      JUMPI \t\t\trequire(\\n      devices[msg.se...\n      PUSH 0\t\t\trequire(\\n      devices[msg.se...\n      DUP1 \t\t\trequire(\\n      devices[msg.se...\n      REVERT \t\t\trequire(\\n      devices[msg.se...\n    tag 43\t\t\trequire(\\n      devices[msg.se...\n      JUMPDEST \t\t\trequire(\\n      devices[msg.se...\n      PUSH 0\t\t\tdevices\n      DUP1 \t\t\tdevices[_device]\n      DUP3 \t\t\t_device\n      PUSH FFFFFFFFFFFFFFFFFFFFFFFFFFFFFFFFFFFFFFFF\t\t\tdevices[_device]\n      AND \t\t\tdevices[_device]\n      PUSH FFFFFFFFFFFFFFFFFFFFFFFFFFFFFFFFFFFFFFFF\t\t\tdevices[_device]\n      AND \t\t\tdevices[_device]\n      DUP2 \t\t\tdevices[_device]\n      MSTORE \t\t\tdevices[_device]\n      PUSH 20\t\t\tdevices[_device]\n      ADD \t\t\tdevices[_device]\n      SWAP1 \t\t\tdevices[_device]\n      DUP2 \t\t\tdevices[_device]\n      MSTORE \t\t\tdevices[_device]\n      PUSH 20\t\t\tdevices[_device]\n      ADD \t\t\tdevices[_device]\n      PUSH 0\t\t\tdevices[_device]\n      KECCAK256 \t\t\tdevices[_device]\n      PUSH 0\t\t\tdevices[_device].exists\n      ADD \t\t\tdevices[_device].exists\n      PUSH 1\t\t\tdevices[_device].exists\n      SWAP1 \t\t\tdevices[_device].exists\n      SLOAD \t\t\tdevices[_device].exists\n      SWAP1 \t\t\tdevices[_device].exists\n      PUSH 100\t\t\tdevices[_device].exists\n      EXP \t\t\tdevices[_device].exists\n      SWAP1 \t\t\tdevices[_device].exists\n      DIV \t\t\tdevices[_device].exists\n      PUSH FF\t\t\tdevices[_device].exists\n      AND \t\t\tdevices[_device].exists\n      PUSH [tag] 45\t\t\trequire(\\n      devices[_devic...\n      JUMPI \t\t\trequire(\\n      devices[_devic...\n      PUSH 0\t\t\trequire(\\n      devices[_devic...\n      DUP1 \t\t\trequire(\\n      devices[_devic...\n      REVERT \t\t\trequire(\\n      devices[_devic...\n    tag 45\t\t\trequire(\\n      devices[_devic...\n      JUMPDEST \t\t\trequire(\\n      devices[_devic...\n      PUSH 0\t\t\tfalse\n      DUP1 \t\t\tdevices\n      PUSH 0\t\t\tdevices[_device]\n      DUP4 \t\t\t_device\n      PUSH FFFFFFFFFFFFFFFFFFFFFFFFFFFFFFFFFFFFFFFF\t\t\tdevices[_device]\n      AND \t\t\tdevices[_device]\n      PUSH FFFFFFFFFFFFFFFFFFFFFFFFFFFFFFFFFFFFFFFF\t\t\tdevices[_device]\n      AND \t\t\tdevices[_device]\n      DUP2 \t\t\tdevices[_device]\n      MSTORE \t\t\tdevices[_device]\n      PUSH 20\t\t\tdevices[_device]\n      ADD \t\t\tdevices[_device]\n      SWAP1 \t\t\tdevices[_device]\n      DUP2 \t\t\tdevices[_device]\n      MSTORE \t\t\tdevices[_device]\n      PUSH 20\t\t\tdevices[_device]\n      ADD \t\t\tdevices[_device]\n      PUSH 0\t\t\tdevices[_device]\n      KECCAK256 \t\t\tdevices[_device]\n      PUSH 0\t\t\tdevices[_device].isOwner\n      ADD \t\t\tdevices[_device].isOwner\n      PUSH 0\t\t\tdevices[_device].isOwner\n      PUSH 100\t\t\tdevices[_device].isOwner = fal...\n      EXP \t\t\tdevices[_device].isOwner = fal...\n      DUP2 \t\t\tdevices[_device].isOwner = fal...\n      SLOAD \t\t\tdevices[_device].isOwner = fal...\n      DUP2 \t\t\tdevices[_device].isOwner = fal...\n      PUSH FF\t\t\tdevices[_device].isOwner = fal...\n      MUL \t\t\tdevices[_device].isOwner = fal...\n      NOT \t\t\tdevices[_device].isOwner = fal...\n      AND \t\t\tdevices[_device].isOwner = fal...\n      SWAP1 \t\t\tdevices[_device].isOwner = fal...\n      DUP4 \t\t\tdevices[_device].isOwner = fal...\n      ISZERO \t\t\tdevices[_device].isOwner = fal...\n      ISZERO \t\t\tdevices[_device].isOwner = fal...\n      MUL \t\t\tdevices[_device].isOwner = fal...\n      OR \t\t\tdevices[_device].isOwner = fal...\n      SWAP1 \t\t\tdevices[_device].isOwner = fal...\n      SSTORE \t\t\tdevices[_device].isOwner = fal...\n      POP \t\t\tdevices[_device].isOwner = fal...\n      PUSH 0\t\t\tfalse\n      DUP1 \t\t\tdevices\n      PUSH 0\t\t\tdevices[_device]\n      DUP4 \t\t\t_device\n      PUSH FFFFFFFFFFFFFFFFFFFFFFFFFFFFFFFFFFFFFFFF\t\t\tdevices[_device]\n      AND \t\t\tdevices[_device]\n      PUSH FFFFFFFFFFFFFFFFFFFFFFFFFFFFFFFFFFFFFFFF\t\t\tdevices[_device]\n      AND \t\t\tdevices[_device]\n      DUP2 \t\t\tdevices[_device]\n      MSTORE \t\t\tdevices[_device]\n      PUSH 20\t\t\tdevices[_device]\n      ADD \t\t\tdevices[_device]\n      SWAP1 \t\t\tdevices[_device]\n      DUP2 \t\t\tdevices[_device]\n      MSTORE \t\t\tdevices[_device]\n      PUSH 20\t\t\tdevices[_device]\n      ADD \t\t\tdevices[_device]\n      PUSH 0\t\t\tdevices[_device]\n      KECCAK256 \t\t\tdevices[_device]\n      PUSH 0\t\t\tdevices[_device].exists\n      ADD \t\t\tdevices[_device].exists\n      PUSH 1\t\t\tdevices[_device].exists\n      PUSH 100\t\t\tdevices[_device].exists = fals...\n      EXP \t\t\tdevices[_device].exists = fals...\n      DUP2 \t\t\tdevices[_device].exists = fals...\n      SLOAD \t\t\tdevices[_device].exists = fals...\n      DUP2 \t\t\tdevices[_device].exists = fals...\n      PUSH FF\t\t\tdevices[_device].exists = fals...\n      MUL \t\t\tdevices[_device].exists = fals...\n      NOT \t\t\tdevices[_device].exists = fals...\n      AND \t\t\tdevices[_device].exists = fals...\n      SWAP1 \t\t\tdevices[_device].exists = fals...\n      DUP4 \t\t\tdevices[_device].exists = fals...\n      ISZERO \t\t\tdevices[_device].exists = fals...\n      ISZERO \t\t\tdevices[_device].exists = fals...\n      MUL \t\t\tdevices[_device].exists = fals...\n      OR \t\t\tdevices[_device].exists = fals...\n      SWAP1 \t\t\tdevices[_device].exists = fals...\n      SSTORE \t\t\tdevices[_device].exists = fals...\n      POP \t\t\tdevices[_device].exists = fals...\n      PUSH 15C62EC158A6C18AF42B447791266B9B0764BA2A6DF610890D4DA85C3D4185DB\t\t\tDeviceRemoved(_device)\n      DUP2 \t\t\t_device\n      PUSH 40\t\t\tDeviceRemoved(_device)\n      MLOAD \t\t\tDeviceRemoved(_device)\n      DUP1 \t\t\tDeviceRemoved(_device)\n      DUP3 \t\t\tDeviceRemoved(_device)\n      PUSH FFFFFFFFFFFFFFFFFFFFFFFFFFFFFFFFFFFFFFFF\t\t\tDeviceRemoved(_device)\n      AND \t\t\tDeviceRemoved(_device)\n      PUSH FFFFFFFFFFFFFFFFFFFFFFFFFFFFFFFFFFFFFFFF\t\t\tDeviceRemoved(_device)\n      AND \t\t\tDeviceRemoved(_device)\n      DUP2 \t\t\tDeviceRemoved(_device)\n      MSTORE \t\t\tDeviceRemoved(_device)\n      PUSH 20\t\t\tDeviceRemoved(_device)\n      ADD \t\t\tDeviceRemoved(_device)\n      SWAP2 \t\t\tDeviceRemoved(_device)\n      POP \t\t\tDeviceRemoved(_device)\n      POP \t\t\tDeviceRemoved(_device)\n      PUSH 40\t\t\tDeviceRemoved(_device)\n      MLOAD \t\t\tDeviceRemoved(_device)\n      DUP1 \t\t\tDeviceRemoved(_device)\n      SWAP2 \t\t\tDeviceRemoved(_device)\n      SUB \t\t\tDeviceRemoved(_device)\n      SWAP1 \t\t\tDeviceRemoved(_device)\n      LOG1 \t\t\tDeviceRemoved(_device)\n      POP \t\t\tfunction removeDevice(address ...\n      JUMP [out]\t\t\tfunction removeDevice(address ...\n    tag 22\t\t\tfunction isValidSignature(\\n  ...\n      JUMPDEST \t\t\tfunction isValidSignature(\\n  ...\n      PUSH 0\t\t\tbytes4 magicValue\n      DUP1 \t\t\taddress _recovered\n      PUSH 41\t\t\t65\n      DUP4 \t\t\t_signature\n      MLOAD \t\t\t_signature.length\n      EQ \t\t\t_signature.length == 65\n      ISZERO \t\t\tif (_signature.length == 65) {...\n      PUSH [tag] 47\t\t\tif (_signature.length == 65) {...\n      JUMPI \t\t\tif (_signature.length == 65) {...\n      PUSH 0\t\t\tbytes32 _r\n      DUP1 \t\t\tbytes32 _s\n      PUSH 0\t\t\tuint8 _v\n      PUSH 20\t\t\t0x20\n      DUP7 \t\t\t_signature\n      ADD \t\t\tadd(_signature, 0x20)\n      MLOAD \t\t\tmload(add(_signature, 0x20))\n      SWAP3 \t\t\t_r := mload(add(_signature, 0x...\n      POP \t\t\t_r := mload(add(_signature, 0x...\n      PUSH 40\t\t\t0x40\n      DUP7 \t\t\t_signature\n      ADD \t\t\tadd(_signature, 0x40)\n      MLOAD \t\t\tmload(add(_signature, 0x40))\n      SWAP2 \t\t\t_s := mload(add(_signature, 0x...\n      POP \t\t\t_s := mload(add(_signature, 0x...\n      PUSH 60\t\t\t0x60\n      DUP7 \t\t\t_signature\n      ADD \t\t\tadd(_signature, 0x60)\n      MLOAD \t\t\tmload(add(_signature, 0x60))\n      PUSH 0\t\t\t0\n      BYTE \t\t\tbyte(0, mload(add(_signature, ...\n      SWAP1 \t\t\t_v := byte(0, mload(add(_signa...\n      POP \t\t\t_v := byte(0, mload(add(_signa...\n      PUSH 1B\t\t\t27\n      DUP2 \t\t\t_v\n      PUSH FF\t\t\t_v < 27\n      AND \t\t\t_v < 27\n      LT \t\t\t_v < 27\n      ISZERO \t\t\tif (_v < 27) {\\n        _v += ...\n      PUSH [tag] 48\t\t\tif (_v < 27) {\\n        _v += ...\n      JUMPI \t\t\tif (_v < 27) {\\n        _v += ...\n      PUSH 1B\t\t\t27\n      DUP2 \t\t\t_v += 27\n      ADD \t\t\t_v += 27\n      SWAP1 \t\t\t_v += 27\n      POP \t\t\t_v += 27\n    tag 48\t\t\tif (_v < 27) {\\n        _v += ...\n      JUMPDEST \t\t\tif (_v < 27) {\\n        _v += ...\n      PUSH 1B\t\t\t27\n      DUP2 \t\t\t_v\n      PUSH FF\t\t\t_v == 27\n      AND \t\t\t_v == 27\n      EQ \t\t\t_v == 27\n      DUP1 \t\t\t_v == 27 || _v == 28\n      PUSH [tag] 49\t\t\t_v == 27 || _v == 28\n      JUMPI \t\t\t_v == 27 || _v == 28\n      POP \t\t\t_v == 27 || _v == 28\n      PUSH 1C\t\t\t28\n      DUP2 \t\t\t_v\n      PUSH FF\t\t\t_v == 28\n      AND \t\t\t_v == 28\n      EQ \t\t\t_v == 28\n    tag 49\t\t\t_v == 27 || _v == 28\n      JUMPDEST \t\t\t_v == 27 || _v == 28\n      ISZERO \t\t\tif (_v == 27 || _v == 28) {\\n ...\n      PUSH [tag] 50\t\t\tif (_v == 27 || _v == 28) {\\n ...\n      JUMPI \t\t\tif (_v == 27 || _v == 28) {\\n ...\n      PUSH 1\t\t\tecrecover(\\n          keccak25...\n      PUSH [tag] 51\t\t\tuint2str(_data.length)\n      DUP9 \t\t\t_data\n      MLOAD \t\t\t_data.length\n      PUSH [tag] 52\t\t\tuint2str\n      JUMP [in]\t\t\tuint2str(_data.length)\n    tag 51\t\t\tuint2str(_data.length)\n      JUMPDEST \t\t\tuint2str(_data.length)\n      DUP9 \t\t\t_data\n      PUSH 40\t\t\tabi.encodePacked(\"\\x19Ethereum...\n      MLOAD \t\t\tabi.encodePacked(\"\\x19Ethereum...\n      PUSH 20\t\t\tabi.encodePacked(\"\\x19Ethereum...\n      ADD \t\t\tabi.encodePacked(\"\\x19Ethereum...\n      DUP1 \t\t\tabi.encodePacked(\"\\x19Ethereum...\n      DUP1 \t\t\tabi.encodePacked(\"\\x19Ethereum...\n      PUSH 19457468657265756D205369676E6564204D6573736167653A0A000000000000\t\t\tabi.encodePacked(\"\\x19Ethereum...\n      DUP2 \t\t\tabi.encodePacked(\"\\x19Ethereum...\n      MSTORE \t\t\tabi.encodePacked(\"\\x19Ethereum...\n      POP \t\t\tabi.encodePacked(\"\\x19Ethereum...\n      PUSH 1A\t\t\tabi.encodePacked(\"\\x19Ethereum...\n      ADD \t\t\tabi.encodePacked(\"\\x19Ethereum...\n      DUP4 \t\t\tabi.encodePacked(\"\\x19Ethereum...\n      DUP1 \t\t\tabi.encodePacked(\"\\x19Ethereum...\n      MLOAD \t\t\tabi.encodePacked(\"\\x19Ethereum...\n      SWAP1 \t\t\tabi.encodePacked(\"\\x19Ethereum...\n      PUSH 20\t\t\tabi.encodePacked(\"\\x19Ethereum...\n      ADD \t\t\tabi.encodePacked(\"\\x19Ethereum...\n      SWAP1 \t\t\tabi.encodePacked(\"\\x19Ethereum...\n      DUP1 \t\t\tabi.encodePacked(\"\\x19Ethereum...\n      DUP4 \t\t\tabi.encodePacked(\"\\x19Ethereum...\n      DUP4 \t\t\tabi.encodePacked(\"\\x19Ethereum...\n    tag 53\t\t\tAbstractAccount.sol\";\\n\\n\\n/**...\n      JUMPDEST \t\t\tAbstractAccount.sol\";\\n\\n\\n/**...\n      PUSH 20\t\t\t @\n      DUP4 \t\t\t**\\n\n      LT \t\t\t\\n\\n/**\\n * @t\n      PUSH [tag] 55\t\t\tAbstractAccount.sol\";\\n\\n\\n/**...\n      JUMPI \t\t\tAbstractAccount.sol\";\\n\\n\\n/**...\n      DUP1 \t\t\tend\n      MLOAD \t\t\t[msg.sende\n      DUP3 \t\t\tvic\n      MSTORE \t\t\t     devices[msg.sender\n      PUSH 20\t\t\tou\n      DUP3 \t\t\tt A\n      ADD \t\t\ttract Accoun\n      SWAP2 \t\t\t */\\ncontract Accoun\n      POP \t\t\t */\\ncontract Accoun\n      PUSH 20\t\t\t\\n\\n\n      DUP2 \t\t\tunt\n      ADD \t\t\tAccount {\\n\\n \n      SWAP1 \t\t\tbstractAccount {\\n\\n \n      POP \t\t\tbstractAccount {\\n\\n \n      PUSH 20\t\t\t{\\n\n      DUP4 \t\t\ter(\n      SUB \t\t\tyOwner() {\\n \n      SWAP3 \t\t\tier onlyOwner() {\\n \n      POP \t\t\tier onlyOwner() {\\n \n      PUSH [tag] 53\t\t\tAbstractAccount.sol\";\\n\\n\\n/**...\n      JUMP \t\t\tAbstractAccount.sol\";\\n\\n\\n/**...\n    tag 55\t\t\tAbstractAccount.sol\";\\n\\n\\n/**...\n      JUMPDEST \t\t\tAbstractAccount.sol\";\\n\\n\\n/**...\n      PUSH 1\t\t\t=\n      DUP4 \t\t\tsOw\n      PUSH 20\t\t\tr]\n      SUB \t\t\tender].isOwn\n      PUSH 100\t\t\tmsg\n      EXP \t\t\tces[msg.sender].isOwne\n      SUB \t\t\tdevices[msg.sender].isOwner = \n      DUP1 \t\t\ttrue\n      NOT \t\t\ts = true;\n      DUP3 \t\t\t.ex\n      MLOAD \t\t\tender].exi\n      AND \t\t\tsg.sender].exists = true;\\n\n      DUP2 \t\t\true;\n      DUP5 \t\t\ted \n      MLOAD \t\t\t.existed =\n      AND \t\t\tder].existed = true;\\n\n      DUP1 \t\t\tayable \n      DUP3 \t\t\txternal\n      OR \t\t\t) external payable {\n      DUP6 \t\t\ttio\n      MSTORE \t\t\t\\n  function() external payabl...\n      POP \t\t\tgma solidity ^0.5.10;\\n\\nimpor...\n      POP \t\t\tgma solidity ^0.5.10;\\n\\nimpor...\n      POP \t\t\tgma solidity ^0.5.10;\\n\\nimpor...\n      POP \t\t\tabi.encodePacked(\"\\x19Ethereum...\n      POP \t\t\tabi.encodePacked(\"\\x19Ethereum...\n      POP \t\t\tabi.encodePacked(\"\\x19Ethereum...\n      SWAP1 \t\t\tabi.encodePacked(\"\\x19Ethereum...\n      POP \t\t\tabi.encodePacked(\"\\x19Ethereum...\n      ADD \t\t\tabi.encodePacked(\"\\x19Ethereum...\n      DUP3 \t\t\tabi.encodePacked(\"\\x19Ethereum...\n      DUP1 \t\t\tabi.encodePacked(\"\\x19Ethereum...\n      MLOAD \t\t\tabi.encodePacked(\"\\x19Ethereum...\n      SWAP1 \t\t\tabi.encodePacked(\"\\x19Ethereum...\n      PUSH 20\t\t\tabi.encodePacked(\"\\x19Ethereum...\n      ADD \t\t\tabi.encodePacked(\"\\x19Ethereum...\n      SWAP1 \t\t\tabi.encodePacked(\"\\x19Ethereum...\n      DUP1 \t\t\tabi.encodePacked(\"\\x19Ethereum...\n      DUP4 \t\t\tabi.encodePacked(\"\\x19Ethereum...\n      DUP4 \t\t\tabi.encodePacked(\"\\x19Ethereum...\n    tag 56\t\t\tAbstractAccount.sol\";\\n\\n\\n/**...\n      JUMPDEST \t\t\tAbstractAccount.sol\";\\n\\n\\n/**...\n      PUSH 20\t\t\t @\n      DUP4 \t\t\t**\\n\n      LT \t\t\t\\n\\n/**\\n * @t\n      PUSH [tag] 58\t\t\tAbstractAccount.sol\";\\n\\n\\n/**...\n      JUMPI \t\t\tAbstractAccount.sol\";\\n\\n\\n/**...\n      DUP1 \t\t\tend\n      MLOAD \t\t\t[msg.sende\n      DUP3 \t\t\tvic\n      MSTORE \t\t\t     devices[msg.sender\n      PUSH 20\t\t\tou\n      DUP3 \t\t\tt A\n      ADD \t\t\ttract Accoun\n      SWAP2 \t\t\t */\\ncontract Accoun\n      POP \t\t\t */\\ncontract Accoun\n      PUSH 20\t\t\t\\n\\n\n      DUP2 \t\t\tunt\n      ADD \t\t\tAccount {\\n\\n \n      SWAP1 \t\t\tbstractAccount {\\n\\n \n      POP \t\t\tbstractAccount {\\n\\n \n      PUSH 20\t\t\t{\\n\n      DUP4 \t\t\ter(\n      SUB \t\t\tyOwner() {\\n \n      SWAP3 \t\t\tier onlyOwner() {\\n \n      POP \t\t\tier onlyOwner() {\\n \n      PUSH [tag] 56\t\t\tAbstractAccount.sol\";\\n\\n\\n/**...\n      JUMP \t\t\tAbstractAccount.sol\";\\n\\n\\n/**...\n    tag 58\t\t\tAbstractAccount.sol\";\\n\\n\\n/**...\n      JUMPDEST \t\t\tAbstractAccount.sol\";\\n\\n\\n/**...\n      PUSH 1\t\t\t=\n      DUP4 \t\t\tsOw\n      PUSH 20\t\t\tr]\n      SUB \t\t\tender].isOwn\n      PUSH 100\t\t\tmsg\n      EXP \t\t\tces[msg.sender].isOwne\n      SUB \t\t\tdevices[msg.sender].isOwner = \n      DUP1 \t\t\ttrue\n      NOT \t\t\ts = true;\n      DUP3 \t\t\t.ex\n      MLOAD \t\t\tender].exi\n      AND \t\t\tsg.sender].exists = true;\\n\n      DUP2 \t\t\true;\n      DUP5 \t\t\ted \n      MLOAD \t\t\t.existed =\n      AND \t\t\tder].existed = true;\\n\n      DUP1 \t\t\tayable \n      DUP3 \t\t\txternal\n      OR \t\t\t) external payable {\n      DUP6 \t\t\ttio\n      MSTORE \t\t\t\\n  function() external payabl...\n      POP \t\t\tgma solidity ^0.5.10;\\n\\nimpor...\n      POP \t\t\tgma solidity ^0.5.10;\\n\\nimpor...\n      POP \t\t\tgma solidity ^0.5.10;\\n\\nimpor...\n      POP \t\t\tabi.encodePacked(\"\\x19Ethereum...\n      POP \t\t\tabi.encodePacked(\"\\x19Ethereum...\n      POP \t\t\tabi.encodePacked(\"\\x19Ethereum...\n      SWAP1 \t\t\tabi.encodePacked(\"\\x19Ethereum...\n      POP \t\t\tabi.encodePacked(\"\\x19Ethereum...\n      ADD \t\t\tabi.encodePacked(\"\\x19Ethereum...\n      SWAP3 \t\t\tabi.encodePacked(\"\\x19Ethereum...\n      POP \t\t\tabi.encodePacked(\"\\x19Ethereum...\n      POP \t\t\tabi.encodePacked(\"\\x19Ethereum...\n      POP \t\t\tabi.encodePacked(\"\\x19Ethereum...\n      PUSH 40\t\t\tabi.encodePacked(\"\\x19Ethereum...\n      MLOAD \t\t\tabi.encodePacked(\"\\x19Ethereum...\n      PUSH 20\t\t\tnt.s\n      DUP2 \t\t\ttractAc\n      DUP4 \t\t\trt \"./A\n      SUB \t\t\timport \"./AbstractAcc\n      SUB \t\t\t0;\\n\\nimport \"./AbstractAccoun...\n      DUP2 \t\t\tty ^0.5\n      MSTORE \t\t\t solidity ^0.5.10;\\n\\nimport \"...\n      SWAP1 \t\t\tabi.encodePacked(\"\\x19Ethereum...\n      PUSH 40\t\t\tabi.encodePacked(\"\\x19Ethereum...\n      MSTORE \t\t\tabi.encodePacked(\"\\x19Ethereum...\n      DUP1 \t\t\tkeccak256(abi.encodePacked(\"\\x...\n      MLOAD \t\t\tkeccak256(abi.encodePacked(\"\\x...\n      SWAP1 \t\t\tkeccak256(abi.encodePacked(\"\\x...\n      PUSH 20\t\t\tkeccak256(abi.encodePacked(\"\\x...\n      ADD \t\t\tkeccak256(abi.encodePacked(\"\\x...\n      KECCAK256 \t\t\tkeccak256(abi.encodePacked(\"\\x...\n      DUP3 \t\t\t_v\n      DUP6 \t\t\t_r\n      DUP6 \t\t\t_s\n      PUSH 40\t\t\tecrecover(\\n          keccak25...\n      MLOAD \t\t\tecrecover(\\n          keccak25...\n      PUSH 0\t\t\tecrecover(\\n          keccak25...\n      DUP2 \t\t\tecrecover(\\n          keccak25...\n      MSTORE \t\t\tecrecover(\\n          keccak25...\n      PUSH 20\t\t\tecrecover(\\n          keccak25...\n      ADD \t\t\tecrecover(\\n          keccak25...\n      PUSH 40\t\t\tecrecover(\\n          keccak25...\n      MSTORE \t\t\tecrecover(\\n          keccak25...\n      PUSH 40\t\t\tecrecover(\\n          keccak25...\n      MLOAD \t\t\tecrecover(\\n          keccak25...\n      DUP1 \t\t\tecrecover(\\n          keccak25...\n      DUP6 \t\t\tecrecover(\\n          keccak25...\n      DUP2 \t\t\tecrecover(\\n          keccak25...\n      MSTORE \t\t\tecrecover(\\n          keccak25...\n      PUSH 20\t\t\tecrecover(\\n          keccak25...\n      ADD \t\t\tecrecover(\\n          keccak25...\n      DUP5 \t\t\tecrecover(\\n          keccak25...\n      PUSH FF\t\t\tecrecover(\\n          keccak25...\n      AND \t\t\tecrecover(\\n          keccak25...\n      PUSH FF\t\t\tecrecover(\\n          keccak25...\n      AND \t\t\tecrecover(\\n          keccak25...\n      DUP2 \t\t\tecrecover(\\n          keccak25...\n      MSTORE \t\t\tecrecover(\\n          keccak25...\n      PUSH 20\t\t\tecrecover(\\n          keccak25...\n      ADD \t\t\tecrecover(\\n          keccak25...\n      DUP4 \t\t\tecrecover(\\n          keccak25...\n      DUP2 \t\t\tecrecover(\\n          keccak25...\n      MSTORE \t\t\tecrecover(\\n          keccak25...\n      PUSH 20\t\t\tecrecover(\\n          keccak25...\n      ADD \t\t\tecrecover(\\n          keccak25...\n      DUP3 \t\t\tecrecover(\\n          keccak25...\n      DUP2 \t\t\tecrecover(\\n          keccak25...\n      MSTORE \t\t\tecrecover(\\n          keccak25...\n      PUSH 20\t\t\tecrecover(\\n          keccak25...\n      ADD \t\t\tecrecover(\\n          keccak25...\n      SWAP5 \t\t\tecrecover(\\n          keccak25...\n      POP \t\t\tecrecover(\\n          keccak25...\n      POP \t\t\tecrecover(\\n          keccak25...\n      POP \t\t\tecrecover(\\n          keccak25...\n      POP \t\t\tecrecover(\\n          keccak25...\n      POP \t\t\tecrecover(\\n          keccak25...\n      PUSH 20\t\t\tecrecover(\\n          keccak25...\n      PUSH 40\t\t\tecrecover(\\n          keccak25...\n      MLOAD \t\t\tecrecover(\\n          keccak25...\n      PUSH 20\t\t\tecrecover(\\n          keccak25...\n      DUP2 \t\t\tecrecover(\\n          keccak25...\n      SUB \t\t\tecrecover(\\n          keccak25...\n      SWAP1 \t\t\tecrecover(\\n          keccak25...\n      DUP1 \t\t\tecrecover(\\n          keccak25...\n      DUP5 \t\t\tecrecover(\\n          keccak25...\n      SUB \t\t\tecrecover(\\n          keccak25...\n      SWAP1 \t\t\tecrecover(\\n          keccak25...\n      DUP6 \t\t\tecrecover(\\n          keccak25...\n      GAS \t\t\tecrecover(\\n          keccak25...\n      STATICCALL \t\t\tecrecover(\\n          keccak25...\n      ISZERO \t\t\tecrecover(\\n          keccak25...\n      DUP1 \t\t\tolidity ^\n      ISZERO \t\t\ta \n      PUSH [tag] 59\t\t\ta \n      JUMPI \t\t\ta \n      RETURNDATASIZE \t\t\tccount.sol\";\\n\\n\\n/\n      PUSH 0\t\t\tc\n      DUP1 \t\t\tt\n      RETURNDATACOPY \t\t\t\\n\\nimport \"./AbstractAccount....\n      RETURNDATASIZE \t\t\tount\\n */\\ncontrac\n      PUSH 0\t\t\tA\n      REVERT \t\t\t@title Account\\n */\\ncontract\n    tag 59\t\t\ta \n      JUMPDEST \t\t\ta \n      POP \t\t\tecrecover(\\n          keccak25...\n      POP \t\t\tecrecover(\\n          keccak25...\n      POP \t\t\tecrecover(\\n          keccak25...\n      PUSH 20\t\t\tecrecover(\\n          keccak25...\n      PUSH 40\t\t\tecrecover(\\n          keccak25...\n      MLOAD \t\t\tecrecover(\\n          keccak25...\n      SUB \t\t\tecrecover(\\n          keccak25...\n      MLOAD \t\t\tecrecover(\\n          keccak25...\n      SWAP4 \t\t\t_recovered = ecrecover(\\n     ...\n      POP \t\t\t_recovered = ecrecover(\\n     ...\n    tag 50\t\t\tif (_v == 27 || _v == 28) {\\n ...\n      JUMPDEST \t\t\tif (_v == 27 || _v == 28) {\\n ...\n      POP \t\t\tif (_signature.length == 65) {...\n      POP \t\t\tif (_signature.length == 65) {...\n      POP \t\t\tif (_signature.length == 65) {...\n    tag 47\t\t\tif (_signature.length == 65) {...\n      JUMPDEST \t\t\tif (_signature.length == 65) {...\n      PUSH 0\t\t\tdevices\n      DUP1 \t\t\tdevices[_recovered]\n      DUP3 \t\t\t_recovered\n      PUSH FFFFFFFFFFFFFFFFFFFFFFFFFFFFFFFFFFFFFFFF\t\t\tdevices[_recovered]\n      AND \t\t\tdevices[_recovered]\n      PUSH FFFFFFFFFFFFFFFFFFFFFFFFFFFFFFFFFFFFFFFF\t\t\tdevices[_recovered]\n      AND \t\t\tdevices[_recovered]\n      DUP2 \t\t\tdevices[_recovered]\n      MSTORE \t\t\tdevices[_recovered]\n      PUSH 20\t\t\tdevices[_recovered]\n      ADD \t\t\tdevices[_recovered]\n      SWAP1 \t\t\tdevices[_recovered]\n      DUP2 \t\t\tdevices[_recovered]\n      MSTORE \t\t\tdevices[_recovered]\n      PUSH 20\t\t\tdevices[_recovered]\n      ADD \t\t\tdevices[_recovered]\n      PUSH 0\t\t\tdevices[_recovered]\n      KECCAK256 \t\t\tdevices[_recovered]\n      PUSH 0\t\t\tdevices[_recovered].existed\n      ADD \t\t\tdevices[_recovered].existed\n      PUSH 2\t\t\tdevices[_recovered].existed\n      SWAP1 \t\t\tdevices[_recovered].existed\n      SLOAD \t\t\tdevices[_recovered].existed\n      SWAP1 \t\t\tdevices[_recovered].existed\n      PUSH 100\t\t\tdevices[_recovered].existed\n      EXP \t\t\tdevices[_recovered].existed\n      SWAP1 \t\t\tdevices[_recovered].existed\n      DIV \t\t\tdevices[_recovered].existed\n      PUSH FF\t\t\tdevices[_recovered].existed\n      AND \t\t\tdevices[_recovered].existed\n      ISZERO \t\t\tif (devices[_recovered].existe...\n      PUSH [tag] 60\t\t\tif (devices[_recovered].existe...\n      JUMPI \t\t\tif (devices[_recovered].existe...\n      PUSH 20C13B0B\t\t\t0x20c13b0b\n      PUSH E0\t\t\tmagicValue = 0x20c13b0b\n      SHL \t\t\tmagicValue = 0x20c13b0b\n      SWAP2 \t\t\tmagicValue = 0x20c13b0b\n      POP \t\t\tmagicValue = 0x20c13b0b\n      PUSH [tag] 61\t\t\tif (devices[_recovered].existe...\n      JUMP \t\t\tif (devices[_recovered].existe...\n    tag 60\t\t\tif (devices[_recovered].existe...\n      JUMPDEST \t\t\tif (devices[_recovered].existe...\n      PUSH FFFFFFFF\t\t\t0xffffffff\n      PUSH E0\t\t\tmagicValue = 0xffffffff\n      SHL \t\t\tmagicValue = 0xffffffff\n      SWAP2 \t\t\tmagicValue = 0xffffffff\n      POP \t\t\tmagicValue = 0xffffffff\n    tag 61\t\t\tif (devices[_recovered].existe...\n      JUMPDEST \t\t\tif (devices[_recovered].existe...\n      POP \t\t\tfunction isValidSignature(\\n  ...\n      SWAP3 \t\t\tfunction isValidSignature(\\n  ...\n      SWAP2 \t\t\tfunction isValidSignature(\\n  ...\n      POP \t\t\tfunction isValidSignature(\\n  ...\n      POP \t\t\tfunction isValidSignature(\\n  ...\n      JUMP [out]\t\t\tfunction isValidSignature(\\n  ...\n    tag 29\t\t\tfunction executeTransaction(ad...\n      JUMPDEST \t\t\tfunction executeTransaction(ad...\n      PUSH 60\t\t\tbytes memory _response\n      PUSH 0\t\t\tdevices\n      DUP1 \t\t\tdevices[msg.sender]\n      CALLER \t\t\tmsg.sender\n      PUSH FFFFFFFFFFFFFFFFFFFFFFFFFFFFFFFFFFFFFFFF\t\t\tdevices[msg.sender]\n      AND \t\t\tdevices[msg.sender]\n      PUSH FFFFFFFFFFFFFFFFFFFFFFFFFFFFFFFFFFFFFFFF\t\t\tdevices[msg.sender]\n      AND \t\t\tdevices[msg.sender]\n      DUP2 \t\t\tdevices[msg.sender]\n      MSTORE \t\t\tdevices[msg.sender]\n      PUSH 20\t\t\tdevices[msg.sender]\n      ADD \t\t\tdevices[msg.sender]\n      SWAP1 \t\t\tdevices[msg.sender]\n      DUP2 \t\t\tdevices[msg.sender]\n      MSTORE \t\t\tdevices[msg.sender]\n      PUSH 20\t\t\tdevices[msg.sender]\n      ADD \t\t\tdevices[msg.sender]\n      PUSH 0\t\t\tdevices[msg.sender]\n      KECCAK256 \t\t\tdevices[msg.sender]\n      PUSH 0\t\t\tdevices[msg.sender].isOwner\n      ADD \t\t\tdevices[msg.sender].isOwner\n      PUSH 0\t\t\tdevices[msg.sender].isOwner\n      SWAP1 \t\t\tdevices[msg.sender].isOwner\n      SLOAD \t\t\tdevices[msg.sender].isOwner\n      SWAP1 \t\t\tdevices[msg.sender].isOwner\n      PUSH 100\t\t\tdevices[msg.sender].isOwner\n      EXP \t\t\tdevices[msg.sender].isOwner\n      SWAP1 \t\t\tdevices[msg.sender].isOwner\n      DIV \t\t\tdevices[msg.sender].isOwner\n      PUSH FF\t\t\tdevices[msg.sender].isOwner\n      AND \t\t\tdevices[msg.sender].isOwner\n      PUSH [tag] 63\t\t\trequire(\\n      devices[msg.se...\n      JUMPI \t\t\trequire(\\n      devices[msg.se...\n      PUSH 0\t\t\trequire(\\n      devices[msg.se...\n      DUP1 \t\t\trequire(\\n      devices[msg.se...\n      REVERT \t\t\trequire(\\n      devices[msg.se...\n    tag 63\t\t\trequire(\\n      devices[msg.se...\n      JUMPDEST \t\t\trequire(\\n      devices[msg.se...\n      PUSH 0\t\t\t0\n      PUSH FFFFFFFFFFFFFFFFFFFFFFFFFFFFFFFFFFFFFFFF\t\t\t_recipient != address(0)\n      AND \t\t\t_recipient != address(0)\n      DUP5 \t\t\t_recipient\n      PUSH FFFFFFFFFFFFFFFFFFFFFFFFFFFFFFFFFFFFFFFF\t\t\t_recipient != address(0)\n      AND \t\t\t_recipient != address(0)\n      EQ \t\t\t_recipient != address(0)\n      ISZERO \t\t\t_recipient != address(0)\n      PUSH [tag] 65\t\t\trequire(\\n      _recipient != ...\n      JUMPI \t\t\trequire(\\n      _recipient != ...\n      PUSH 0\t\t\trequire(\\n      _recipient != ...\n      DUP1 \t\t\trequire(\\n      _recipient != ...\n      REVERT \t\t\trequire(\\n      _recipient != ...\n    tag 65\t\t\trequire(\\n      _recipient != ...\n      JUMPDEST \t\t\trequire(\\n      _recipient != ...\n      PUSH 0\t\t\tbool _succeeded\n      DUP5 \t\t\t_recipient\n      PUSH FFFFFFFFFFFFFFFFFFFFFFFFFFFFFFFFFFFFFFFF\t\t\t_recipient.call\n      AND \t\t\t_recipient.call\n      DUP5 \t\t\t_value\n      DUP5 \t\t\t_data\n      PUSH 40\t\t\t_recipient.call.value(_value)(...\n      MLOAD \t\t\t_recipient.call.value(_value)(...\n      DUP1 \t\t\t_recipient.call.value(_value)(...\n      DUP3 \t\t\t_recipient.call.value(_value)(...\n      DUP1 \t\t\t_recipient.call.value(_value)(...\n      MLOAD \t\t\t_recipient.call.value(_value)(...\n      SWAP1 \t\t\t_recipient.call.value(_value)(...\n      PUSH 20\t\t\t_recipient.call.value(_value)(...\n      ADD \t\t\t_recipient.call.value(_value)(...\n      SWAP1 \t\t\t_recipient.call.value(_value)(...\n      DUP1 \t\t\t_recipient.call.value(_value)(...\n      DUP4 \t\t\t_recipient.call.value(_value)(...\n      DUP4 \t\t\t_recipient.call.value(_value)(...\n    tag 66\t\t\tAbstractAccount.sol\";\\n\\n\\n/**...\n      JUMPDEST \t\t\tAbstractAccount.sol\";\\n\\n\\n/**...\n      PUSH 20\t\t\t @\n      DUP4 \t\t\t**\\n\n      LT \t\t\t\\n\\n/**\\n * @t\n      PUSH [tag] 68\t\t\tAbstractAccount.sol\";\\n\\n\\n/**...\n      JUMPI \t\t\tAbstractAccount.sol\";\\n\\n\\n/**...\n      DUP1 \t\t\tend\n      MLOAD \t\t\t[msg.sende\n      DUP3 \t\t\tvic\n      MSTORE \t\t\t     devices[msg.sender\n      PUSH 20\t\t\tou\n      DUP3 \t\t\tt A\n      ADD \t\t\ttract Accoun\n      SWAP2 \t\t\t */\\ncontract Accoun\n      POP \t\t\t */\\ncontract Accoun\n      PUSH 20\t\t\t\\n\\n\n      DUP2 \t\t\tunt\n      ADD \t\t\tAccount {\\n\\n \n      SWAP1 \t\t\tbstractAccount {\\n\\n \n      POP \t\t\tbstractAccount {\\n\\n \n      PUSH 20\t\t\t{\\n\n      DUP4 \t\t\ter(\n      SUB \t\t\tyOwner() {\\n \n      SWAP3 \t\t\tier onlyOwner() {\\n \n      POP \t\t\tier onlyOwner() {\\n \n      PUSH [tag] 66\t\t\tAbstractAccount.sol\";\\n\\n\\n/**...\n      JUMP \t\t\tAbstractAccount.sol\";\\n\\n\\n/**...\n    tag 68\t\t\tAbstractAccount.sol\";\\n\\n\\n/**...\n      JUMPDEST \t\t\tAbstractAccount.sol\";\\n\\n\\n/**...\n      PUSH 1\t\t\t=\n      DUP4 \t\t\tsOw\n      PUSH 20\t\t\tr]\n      SUB \t\t\tender].isOwn\n      PUSH 100\t\t\tmsg\n      EXP \t\t\tces[msg.sender].isOwne\n      SUB \t\t\tdevices[msg.sender].isOwner = \n      DUP1 \t\t\ttrue\n      NOT \t\t\ts = true;\n      DUP3 \t\t\t.ex\n      MLOAD \t\t\tender].exi\n      AND \t\t\tsg.sender].exists = true;\\n\n      DUP2 \t\t\true;\n      DUP5 \t\t\ted \n      MLOAD \t\t\t.existed =\n      AND \t\t\tder].existed = true;\\n\n      DUP1 \t\t\tayable \n      DUP3 \t\t\txternal\n      OR \t\t\t) external payable {\n      DUP6 \t\t\ttio\n      MSTORE \t\t\t\\n  function() external payabl...\n      POP \t\t\tgma solidity ^0.5.10;\\n\\nimpor...\n      POP \t\t\tgma solidity ^0.5.10;\\n\\nimpor...\n      POP \t\t\tgma solidity ^0.5.10;\\n\\nimpor...\n      POP \t\t\t_recipient.call.value(_value)(...\n      POP \t\t\t_recipient.call.value(_value)(...\n      POP \t\t\t_recipient.call.value(_value)(...\n      SWAP1 \t\t\t_recipient.call.value(_value)(...\n      POP \t\t\t_recipient.call.value(_value)(...\n      ADD \t\t\t_recipient.call.value(_value)(...\n      SWAP2 \t\t\t_recipient.call.value(_value)(...\n      POP \t\t\t_recipient.call.value(_value)(...\n      POP \t\t\t_recipient.call.value(_value)(...\n      PUSH 0\t\t\t_recipient.call.value(_value)(...\n      PUSH 40\t\t\t_recipient.call.value(_value)(...\n      MLOAD \t\t\t_recipient.call.value(_value)(...\n      DUP1 \t\t\t_recipient.call.value(_value)(...\n      DUP4 \t\t\t_recipient.call.value(_value)(...\n      SUB \t\t\t_recipient.call.value(_value)(...\n      DUP2 \t\t\t_recipient.call.value(_value)(...\n      DUP6 \t\t\t_recipient.call.value(_value)(...\n      DUP8 \t\t\t_recipient.call.value(_value)(...\n      GAS \t\t\t_recipient.call.value(_value)(...\n      CALL \t\t\t_recipient.call.value(_value)(...\n      SWAP3 \t\t\t_recipient.call.value(_value)(...\n      POP \t\t\t_recipient.call.value(_value)(...\n      POP \t\t\t_recipient.call.value(_value)(...\n      POP \t\t\t_recipient.call.value(_value)(...\n      RETURNDATASIZE \t\t\t_recipient.call.value(_value)(...\n      DUP1 \t\t\ty\n      PUSH 0\t\t\t1\n      DUP2 \t\t\t^0.5.10;\\n\\nimport \"./Abstract...\n      EQ \t\t\t^0.5.10;\\n\\nimport \"./Abstract...\n      PUSH [tag] 70\t\t\t^0.5.10;\\n\\nimport \"./Abstract...\n      JUMPI \t\t\t^0.5.10;\\n\\nimport \"./Abstract...\n      PUSH 40\t\t\tccou\n      MLOAD \t\t\title Accoun\n      SWAP2 \t\t\t * @title Accoun\n      POP \t\t\t * @title Accoun\n      PUSH 1F\t\t\tr() \n      NOT \t\t\tOwner() {\n      PUSH 3F\t\t\ter o\n      RETURNDATASIZE \t\t\tccount {\\n\\n  modi\n      ADD \t\t\tactAccount {\\n\\n  modifier on\n      AND \t\t\tbstractAccount {\\n\\n  modifier...\n      DUP3 \t\t\ts\n      ADD \t\t\tnt is AbstractAccount {\\n\\n  m...\n      PUSH 40\t\t\t Acc\n      MSTORE \t\t\tontract Account is AbstractAcc...\n      RETURNDATASIZE \t\t\tdevices[msg.send\n      DUP3 \t\t\t \n      MSTORE \t\t\tre(\\n      devices[msg.sende\n      RETURNDATASIZE \t\t\tuctor() public {\n      PUSH 0\t\t\ts\n      PUSH 20\t\t\t\\n\\n  \n      DUP5 \t\t\t \n      ADD \t\t\t _;\\n  }\\n\\n  c\n      RETURNDATACOPY \t\t\tner\\n    );\\n\\n    _;\\n  }\\n\\n...\n      PUSH [tag] 69\t\t\tsolidity ^0.5.10;\\n\\nimport \"....\n      JUMP \t\t\tsolidity ^0.5.10;\\n\\nimport \"....\n    tag 70\t\t\t^0.5.10;\\n\\nimport \"./Abstract...\n      JUMPDEST \t\t\t^0.5.10;\\n\\nimport \"./Abstract...\n      PUSH 60\t\t\tAbst\n      SWAP2 \t\t\tt \"./Abst\n      POP \t\t\tt \"./Abst\n    tag 69\t\t\tsolidity ^0.5.10;\\n\\nimport \"....\n      JUMPDEST \t\t\tsolidity ^0.5.10;\\n\\nimport \"....\n      POP \t\t\tsolidity ^0.5.10;\\n\\nimport \"....\n      DUP1 \t\t\t(_succeeded, _response) = _rec...\n      SWAP4 \t\t\t(_succeeded, _response) = _rec...\n      POP \t\t\t(_succeeded, _response) = _rec...\n      DUP2 \t\t\t(_succeeded, _response) = _rec...\n      SWAP3 \t\t\t(_succeeded, _response) = _rec...\n      POP \t\t\t(_succeeded, _response) = _rec...\n      POP \t\t\t(_succeeded, _response) = _rec...\n      POP \t\t\t(_succeeded, _response) = _rec...\n      DUP1 \t\t\t_succeeded\n      PUSH [tag] 71\t\t\trequire(\\n      _succeeded\\n  ...\n      JUMPI \t\t\trequire(\\n      _succeeded\\n  ...\n      PUSH 0\t\t\trequire(\\n      _succeeded\\n  ...\n      DUP1 \t\t\trequire(\\n      _succeeded\\n  ...\n      REVERT \t\t\trequire(\\n      _succeeded\\n  ...\n    tag 71\t\t\trequire(\\n      _succeeded\\n  ...\n      JUMPDEST \t\t\trequire(\\n      _succeeded\\n  ...\n      PUSH 12AE8711B8DC37E405D8E422569D1EE78D52D76BC8FE2A9EA81FFE17569E51A\t\t\tTransactionExecuted(_recipient...\n      DUP6 \t\t\t_recipient\n      DUP6 \t\t\t_value\n      DUP6 \t\t\t_data\n      DUP6 \t\t\t_response\n      PUSH 40\t\t\tTransactionExecuted(_recipient...\n      MLOAD \t\t\tTransactionExecuted(_recipient...\n      DUP1 \t\t\tTransactionExecuted(_recipient...\n      DUP6 \t\t\tTransactionExecuted(_recipient...\n      PUSH FFFFFFFFFFFFFFFFFFFFFFFFFFFFFFFFFFFFFFFF\t\t\tTransactionExecuted(_recipient...\n      AND \t\t\tTransactionExecuted(_recipient...\n      PUSH FFFFFFFFFFFFFFFFFFFFFFFFFFFFFFFFFFFFFFFF\t\t\tTransactionExecuted(_recipient...\n      AND \t\t\tTransactionExecuted(_recipient...\n      DUP2 \t\t\tTransactionExecuted(_recipient...\n      MSTORE \t\t\tTransactionExecuted(_recipient...\n      PUSH 20\t\t\tTransactionExecuted(_recipient...\n      ADD \t\t\tTransactionExecuted(_recipient...\n      DUP5 \t\t\tTransactionExecuted(_recipient...\n      DUP2 \t\t\tTransactionExecuted(_recipient...\n      MSTORE \t\t\tTransactionExecuted(_recipient...\n      PUSH 20\t\t\tTransactionExecuted(_recipient...\n      ADD \t\t\tTransactionExecuted(_recipient...\n      DUP1 \t\t\tTransactionExecuted(_recipient...\n      PUSH 20\t\t\tTransactionExecuted(_recipient...\n      ADD \t\t\tTransactionExecuted(_recipient...\n      DUP1 \t\t\tTransactionExecuted(_recipient...\n      PUSH 20\t\t\tTransactionExecuted(_recipient...\n      ADD \t\t\tTransactionExecuted(_recipient...\n      DUP4 \t\t\tTransactionExecuted(_recipient...\n      DUP2 \t\t\tTransactionExecuted(_recipient...\n      SUB \t\t\tTransactionExecuted(_recipient...\n      DUP4 \t\t\tTransactionExecuted(_recipient...\n      MSTORE \t\t\tTransactionExecuted(_recipient...\n      DUP6 \t\t\tTransactionExecuted(_recipient...\n      DUP2 \t\t\tTransactionExecuted(_recipient...\n      DUP2 \t\t\tTransactionExecuted(_recipient...\n      MLOAD \t\t\tTransactionExecuted(_recipient...\n      DUP2 \t\t\tTransactionExecuted(_recipient...\n      MSTORE \t\t\tTransactionExecuted(_recipient...\n      PUSH 20\t\t\tTransactionExecuted(_recipient...\n      ADD \t\t\tTransactionExecuted(_recipient...\n      SWAP2 \t\t\tTransactionExecuted(_recipient...\n      POP \t\t\tTransactionExecuted(_recipient...\n      DUP1 \t\t\tTransactionExecuted(_recipient...\n      MLOAD \t\t\tTransactionExecuted(_recipient...\n      SWAP1 \t\t\tTransactionExecuted(_recipient...\n      PUSH 20\t\t\tTransactionExecuted(_recipient...\n      ADD \t\t\tTransactionExecuted(_recipient...\n      SWAP1 \t\t\tTransactionExecuted(_recipient...\n      DUP1 \t\t\tTransactionExecuted(_recipient...\n      DUP4 \t\t\tTransactionExecuted(_recipient...\n      DUP4 \t\t\tTransactionExecuted(_recipient...\n      PUSH 0\t\t\t;\n    tag 72\t\t\tolidity ^0.5.10;\\n\\nimport \"./...\n      JUMPDEST \t\t\tolidity ^0.5.10;\\n\\nimport \"./...\n      DUP4 \t\t\t\"./\n      DUP2 \t\t\tr\n      LT \t\t\tmport \"./A\n      ISZERO \t\t\tolidity ^0.5.10;\\n\\nimport \"./...\n      PUSH [tag] 74\t\t\tolidity ^0.5.10;\\n\\nimport \"./...\n      JUMPI \t\t\tolidity ^0.5.10;\\n\\nimport \"./...\n      DUP1 \t\t\tu\n      DUP3 \t\t\t Ac\n      ADD \t\t\tract Accoun\n      MLOAD \t\t\t/\\ncontract Account\n      DUP2 \t\t\tt\n      DUP5 \t\t\tcco\n      ADD \t\t\tle Account\\n\n      MSTORE \t\t\t * @title Account\\n */\\ncontra...\n      PUSH 20\t\t\tso\n      DUP2 \t\t\tn\n      ADD \t\t\tccount.sol\n      SWAP1 \t\t\tractAccount.sol\n      POP \t\t\tractAccount.sol\n      PUSH [tag] 72\t\t\tolidity ^0.5.10;\\n\\nimport \"./...\n      JUMP \t\t\tolidity ^0.5.10;\\n\\nimport \"./...\n    tag 74\t\t\tolidity ^0.5.10;\\n\\nimport \"./...\n      JUMPDEST \t\t\tolidity ^0.5.10;\\n\\nimport \"./...\n      POP \t\t\tity ^0.5.10;\\n\\n\n      POP \t\t\tTransactionExecuted(_recipient...\n      POP \t\t\tTransactionExecuted(_recipient...\n      POP \t\t\tTransactionExecuted(_recipient...\n      SWAP1 \t\t\tTransactionExecuted(_recipient...\n      POP \t\t\tTransactionExecuted(_recipient...\n      SWAP1 \t\t\tTransactionExecuted(_recipient...\n      DUP2 \t\t\tTransactionExecuted(_recipient...\n      ADD \t\t\tTransactionExecuted(_recipient...\n      SWAP1 \t\t\tTransactionExecuted(_recipient...\n      PUSH 1F\t\t\tTransactionExecuted(_recipient...\n      AND \t\t\tTransactionExecuted(_recipient...\n      DUP1 \t\t\tTransactionExecuted(_recipient...\n      ISZERO \t\t\tTransactionExecuted(_recipient...\n      PUSH [tag] 75\t\t\tTransactionExecuted(_recipient...\n      JUMPI \t\t\tTransactionExecuted(_recipient...\n      DUP1 \t\t\tTransactionExecuted(_recipient...\n      DUP3 \t\t\tTransactionExecuted(_recipient...\n      SUB \t\t\tTransactionExecuted(_recipient...\n      DUP1 \t\t\tTransactionExecuted(_recipient...\n      MLOAD \t\t\tTransactionExecuted(_recipient...\n      PUSH 1\t\t\tTransactionExecuted(_recipient...\n      DUP4 \t\t\tTransactionExecuted(_recipient...\n      PUSH 20\t\t\tTransactionExecuted(_recipient...\n      SUB \t\t\tTransactionExecuted(_recipient...\n      PUSH 100\t\t\tTransactionExecuted(_recipient...\n      EXP \t\t\tTransactionExecuted(_recipient...\n      SUB \t\t\tTransactionExecuted(_recipient...\n      NOT \t\t\tTransactionExecuted(_recipient...\n      AND \t\t\tTransactionExecuted(_recipient...\n      DUP2 \t\t\tTransactionExecuted(_recipient...\n      MSTORE \t\t\tTransactionExecuted(_recipient...\n      PUSH 20\t\t\tTransactionExecuted(_recipient...\n      ADD \t\t\tTransactionExecuted(_recipient...\n      SWAP2 \t\t\tTransactionExecuted(_recipient...\n      POP \t\t\tTransactionExecuted(_recipient...\n    tag 75\t\t\tTransactionExecuted(_recipient...\n      JUMPDEST \t\t\tTransactionExecuted(_recipient...\n      POP \t\t\tTransactionExecuted(_recipient...\n      DUP4 \t\t\tTransactionExecuted(_recipient...\n      DUP2 \t\t\tTransactionExecuted(_recipient...\n      SUB \t\t\tTransactionExecuted(_recipient...\n      DUP3 \t\t\tTransactionExecuted(_recipient...\n      MSTORE \t\t\tTransactionExecuted(_recipient...\n      DUP5 \t\t\tTransactionExecuted(_recipient...\n      DUP2 \t\t\tTransactionExecuted(_recipient...\n      DUP2 \t\t\tTransactionExecuted(_recipient...\n      MLOAD \t\t\tTransactionExecuted(_recipient...\n      DUP2 \t\t\tTransactionExecuted(_recipient...\n      MSTORE \t\t\tTransactionExecuted(_recipient...\n      PUSH 20\t\t\tTransactionExecuted(_recipient...\n      ADD \t\t\tTransactionExecuted(_recipient...\n      SWAP2 \t\t\tTransactionExecuted(_recipient...\n      POP \t\t\tTransactionExecuted(_recipient...\n      DUP1 \t\t\tTransactionExecuted(_recipient...\n      MLOAD \t\t\tTransactionExecuted(_recipient...\n      SWAP1 \t\t\tTransactionExecuted(_recipient...\n      PUSH 20\t\t\tTransactionExecuted(_recipient...\n      ADD \t\t\tTransactionExecuted(_recipient...\n      SWAP1 \t\t\tTransactionExecuted(_recipient...\n      DUP1 \t\t\tTransactionExecuted(_recipient...\n      DUP4 \t\t\tTransactionExecuted(_recipient...\n      DUP4 \t\t\tTransactionExecuted(_recipient...\n      PUSH 0\t\t\t;\n    tag 76\t\t\tolidity ^0.5.10;\\n\\nimport \"./...\n      JUMPDEST \t\t\tolidity ^0.5.10;\\n\\nimport \"./...\n      DUP4 \t\t\t\"./\n      DUP2 \t\t\tr\n      LT \t\t\tmport \"./A\n      ISZERO \t\t\tolidity ^0.5.10;\\n\\nimport \"./...\n      PUSH [tag] 78\t\t\tolidity ^0.5.10;\\n\\nimport \"./...\n      JUMPI \t\t\tolidity ^0.5.10;\\n\\nimport \"./...\n      DUP1 \t\t\tu\n      DUP3 \t\t\t Ac\n      ADD \t\t\tract Accoun\n      MLOAD \t\t\t/\\ncontract Account\n      DUP2 \t\t\tt\n      DUP5 \t\t\tcco\n      ADD \t\t\tle Account\\n\n      MSTORE \t\t\t * @title Account\\n */\\ncontra...\n      PUSH 20\t\t\tso\n      DUP2 \t\t\tn\n      ADD \t\t\tccount.sol\n      SWAP1 \t\t\tractAccount.sol\n      POP \t\t\tractAccount.sol\n      PUSH [tag] 76\t\t\tolidity ^0.5.10;\\n\\nimport \"./...\n      JUMP \t\t\tolidity ^0.5.10;\\n\\nimport \"./...\n    tag 78\t\t\tolidity ^0.5.10;\\n\\nimport \"./...\n      JUMPDEST \t\t\tolidity ^0.5.10;\\n\\nimport \"./...\n      POP \t\t\tity ^0.5.10;\\n\\n\n      POP \t\t\tTransactionExecuted(_recipient...\n      POP \t\t\tTransactionExecuted(_recipient...\n      POP \t\t\tTransactionExecuted(_recipient...\n      SWAP1 \t\t\tTransactionExecuted(_recipient...\n      POP \t\t\tTransactionExecuted(_recipient...\n      SWAP1 \t\t\tTransactionExecuted(_recipient...\n      DUP2 \t\t\tTransactionExecuted(_recipient...\n      ADD \t\t\tTransactionExecuted(_recipient...\n      SWAP1 \t\t\tTransactionExecuted(_recipient...\n      PUSH 1F\t\t\tTransactionExecuted(_recipient...\n      AND \t\t\tTransactionExecuted(_recipient...\n      DUP1 \t\t\tTransactionExecuted(_recipient...\n      ISZERO \t\t\tTransactionExecuted(_recipient...\n      PUSH [tag] 79\t\t\tTransactionExecuted(_recipient...\n      JUMPI \t\t\tTransactionExecuted(_recipient...\n      DUP1 \t\t\tTransactionExecuted(_recipient...\n      DUP3 \t\t\tTransactionExecuted(_recipient...\n      SUB \t\t\tTransactionExecuted(_recipient...\n      DUP1 \t\t\tTransactionExecuted(_recipient...\n      MLOAD \t\t\tTransactionExecuted(_recipient...\n      PUSH 1\t\t\tTransactionExecuted(_recipient...\n      DUP4 \t\t\tTransactionExecuted(_recipient...\n      PUSH 20\t\t\tTransactionExecuted(_recipient...\n      SUB \t\t\tTransactionExecuted(_recipient...\n      PUSH 100\t\t\tTransactionExecuted(_recipient...\n      EXP \t\t\tTransactionExecuted(_recipient...\n      SUB \t\t\tTransactionExecuted(_recipient...\n      NOT \t\t\tTransactionExecuted(_recipient...\n      AND \t\t\tTransactionExecuted(_recipient...\n      DUP2 \t\t\tTransactionExecuted(_recipient...\n      MSTORE \t\t\tTransactionExecuted(_recipient...\n      PUSH 20\t\t\tTransactionExecuted(_recipient...\n      ADD \t\t\tTransactionExecuted(_recipient...\n      SWAP2 \t\t\tTransactionExecuted(_recipient...\n      POP \t\t\tTransactionExecuted(_recipient...\n    tag 79\t\t\tTransactionExecuted(_recipient...\n      JUMPDEST \t\t\tTransactionExecuted(_recipient...\n      POP \t\t\tTransactionExecuted(_recipient...\n      SWAP7 \t\t\tTransactionExecuted(_recipient...\n      POP \t\t\tTransactionExecuted(_recipient...\n      POP \t\t\tTransactionExecuted(_recipient...\n      POP \t\t\tTransactionExecuted(_recipient...\n      POP \t\t\tTransactionExecuted(_recipient...\n      POP \t\t\tTransactionExecuted(_recipient...\n      POP \t\t\tTransactionExecuted(_recipient...\n      POP \t\t\tTransactionExecuted(_recipient...\n      PUSH 40\t\t\tTransactionExecuted(_recipient...\n      MLOAD \t\t\tTransactionExecuted(_recipient...\n      DUP1 \t\t\tTransactionExecuted(_recipient...\n      SWAP2 \t\t\tTransactionExecuted(_recipient...\n      SUB \t\t\tTransactionExecuted(_recipient...\n      SWAP1 \t\t\tTransactionExecuted(_recipient...\n      LOG1 \t\t\tTransactionExecuted(_recipient...\n      POP \t\t\t_\n      SWAP4 \t\t\tfunction executeTransaction(ad...\n      SWAP3 \t\t\tfunction executeTransaction(ad...\n      POP \t\t\tfunction executeTransaction(ad...\n      POP \t\t\tfunction executeTransaction(ad...\n      POP \t\t\tfunction executeTransaction(ad...\n      JUMP [out]\t\t\tfunction executeTransaction(ad...\n    tag 37\t\t\tfunction addDevice(address _de...\n      JUMPDEST \t\t\tfunction addDevice(address _de...\n      PUSH 0\t\t\tdevices\n      DUP1 \t\t\tdevices[msg.sender]\n      CALLER \t\t\tmsg.sender\n      PUSH FFFFFFFFFFFFFFFFFFFFFFFFFFFFFFFFFFFFFFFF\t\t\tdevices[msg.sender]\n      AND \t\t\tdevices[msg.sender]\n      PUSH FFFFFFFFFFFFFFFFFFFFFFFFFFFFFFFFFFFFFFFF\t\t\tdevices[msg.sender]\n      AND \t\t\tdevices[msg.sender]\n      DUP2 \t\t\tdevices[msg.sender]\n      MSTORE \t\t\tdevices[msg.sender]\n      PUSH 20\t\t\tdevices[msg.sender]\n      ADD \t\t\tdevices[msg.sender]\n      SWAP1 \t\t\tdevices[msg.sender]\n      DUP2 \t\t\tdevices[msg.sender]\n      MSTORE \t\t\tdevices[msg.sender]\n      PUSH 20\t\t\tdevices[msg.sender]\n      ADD \t\t\tdevices[msg.sender]\n      PUSH 0\t\t\tdevices[msg.sender]\n      KECCAK256 \t\t\tdevices[msg.sender]\n      PUSH 0\t\t\tdevices[msg.sender].isOwner\n      ADD \t\t\tdevices[msg.sender].isOwner\n      PUSH 0\t\t\tdevices[msg.sender].isOwner\n      SWAP1 \t\t\tdevices[msg.sender].isOwner\n      SLOAD \t\t\tdevices[msg.sender].isOwner\n      SWAP1 \t\t\tdevices[msg.sender].isOwner\n      PUSH 100\t\t\tdevices[msg.sender].isOwner\n      EXP \t\t\tdevices[msg.sender].isOwner\n      SWAP1 \t\t\tdevices[msg.sender].isOwner\n      DIV \t\t\tdevices[msg.sender].isOwner\n      PUSH FF\t\t\tdevices[msg.sender].isOwner\n      AND \t\t\tdevices[msg.sender].isOwner\n      PUSH [tag] 81\t\t\trequire(\\n      devices[msg.se...\n      JUMPI \t\t\trequire(\\n      devices[msg.se...\n      PUSH 0\t\t\trequire(\\n      devices[msg.se...\n      DUP1 \t\t\trequire(\\n      devices[msg.se...\n      REVERT \t\t\trequire(\\n      devices[msg.se...\n    tag 81\t\t\trequire(\\n      devices[msg.se...\n      JUMPDEST \t\t\trequire(\\n      devices[msg.se...\n      PUSH 0\t\t\t0\n      PUSH FFFFFFFFFFFFFFFFFFFFFFFFFFFFFFFFFFFFFFFF\t\t\t_device != address(0)\n      AND \t\t\t_device != address(0)\n      DUP3 \t\t\t_device\n      PUSH FFFFFFFFFFFFFFFFFFFFFFFFFFFFFFFFFFFFFFFF\t\t\t_device != address(0)\n      AND \t\t\t_device != address(0)\n      EQ \t\t\t_device != address(0)\n      ISZERO \t\t\t_device != address(0)\n      PUSH [tag] 83\t\t\trequire(\\n      _device != add...\n      JUMPI \t\t\trequire(\\n      _device != add...\n      PUSH 0\t\t\trequire(\\n      _device != add...\n      DUP1 \t\t\trequire(\\n      _device != add...\n      REVERT \t\t\trequire(\\n      _device != add...\n    tag 83\t\t\trequire(\\n      _device != add...\n      JUMPDEST \t\t\trequire(\\n      _device != add...\n      PUSH 0\t\t\tdevices\n      DUP1 \t\t\tdevices[_device]\n      DUP4 \t\t\t_device\n      PUSH FFFFFFFFFFFFFFFFFFFFFFFFFFFFFFFFFFFFFFFF\t\t\tdevices[_device]\n      AND \t\t\tdevices[_device]\n      PUSH FFFFFFFFFFFFFFFFFFFFFFFFFFFFFFFFFFFFFFFF\t\t\tdevices[_device]\n      AND \t\t\tdevices[_device]\n      DUP2 \t\t\tdevices[_device]\n      MSTORE \t\t\tdevices[_device]\n      PUSH 20\t\t\tdevices[_device]\n      ADD \t\t\tdevices[_device]\n      SWAP1 \t\t\tdevices[_device]\n      DUP2 \t\t\tdevices[_device]\n      MSTORE \t\t\tdevices[_device]\n      PUSH 20\t\t\tdevices[_device]\n      ADD \t\t\tdevices[_device]\n      PUSH 0\t\t\tdevices[_device]\n      KECCAK256 \t\t\tdevices[_device]\n      PUSH 0\t\t\tdevices[_device].exists\n      ADD \t\t\tdevices[_device].exists\n      PUSH 1\t\t\tdevices[_device].exists\n      SWAP1 \t\t\tdevices[_device].exists\n      SLOAD \t\t\tdevices[_device].exists\n      SWAP1 \t\t\tdevices[_device].exists\n      PUSH 100\t\t\tdevices[_device].exists\n      EXP \t\t\tdevices[_device].exists\n      SWAP1 \t\t\tdevices[_device].exists\n      DIV \t\t\tdevices[_device].exists\n      PUSH FF\t\t\tdevices[_device].exists\n      AND \t\t\tdevices[_device].exists\n      ISZERO \t\t\t!devices[_device].exists\n      PUSH [tag] 84\t\t\trequire(\\n      !devices[_devi...\n      JUMPI \t\t\trequire(\\n      !devices[_devi...\n      PUSH 0\t\t\trequire(\\n      !devices[_devi...\n      DUP1 \t\t\trequire(\\n      !devices[_devi...\n      REVERT \t\t\trequire(\\n      !devices[_devi...\n    tag 84\t\t\trequire(\\n      !devices[_devi...\n      JUMPDEST \t\t\trequire(\\n      !devices[_devi...\n      DUP1 \t\t\t_isOwner\n      PUSH 0\t\t\tdevices\n      DUP1 \t\t\tdevices[_device]\n      DUP5 \t\t\t_device\n      PUSH FFFFFFFFFFFFFFFFFFFFFFFFFFFFFFFFFFFFFFFF\t\t\tdevices[_device]\n      AND \t\t\tdevices[_device]\n      PUSH FFFFFFFFFFFFFFFFFFFFFFFFFFFFFFFFFFFFFFFF\t\t\tdevices[_device]\n      AND \t\t\tdevices[_device]\n      DUP2 \t\t\tdevices[_device]\n      MSTORE \t\t\tdevices[_device]\n      PUSH 20\t\t\tdevices[_device]\n      ADD \t\t\tdevices[_device]\n      SWAP1 \t\t\tdevices[_device]\n      DUP2 \t\t\tdevices[_device]\n      MSTORE \t\t\tdevices[_device]\n      PUSH 20\t\t\tdevices[_device]\n      ADD \t\t\tdevices[_device]\n      PUSH 0\t\t\tdevices[_device]\n      KECCAK256 \t\t\tdevices[_device]\n      PUSH 0\t\t\tdevices[_device].isOwner\n      ADD \t\t\tdevices[_device].isOwner\n      PUSH 0\t\t\tdevices[_device].isOwner\n      PUSH 100\t\t\tdevices[_device].isOwner = _is...\n      EXP \t\t\tdevices[_device].isOwner = _is...\n      DUP2 \t\t\tdevices[_device].isOwner = _is...\n      SLOAD \t\t\tdevices[_device].isOwner = _is...\n      DUP2 \t\t\tdevices[_device].isOwner = _is...\n      PUSH FF\t\t\tdevices[_device].isOwner = _is...\n      MUL \t\t\tdevices[_device].isOwner = _is...\n      NOT \t\t\tdevices[_device].isOwner = _is...\n      AND \t\t\tdevices[_device].isOwner = _is...\n      SWAP1 \t\t\tdevices[_device].isOwner = _is...\n      DUP4 \t\t\tdevices[_device].isOwner = _is...\n      ISZERO \t\t\tdevices[_device].isOwner = _is...\n      ISZERO \t\t\tdevices[_device].isOwner = _is...\n      MUL \t\t\tdevices[_device].isOwner = _is...\n      OR \t\t\tdevices[_device].isOwner = _is...\n      SWAP1 \t\t\tdevices[_device].isOwner = _is...\n      SSTORE \t\t\tdevices[_device].isOwner = _is...\n      POP \t\t\tdevices[_device].isOwner = _is...\n      PUSH 1\t\t\ttrue\n      PUSH 0\t\t\tdevices\n      DUP1 \t\t\tdevices[_device]\n      DUP5 \t\t\t_device\n      PUSH FFFFFFFFFFFFFFFFFFFFFFFFFFFFFFFFFFFFFFFF\t\t\tdevices[_device]\n      AND \t\t\tdevices[_device]\n      PUSH FFFFFFFFFFFFFFFFFFFFFFFFFFFFFFFFFFFFFFFF\t\t\tdevices[_device]\n      AND \t\t\tdevices[_device]\n      DUP2 \t\t\tdevices[_device]\n      MSTORE \t\t\tdevices[_device]\n      PUSH 20\t\t\tdevices[_device]\n      ADD \t\t\tdevices[_device]\n      SWAP1 \t\t\tdevices[_device]\n      DUP2 \t\t\tdevices[_device]\n      MSTORE \t\t\tdevices[_device]\n      PUSH 20\t\t\tdevices[_device]\n      ADD \t\t\tdevices[_device]\n      PUSH 0\t\t\tdevices[_device]\n      KECCAK256 \t\t\tdevices[_device]\n      PUSH 0\t\t\tdevices[_device].exists\n      ADD \t\t\tdevices[_device].exists\n      PUSH 1\t\t\tdevices[_device].exists\n      PUSH 100\t\t\tdevices[_device].exists = true\n      EXP \t\t\tdevices[_device].exists = true\n      DUP2 \t\t\tdevices[_device].exists = true\n      SLOAD \t\t\tdevices[_device].exists = true\n      DUP2 \t\t\tdevices[_device].exists = true\n      PUSH FF\t\t\tdevices[_device].exists = true\n      MUL \t\t\tdevices[_device].exists = true\n      NOT \t\t\tdevices[_device].exists = true\n      AND \t\t\tdevices[_device].exists = true\n      SWAP1 \t\t\tdevices[_device].exists = true\n      DUP4 \t\t\tdevices[_device].exists = true\n      ISZERO \t\t\tdevices[_device].exists = true\n      ISZERO \t\t\tdevices[_device].exists = true\n      MUL \t\t\tdevices[_device].exists = true\n      OR \t\t\tdevices[_device].exists = true\n      SWAP1 \t\t\tdevices[_device].exists = true\n      SSTORE \t\t\tdevices[_device].exists = true\n      POP \t\t\tdevices[_device].exists = true\n      PUSH 1\t\t\ttrue\n      PUSH 0\t\t\tdevices\n      DUP1 \t\t\tdevices[_device]\n      DUP5 \t\t\t_device\n      PUSH FFFFFFFFFFFFFFFFFFFFFFFFFFFFFFFFFFFFFFFF\t\t\tdevices[_device]\n      AND \t\t\tdevices[_device]\n      PUSH FFFFFFFFFFFFFFFFFFFFFFFFFFFFFFFFFFFFFFFF\t\t\tdevices[_device]\n      AND \t\t\tdevices[_device]\n      DUP2 \t\t\tdevices[_device]\n      MSTORE \t\t\tdevices[_device]\n      PUSH 20\t\t\tdevices[_device]\n      ADD \t\t\tdevices[_device]\n      SWAP1 \t\t\tdevices[_device]\n      DUP2 \t\t\tdevices[_device]\n      MSTORE \t\t\tdevices[_device]\n      PUSH 20\t\t\tdevices[_device]\n      ADD \t\t\tdevices[_device]\n      PUSH 0\t\t\tdevices[_device]\n      KECCAK256 \t\t\tdevices[_device]\n      PUSH 0\t\t\tdevices[_device].existed\n      ADD \t\t\tdevices[_device].existed\n      PUSH 2\t\t\tdevices[_device].existed\n      PUSH 100\t\t\tdevices[_device].existed = tru...\n      EXP \t\t\tdevices[_device].existed = tru...\n      DUP2 \t\t\tdevices[_device].existed = tru...\n      SLOAD \t\t\tdevices[_device].existed = tru...\n      DUP2 \t\t\tdevices[_device].existed = tru...\n      PUSH FF\t\t\tdevices[_device].existed = tru...\n      MUL \t\t\tdevices[_device].existed = tru...\n      NOT \t\t\tdevices[_device].existed = tru...\n      AND \t\t\tdevices[_device].existed = tru...\n      SWAP1 \t\t\tdevices[_device].existed = tru...\n      DUP4 \t\t\tdevices[_device].existed = tru...\n      ISZERO \t\t\tdevices[_device].existed = tru...\n      ISZERO \t\t\tdevices[_device].existed = tru...\n      MUL \t\t\tdevices[_device].existed = tru...\n      OR \t\t\tdevices[_device].existed = tru...\n      SWAP1 \t\t\tdevices[_device].existed = tru...\n      SSTORE \t\t\tdevices[_device].existed = tru...\n      POP \t\t\tdevices[_device].existed = tru...\n      PUSH 3525178F8D4A5C0DC1E61A0EDE8D6A7A9EA67A23EC515983BBB940BE4B419650\t\t\tDeviceAdded(_device, _isOwner)\n      DUP3 \t\t\t_device\n      DUP3 \t\t\t_isOwner\n      PUSH 40\t\t\tDeviceAdded(_device, _isOwner)\n      MLOAD \t\t\tDeviceAdded(_device, _isOwner)\n      DUP1 \t\t\tDeviceAdded(_device, _isOwner)\n      DUP4 \t\t\tDeviceAdded(_device, _isOwner)\n      PUSH FFFFFFFFFFFFFFFFFFFFFFFFFFFFFFFFFFFFFFFF\t\t\tDeviceAdded(_device, _isOwner)\n      AND \t\t\tDeviceAdded(_device, _isOwner)\n      PUSH FFFFFFFFFFFFFFFFFFFFFFFFFFFFFFFFFFFFFFFF\t\t\tDeviceAdded(_device, _isOwner)\n      AND \t\t\tDeviceAdded(_device, _isOwner)\n      DUP2 \t\t\tDeviceAdded(_device, _isOwner)\n      MSTORE \t\t\tDeviceAdded(_device, _isOwner)\n      PUSH 20\t\t\tDeviceAdded(_device, _isOwner)\n      ADD \t\t\tDeviceAdded(_device, _isOwner)\n      DUP3 \t\t\tDeviceAdded(_device, _isOwner)\n      ISZERO \t\t\tDeviceAdded(_device, _isOwner)\n      ISZERO \t\t\tDeviceAdded(_device, _isOwner)\n      ISZERO \t\t\tDeviceAdded(_device, _isOwner)\n      ISZERO \t\t\tDeviceAdded(_device, _isOwner)\n      DUP2 \t\t\tDeviceAdded(_device, _isOwner)\n      MSTORE \t\t\tDeviceAdded(_device, _isOwner)\n      PUSH 20\t\t\tDeviceAdded(_device, _isOwner)\n      ADD \t\t\tDeviceAdded(_device, _isOwner)\n      SWAP3 \t\t\tDeviceAdded(_device, _isOwner)\n      POP \t\t\tDeviceAdded(_device, _isOwner)\n      POP \t\t\tDeviceAdded(_device, _isOwner)\n      POP \t\t\tDeviceAdded(_device, _isOwner)\n      PUSH 40\t\t\tDeviceAdded(_device, _isOwner)\n      MLOAD \t\t\tDeviceAdded(_device, _isOwner)\n      DUP1 \t\t\tDeviceAdded(_device, _isOwner)\n      SWAP2 \t\t\tDeviceAdded(_device, _isOwner)\n      SUB \t\t\tDeviceAdded(_device, _isOwner)\n      SWAP1 \t\t\tDeviceAdded(_device, _isOwner)\n      LOG1 \t\t\tDeviceAdded(_device, _isOwner)\n      POP \t\t\tfunction addDevice(address _de...\n      POP \t\t\tfunction addDevice(address _de...\n      JUMP [out]\t\t\tfunction addDevice(address _de...\n    tag 41\t\t\tl payable {\\n    //\\n  }\\n\\n  ...\n      JUMPDEST \t\t\tl payable {\\n    //\\n  }\\n\\n  ...\n      PUSH 0\t\t\tl payable {\\n    //\\n  }\\n\\n  ...\n      PUSH 20\t\t\tl payable {\\n    //\\n  }\\n\\n  ...\n      MSTORE \t\t\tl payable {\\n    //\\n  }\\n\\n  ...\n      DUP1 \t\t\tl payable {\\n    //\\n  }\\n\\n  ...\n      PUSH 0\t\t\tl payable {\\n    //\\n  }\\n\\n  ...\n      MSTORE \t\t\tl payable {\\n    //\\n  }\\n\\n  ...\n      PUSH 40\t\t\tl payable {\\n    //\\n  }\\n\\n  ...\n      PUSH 0\t\t\tl payable {\\n    //\\n  }\\n\\n  ...\n      KECCAK256 \t\t\tl payable {\\n    //\\n  }\\n\\n  ...\n      PUSH 0\t\t\tl payable {\\n    //\\n  }\\n\\n  ...\n      SWAP2 \t\t\tl payable {\\n    //\\n  }\\n\\n  ...\n      POP \t\t\tl payable {\\n    //\\n  }\\n\\n  ...\n      SWAP1 \t\t\tl payable {\\n    //\\n  }\\n\\n  ...\n      POP \t\t\tl payable {\\n    //\\n  }\\n\\n  ...\n      DUP1 \t\t\tl payable {\\n    //\\n  }\\n\\n  ...\n      PUSH 0\t\t\tl payable {\\n    //\\n  }\\n\\n  ...\n      ADD \t\t\tl payable {\\n    //\\n  }\\n\\n  ...\n      PUSH 0\t\t\tl payable {\\n    //\\n  }\\n\\n  ...\n      SWAP1 \t\t\tl payable {\\n    //\\n  }\\n\\n  ...\n      SLOAD \t\t\tl payable {\\n    //\\n  }\\n\\n  ...\n      SWAP1 \t\t\tl payable {\\n    //\\n  }\\n\\n  ...\n      PUSH 100\t\t\tl payable {\\n    //\\n  }\\n\\n  ...\n      EXP \t\t\tl payable {\\n    //\\n  }\\n\\n  ...\n      SWAP1 \t\t\tl payable {\\n    //\\n  }\\n\\n  ...\n      DIV \t\t\tl payable {\\n    //\\n  }\\n\\n  ...\n      PUSH FF\t\t\tl payable {\\n    //\\n  }\\n\\n  ...\n      AND \t\t\tl payable {\\n    //\\n  }\\n\\n  ...\n      SWAP1 \t\t\tl payable {\\n    //\\n  }\\n\\n  ...\n      DUP1 \t\t\tl payable {\\n    //\\n  }\\n\\n  ...\n      PUSH 0\t\t\tl payable {\\n    //\\n  }\\n\\n  ...\n      ADD \t\t\tl payable {\\n    //\\n  }\\n\\n  ...\n      PUSH 1\t\t\tl payable {\\n    //\\n  }\\n\\n  ...\n      SWAP1 \t\t\tl payable {\\n    //\\n  }\\n\\n  ...\n      SLOAD \t\t\tl payable {\\n    //\\n  }\\n\\n  ...\n      SWAP1 \t\t\tl payable {\\n    //\\n  }\\n\\n  ...\n      PUSH 100\t\t\tl payable {\\n    //\\n  }\\n\\n  ...\n      EXP \t\t\tl payable {\\n    //\\n  }\\n\\n  ...\n      SWAP1 \t\t\tl payable {\\n    //\\n  }\\n\\n  ...\n      DIV \t\t\tl payable {\\n    //\\n  }\\n\\n  ...\n      PUSH FF\t\t\tl payable {\\n    //\\n  }\\n\\n  ...\n      AND \t\t\tl payable {\\n    //\\n  }\\n\\n  ...\n      SWAP1 \t\t\tl payable {\\n    //\\n  }\\n\\n  ...\n      DUP1 \t\t\tl payable {\\n    //\\n  }\\n\\n  ...\n      PUSH 0\t\t\tl payable {\\n    //\\n  }\\n\\n  ...\n      ADD \t\t\tl payable {\\n    //\\n  }\\n\\n  ...\n      PUSH 2\t\t\tl payable {\\n    //\\n  }\\n\\n  ...\n      SWAP1 \t\t\tl payable {\\n    //\\n  }\\n\\n  ...\n      SLOAD \t\t\tl payable {\\n    //\\n  }\\n\\n  ...\n      SWAP1 \t\t\tl payable {\\n    //\\n  }\\n\\n  ...\n      PUSH 100\t\t\tl payable {\\n    //\\n  }\\n\\n  ...\n      EXP \t\t\tl payable {\\n    //\\n  }\\n\\n  ...\n      SWAP1 \t\t\tl payable {\\n    //\\n  }\\n\\n  ...\n      DIV \t\t\tl payable {\\n    //\\n  }\\n\\n  ...\n      PUSH FF\t\t\tl payable {\\n    //\\n  }\\n\\n  ...\n      AND \t\t\tl payable {\\n    //\\n  }\\n\\n  ...\n      SWAP1 \t\t\tl payable {\\n    //\\n  }\\n\\n  ...\n      POP \t\t\tl payable {\\n    //\\n  }\\n\\n  ...\n      DUP4 \t\t\tl payable {\\n    //\\n  }\\n\\n  ...\n      JUMP [out]\t\t\tl payable {\\n    //\\n  }\\n\\n  ...\n    tag 52\t\t\tfunction uint2str(uint _num) i...\n      JUMPDEST \t\t\tfunction uint2str(uint _num) i...\n      PUSH 60\t\t\tstring memory _uintAsString\n      PUSH 0\t\t\t0\n      DUP3 \t\t\t_num\n      EQ \t\t\t_num == 0\n      ISZERO \t\t\tif (_num == 0) {\\n      return...\n      PUSH [tag] 86\t\t\tif (_num == 0) {\\n      return...\n      JUMPI \t\t\tif (_num == 0) {\\n      return...\n      PUSH 40\t\t\treturn \"0\"\n      MLOAD \t\t\treturn \"0\"\n      DUP1 \t\t\treturn \"0\"\n      PUSH 40\t\t\treturn \"0\"\n      ADD \t\t\treturn \"0\"\n      PUSH 40\t\t\treturn \"0\"\n      MSTORE \t\t\treturn \"0\"\n      DUP1 \t\t\treturn \"0\"\n      PUSH 1\t\t\treturn \"0\"\n      DUP2 \t\t\treturn \"0\"\n      MSTORE \t\t\treturn \"0\"\n      PUSH 20\t\t\treturn \"0\"\n      ADD \t\t\treturn \"0\"\n      PUSH 3000000000000000000000000000000000000000000000000000000000000000\t\t\treturn \"0\"\n      DUP2 \t\t\treturn \"0\"\n      MSTORE \t\t\treturn \"0\"\n      POP \t\t\treturn \"0\"\n      SWAP1 \t\t\treturn \"0\"\n      POP \t\t\treturn \"0\"\n      PUSH [tag] 85\t\t\treturn \"0\"\n      JUMP \t\t\treturn \"0\"\n    tag 86\t\t\tif (_num == 0) {\\n      return...\n      JUMPDEST \t\t\tif (_num == 0) {\\n      return...\n      PUSH 0\t\t\tuint i\n      DUP3 \t\t\t_num\n      SWAP1 \t\t\tuint i = _num\n      POP \t\t\tuint i = _num\n      PUSH 0\t\t\tuint j\n      DUP4 \t\t\t_num\n      SWAP1 \t\t\tuint j = _num\n      POP \t\t\tuint j = _num\n      PUSH 0\t\t\tuint len\n    tag 87\t\t\twhile (j != 0) {\\n      len++;...\n      JUMPDEST \t\t\twhile (j != 0) {\\n      len++;...\n      PUSH 0\t\t\t0\n      DUP3 \t\t\tj\n      EQ \t\t\tj != 0\n      PUSH [tag] 88\t\t\twhile (j != 0) {\\n      len++;...\n      JUMPI \t\t\twhile (j != 0) {\\n      len++;...\n      DUP1 \t\t\tlen++\n      DUP1 \t\t\tlen++\n      PUSH 1\t\t\tlen++\n      ADD \t\t\tlen++\n      SWAP2 \t\t\tlen++\n      POP \t\t\tlen++\n      POP \t\t\tlen++\n      PUSH A\t\t\t10\n      DUP3 \t\t\tj /= 10\n      DUP2 \t\t\tj /= 10\n      PUSH [tag] 89\t\t\tj /= 10\n      JUMPI \t\t\tj /= 10\n      INVALID \t\t\tj /= 10\n    tag 89\t\t\tj /= 10\n      JUMPDEST \t\t\tj /= 10\n      DIV \t\t\tj /= 10\n      SWAP2 \t\t\tj /= 10\n      POP \t\t\tj /= 10\n      PUSH [tag] 87\t\t\twhile (j != 0) {\\n      len++;...\n      JUMP \t\t\twhile (j != 0) {\\n      len++;...\n    tag 88\t\t\twhile (j != 0) {\\n      len++;...\n      JUMPDEST \t\t\twhile (j != 0) {\\n      len++;...\n      PUSH 60\t\t\tbytes memory bstr\n      DUP2 \t\t\tlen\n      PUSH 40\t\t\tnew bytes(len)\n      MLOAD \t\t\tnew bytes(len)\n      SWAP1 \t\t\tnew bytes(len)\n      DUP1 \t\t\tnew bytes(len)\n      DUP3 \t\t\tnew bytes(len)\n      MSTORE \t\t\tnew bytes(len)\n      DUP1 \t\t\tnew bytes(len)\n      PUSH 1F\t\t\tnew bytes(len)\n      ADD \t\t\tnew bytes(len)\n      PUSH 1F\t\t\tnew bytes(len)\n      NOT \t\t\tnew bytes(len)\n      AND \t\t\tnew bytes(len)\n      PUSH 20\t\t\tnew bytes(len)\n      ADD \t\t\tnew bytes(len)\n      DUP3 \t\t\tnew bytes(len)\n      ADD \t\t\tnew bytes(len)\n      PUSH 40\t\t\tnew bytes(len)\n      MSTORE \t\t\tnew bytes(len)\n      DUP1 \t\t\tnew bytes(len)\n      ISZERO \t\t\tnew bytes(len)\n      PUSH [tag] 90\t\t\tnew bytes(len)\n      JUMPI \t\t\tnew bytes(len)\n      DUP2 \t\t\tnew bytes(len)\n      PUSH 20\t\t\tnew bytes(len)\n      ADD \t\t\tnew bytes(len)\n      PUSH 1\t\t\to\n      DUP3 \t\t\t10;\\n\\ni\n      MUL \t\t\t0.5.10;\\n\\nimpor\n      DUP1 \t\t\tcoun\n      CODESIZE \t\t\ts Abstract\n      DUP4 \t\t\tccount\n      CODECOPY \t\t\tontract Account is AbstractAcc...\n      DUP1 \t\t\t {\\n \n      DUP3 \t\t\tyOwner\n      ADD \t\t\t onlyOwner() {\\n  \n      SWAP2 \t\t\t  modifier onlyOwner() {\\n  \n      POP \t\t\t  modifier onlyOwner() {\\n  \n      POP \t\t\tpragma solidity ^0.5.10;\\n\\nim...\n      SWAP1 \t\t\tnew bytes(len)\n      POP \t\t\tnew bytes(len)\n    tag 90\t\t\tnew bytes(len)\n      JUMPDEST \t\t\tnew bytes(len)\n      POP \t\t\tnew bytes(len)\n      SWAP1 \t\t\tbytes memory bstr = new bytes(...\n      POP \t\t\tbytes memory bstr = new bytes(...\n      PUSH 0\t\t\tuint k\n      PUSH 1\t\t\t1\n      DUP4 \t\t\tlen\n      SUB \t\t\tlen - 1\n      SWAP1 \t\t\tuint k = len - 1\n      POP \t\t\tuint k = len - 1\n    tag 91\t\t\twhile (i != 0) {\\n      bstr[k...\n      JUMPDEST \t\t\twhile (i != 0) {\\n      bstr[k...\n      PUSH 0\t\t\t0\n      DUP6 \t\t\ti\n      EQ \t\t\ti != 0\n      PUSH [tag] 92\t\t\twhile (i != 0) {\\n      bstr[k...\n      JUMPI \t\t\twhile (i != 0) {\\n      bstr[k...\n      PUSH A\t\t\t10\n      DUP6 \t\t\ti\n      DUP2 \t\t\ti % 10\n      PUSH [tag] 93\t\t\ti % 10\n      JUMPI \t\t\ti % 10\n      INVALID \t\t\ti % 10\n    tag 93\t\t\ti % 10\n      JUMPDEST \t\t\ti % 10\n      MOD \t\t\ti % 10\n      PUSH 30\t\t\t48\n      ADD \t\t\t48 + i % 10\n      PUSH F8\t\t\tbyte(uint8(48 + i % 10))\n      SHL \t\t\tbyte(uint8(48 + i % 10))\n      DUP3 \t\t\tbstr\n      DUP3 \t\t\tk--\n      DUP1 \t\t\tk--\n      PUSH 1\t\t\tk--\n      SWAP1 \t\t\tk--\n      SUB \t\t\tk--\n      SWAP4 \t\t\tk--\n      POP \t\t\tk--\n      DUP2 \t\t\tbstr[k--]\n      MLOAD \t\t\tbstr[k--]\n      DUP2 \t\t\tbstr[k--]\n      LT \t\t\tbstr[k--]\n      PUSH [tag] 94\t\t\tbstr[k--]\n      JUMPI \t\t\tbstr[k--]\n      INVALID \t\t\tbstr[k--]\n    tag 94\t\t\tbstr[k--]\n      JUMPDEST \t\t\tbstr[k--]\n      PUSH 20\t\t\tbstr[k--]\n      ADD \t\t\tbstr[k--]\n      ADD \t\t\tbstr[k--]\n      SWAP1 \t\t\tbstr[k--] = byte(uint8(48 + i ...\n      PUSH FFFFFFFFFFFFFFFFFFFFFFFFFFFFFFFFFFFFFFFFFFFFFFFFFFFFFFFFFFFFFF\t\t\tbstr[k--] = byte(uint8(48 + i ...\n      NOT \t\t\tbstr[k--] = byte(uint8(48 + i ...\n      AND \t\t\tbstr[k--] = byte(uint8(48 + i ...\n      SWAP1 \t\t\tbstr[k--] = byte(uint8(48 + i ...\n      DUP2 \t\t\tbstr[k--] = byte(uint8(48 + i ...\n      PUSH 0\t\t\tbstr[k--] = byte(uint8(48 + i ...\n      BYTE \t\t\tbstr[k--] = byte(uint8(48 + i ...\n      SWAP1 \t\t\tbstr[k--] = byte(uint8(48 + i ...\n      MSTORE8 \t\t\tbstr[k--] = byte(uint8(48 + i ...\n      POP \t\t\tbstr[k--] = byte(uint8(48 + i ...\n      PUSH A\t\t\t10\n      DUP6 \t\t\ti /= 10\n      DUP2 \t\t\ti /= 10\n      PUSH [tag] 95\t\t\ti /= 10\n      JUMPI \t\t\ti /= 10\n      INVALID \t\t\ti /= 10\n    tag 95\t\t\ti /= 10\n      JUMPDEST \t\t\ti /= 10\n      DIV \t\t\ti /= 10\n      SWAP5 \t\t\ti /= 10\n      POP \t\t\ti /= 10\n      PUSH [tag] 91\t\t\twhile (i != 0) {\\n      bstr[k...\n      JUMP \t\t\twhile (i != 0) {\\n      bstr[k...\n    tag 92\t\t\twhile (i != 0) {\\n      bstr[k...\n      JUMPDEST \t\t\twhile (i != 0) {\\n      bstr[k...\n      DUP2 \t\t\tbstr\n      SWAP6 \t\t\treturn string(bstr)\n      POP \t\t\treturn string(bstr)\n      POP \t\t\treturn string(bstr)\n      POP \t\t\treturn string(bstr)\n      POP \t\t\treturn string(bstr)\n      POP \t\t\treturn string(bstr)\n      POP \t\t\treturn string(bstr)\n    tag 85\t\t\tfunction uint2str(uint _num) i...\n      JUMPDEST \t\t\tfunction uint2str(uint _num) i...\n      SWAP2 \t\t\tfunction uint2str(uint _num) i...\n      SWAP1 \t\t\tfunction uint2str(uint _num) i...\n      POP \t\t\tfunction uint2str(uint _num) i...\n      JUMP [out]\t\t\tfunction uint2str(uint _num) i...\n    .data\n"
}